{
  "address": "0x6e1A0E41914066225913aCc001A8311996cbA802",
  "abi": [
    {
      "inputs": [],
      "stateMutability": "nonpayable",
      "type": "constructor"
    },
    {
      "anonymous": false,
      "inputs": [
        {
          "indexed": true,
          "internalType": "address",
          "name": "owner",
          "type": "address"
        },
        {
          "indexed": true,
          "internalType": "address",
          "name": "approved",
          "type": "address"
        },
        {
          "indexed": true,
          "internalType": "uint256",
          "name": "tokenId",
          "type": "uint256"
        }
      ],
      "name": "Approval",
      "type": "event"
    },
    {
      "anonymous": false,
      "inputs": [
        {
          "indexed": true,
          "internalType": "address",
          "name": "owner",
          "type": "address"
        },
        {
          "indexed": true,
          "internalType": "address",
          "name": "operator",
          "type": "address"
        },
        {
          "indexed": false,
          "internalType": "bool",
          "name": "approved",
          "type": "bool"
        }
      ],
      "name": "ApprovalForAll",
      "type": "event"
    },
    {
      "anonymous": false,
      "inputs": [
        {
          "indexed": true,
          "internalType": "uint256",
          "name": "tokenId_",
          "type": "uint256"
        }
      ],
      "name": "Burn",
      "type": "event"
    },
    {
      "anonymous": false,
      "inputs": [
        {
          "indexed": false,
          "internalType": "uint256",
          "name": "cardId_",
          "type": "uint256"
        }
      ],
      "name": "Mint",
      "type": "event"
    },
    {
      "anonymous": false,
      "inputs": [
        {
          "indexed": false,
          "internalType": "uint256",
          "name": "cardId_",
          "type": "uint256"
        },
        {
          "indexed": false,
          "internalType": "uint256",
          "name": "_amount",
          "type": "uint256"
        }
      ],
      "name": "MintMulti",
      "type": "event"
    },
    {
      "anonymous": false,
      "inputs": [
        {
          "indexed": false,
          "internalType": "string",
          "name": "name_",
          "type": "string"
        },
        {
          "indexed": false,
          "internalType": "uint256",
          "name": "cardId_",
          "type": "uint256"
        },
        {
          "indexed": false,
          "internalType": "uint256",
          "name": "camp_",
          "type": "uint256"
        },
        {
          "indexed": false,
          "internalType": "uint256",
          "name": "rarity_",
          "type": "uint256"
        },
        {
          "indexed": false,
          "internalType": "uint256",
          "name": "maxAmount_",
          "type": "uint256"
        },
        {
          "indexed": false,
          "internalType": "string",
          "name": "cardURI_",
          "type": "string"
        }
      ],
      "name": "NewCard",
      "type": "event"
    },
    {
      "anonymous": false,
      "inputs": [
        {
          "indexed": false,
          "internalType": "address",
          "name": "tokenAddress_",
          "type": "address"
        },
        {
          "indexed": false,
          "internalType": "address",
          "name": "receivedAddress_",
          "type": "address"
        },
        {
          "indexed": false,
          "internalType": "uint256",
          "name": "amount_",
          "type": "uint256"
        }
      ],
      "name": "PullNFTs",
      "type": "event"
    },
    {
      "anonymous": false,
      "inputs": [
        {
          "indexed": false,
          "internalType": "address",
          "name": "_new",
          "type": "address"
        }
      ],
      "name": "SetAdmin",
      "type": "event"
    },
    {
      "anonymous": false,
      "inputs": [
        {
          "indexed": false,
          "internalType": "address",
          "name": "_new",
          "type": "address"
        }
      ],
      "name": "SetBlindBox",
      "type": "event"
    },
    {
      "anonymous": false,
      "inputs": [
        {
          "indexed": false,
          "internalType": "address",
          "name": "_new",
          "type": "address"
        },
        {
          "indexed": false,
          "internalType": "uint256",
          "name": "cardId_",
          "type": "uint256"
        },
        {
          "indexed": false,
          "internalType": "uint256",
          "name": "amount_",
          "type": "uint256"
        }
      ],
      "name": "SetMinter",
      "type": "event"
    },
    {
      "anonymous": false,
      "inputs": [
        {
          "indexed": false,
          "internalType": "address",
          "name": "_new",
          "type": "address"
        }
      ],
      "name": "SetSuperMinter",
      "type": "event"
    },
    {
      "anonymous": false,
      "inputs": [
        {
          "indexed": true,
          "internalType": "address",
          "name": "from",
          "type": "address"
        },
        {
          "indexed": true,
          "internalType": "address",
          "name": "to",
          "type": "address"
        },
        {
          "indexed": true,
          "internalType": "uint256",
          "name": "tokenId",
          "type": "uint256"
        }
      ],
      "name": "Transfer",
      "type": "event"
    },
    {
      "inputs": [],
      "name": "Admin",
      "outputs": [
        {
          "internalType": "address",
          "name": "",
          "type": "address"
        }
      ],
      "stateMutability": "view",
      "type": "function"
    },
    {
      "inputs": [
        {
          "internalType": "address",
          "name": "to",
          "type": "address"
        },
        {
          "internalType": "uint256",
          "name": "tokenId",
          "type": "uint256"
        }
      ],
      "name": "approve",
      "outputs": [],
      "stateMutability": "nonpayable",
      "type": "function"
    },
    {
      "inputs": [
        {
          "internalType": "address",
          "name": "owner",
          "type": "address"
        }
      ],
      "name": "balanceOf",
      "outputs": [
        {
          "internalType": "uint256",
          "name": "",
          "type": "uint256"
        }
      ],
      "stateMutability": "view",
      "type": "function"
    },
    {
      "inputs": [],
      "name": "blindBox",
      "outputs": [
        {
          "internalType": "address",
          "name": "",
          "type": "address"
        }
      ],
      "stateMutability": "view",
      "type": "function"
    },
    {
      "inputs": [
        {
          "internalType": "uint256",
          "name": "tokenId_",
          "type": "uint256"
        }
      ],
      "name": "burn",
      "outputs": [
        {
          "internalType": "bool",
          "name": "",
          "type": "bool"
        }
      ],
      "stateMutability": "nonpayable",
      "type": "function"
    },
    {
      "inputs": [
        {
          "internalType": "uint256[]",
          "name": "tokenIds_",
          "type": "uint256[]"
        }
      ],
      "name": "burnMulti",
      "outputs": [
        {
          "internalType": "bool",
          "name": "",
          "type": "bool"
        }
      ],
      "stateMutability": "nonpayable",
      "type": "function"
    },
    {
      "inputs": [
        {
          "internalType": "uint256",
          "name": "",
          "type": "uint256"
        }
      ],
      "name": "cardIdMap",
      "outputs": [
        {
          "internalType": "uint256",
          "name": "",
          "type": "uint256"
        }
      ],
      "stateMutability": "view",
      "type": "function"
    },
    {
      "inputs": [
        {
          "internalType": "uint256",
          "name": "",
          "type": "uint256"
        }
      ],
      "name": "cardInfoes",
      "outputs": [
        {
          "internalType": "uint256",
          "name": "cardId",
          "type": "uint256"
        },
        {
          "internalType": "uint256",
          "name": "camp",
          "type": "uint256"
        },
        {
          "internalType": "uint256",
          "name": "rarity",
          "type": "uint256"
        },
        {
          "internalType": "string",
          "name": "name",
          "type": "string"
        },
        {
          "internalType": "uint256",
          "name": "currentAmount",
          "type": "uint256"
        },
        {
          "internalType": "uint256",
          "name": "maxAmount",
          "type": "uint256"
        },
        {
          "internalType": "string",
          "name": "cardURI",
          "type": "string"
        }
      ],
      "stateMutability": "view",
      "type": "function"
    },
    {
      "inputs": [
        {
          "internalType": "uint256",
          "name": "tokenId",
          "type": "uint256"
        }
      ],
      "name": "getApproved",
      "outputs": [
        {
          "internalType": "address",
          "name": "",
          "type": "address"
        }
      ],
      "stateMutability": "view",
      "type": "function"
    },
    {
      "inputs": [
        {
          "internalType": "address",
          "name": "who",
          "type": "address"
        }
      ],
      "name": "getTokenIDsByAddress",
      "outputs": [
        {
          "internalType": "uint256[]",
          "name": "",
          "type": "uint256[]"
        }
      ],
      "stateMutability": "view",
      "type": "function"
    },
    {
      "inputs": [
        {
          "internalType": "address",
          "name": "blindBox_",
          "type": "address"
        },
        {
          "internalType": "string",
          "name": "baseTokenURI_",
          "type": "string"
        }
      ],
      "name": "initialize",
      "outputs": [],
      "stateMutability": "nonpayable",
      "type": "function"
    },
    {
      "inputs": [
        {
          "internalType": "address",
          "name": "owner",
          "type": "address"
        },
        {
          "internalType": "address",
          "name": "operator",
          "type": "address"
        }
      ],
      "name": "isApprovedForAll",
      "outputs": [
        {
          "internalType": "bool",
          "name": "",
          "type": "bool"
        }
      ],
      "stateMutability": "view",
      "type": "function"
    },
    {
      "inputs": [
        {
          "internalType": "uint256",
          "name": "cardId_",
          "type": "uint256"
        }
      ],
      "name": "mint",
      "outputs": [
        {
          "internalType": "uint256",
          "name": "",
          "type": "uint256"
        }
      ],
      "stateMutability": "nonpayable",
      "type": "function"
    },
    {
      "inputs": [
        {
          "internalType": "uint256",
          "name": "cardId_",
          "type": "uint256"
        },
        {
          "internalType": "uint256",
          "name": "amount_",
          "type": "uint256"
        }
      ],
      "name": "mintMulti",
      "outputs": [
        {
          "internalType": "uint256",
          "name": "",
          "type": "uint256"
        }
      ],
      "stateMutability": "nonpayable",
      "type": "function"
    },
    {
      "inputs": [
        {
          "internalType": "address",
          "name": "",
          "type": "address"
        },
        {
          "internalType": "uint256",
          "name": "",
          "type": "uint256"
        }
      ],
      "name": "minters",
      "outputs": [
        {
          "internalType": "uint256",
          "name": "",
          "type": "uint256"
        }
      ],
      "stateMutability": "view",
      "type": "function"
    },
    {
      "inputs": [],
      "name": "myBaseURI",
      "outputs": [
        {
          "internalType": "string",
          "name": "",
          "type": "string"
        }
      ],
      "stateMutability": "view",
      "type": "function"
    },
    {
      "inputs": [],
      "name": "name",
      "outputs": [
        {
          "internalType": "string",
          "name": "",
          "type": "string"
        }
      ],
      "stateMutability": "view",
      "type": "function"
    },
    {
      "inputs": [
        {
          "internalType": "string",
          "name": "name_",
          "type": "string"
        },
        {
          "internalType": "uint256",
          "name": "cardId_",
          "type": "uint256"
        },
        {
          "internalType": "uint256",
          "name": "camp_",
          "type": "uint256"
        },
        {
          "internalType": "uint256",
          "name": "rarity_",
          "type": "uint256"
        },
        {
          "internalType": "uint256",
          "name": "maxAmount_",
          "type": "uint256"
        },
        {
          "internalType": "string",
          "name": "cardURI_",
          "type": "string"
        }
      ],
      "name": "newCard",
      "outputs": [],
      "stateMutability": "nonpayable",
      "type": "function"
    },
    {
      "inputs": [
        {
          "internalType": "uint256",
          "name": "tokenId",
          "type": "uint256"
        }
      ],
      "name": "ownerOf",
      "outputs": [
        {
          "internalType": "address",
          "name": "",
          "type": "address"
        }
      ],
      "stateMutability": "view",
      "type": "function"
    },
    {
      "inputs": [
        {
          "internalType": "address",
          "name": "tokenAddress",
          "type": "address"
        },
        {
          "internalType": "address",
          "name": "receivedAddress",
          "type": "address"
        },
        {
          "internalType": "uint256",
          "name": "amount",
          "type": "uint256"
        }
      ],
      "name": "pullNFTs",
      "outputs": [],
      "stateMutability": "nonpayable",
      "type": "function"
    },
    {
      "inputs": [
        {
          "internalType": "address",
          "name": "from",
          "type": "address"
        },
        {
          "internalType": "address",
          "name": "to",
          "type": "address"
        },
        {
          "internalType": "uint256",
          "name": "tokenId",
          "type": "uint256"
        }
      ],
      "name": "safeTransferFrom",
      "outputs": [],
      "stateMutability": "nonpayable",
      "type": "function"
    },
    {
      "inputs": [
        {
          "internalType": "address",
          "name": "from",
          "type": "address"
        },
        {
          "internalType": "address",
          "name": "to",
          "type": "address"
        },
        {
          "internalType": "uint256",
          "name": "tokenId",
          "type": "uint256"
        },
        {
          "internalType": "bytes",
          "name": "_data",
          "type": "bytes"
        }
      ],
      "name": "safeTransferFrom",
      "outputs": [],
      "stateMutability": "nonpayable",
      "type": "function"
    },
    {
      "inputs": [
        {
          "internalType": "address",
          "name": "newAdmin_",
          "type": "address"
        }
      ],
      "name": "setAdmin",
      "outputs": [],
      "stateMutability": "nonpayable",
      "type": "function"
    },
    {
      "inputs": [
        {
          "internalType": "address",
          "name": "operator",
          "type": "address"
        },
        {
          "internalType": "bool",
          "name": "approved",
          "type": "bool"
        }
      ],
      "name": "setApprovalForAll",
      "outputs": [],
      "stateMutability": "nonpayable",
      "type": "function"
    },
    {
      "inputs": [
        {
          "internalType": "address",
          "name": "blindBox_",
          "type": "address"
        }
      ],
      "name": "setBlindBox",
      "outputs": [],
      "stateMutability": "nonpayable",
      "type": "function"
    },
    {
      "inputs": [
        {
          "internalType": "address",
          "name": "newMinter_",
          "type": "address"
        },
        {
          "internalType": "uint256",
          "name": "cardId_",
          "type": "uint256"
        },
        {
          "internalType": "uint256",
          "name": "amount_",
          "type": "uint256"
        }
      ],
      "name": "setMinter",
      "outputs": [],
      "stateMutability": "nonpayable",
      "type": "function"
    },
    {
      "inputs": [
        {
          "internalType": "string",
          "name": "uri_",
          "type": "string"
        }
      ],
      "name": "setMyBaseURI",
      "outputs": [],
      "stateMutability": "nonpayable",
      "type": "function"
    },
    {
      "inputs": [
        {
          "internalType": "address",
          "name": "newSuperMinter_",
          "type": "address"
        }
      ],
      "name": "setSuperMinter",
      "outputs": [],
      "stateMutability": "nonpayable",
      "type": "function"
    },
    {
      "inputs": [],
      "name": "superMinter",
      "outputs": [
        {
          "internalType": "address",
          "name": "",
          "type": "address"
        }
      ],
      "stateMutability": "view",
      "type": "function"
    },
    {
      "inputs": [
        {
          "internalType": "bytes4",
          "name": "interfaceId",
          "type": "bytes4"
        }
      ],
      "name": "supportsInterface",
      "outputs": [
        {
          "internalType": "bool",
          "name": "",
          "type": "bool"
        }
      ],
      "stateMutability": "view",
      "type": "function"
    },
    {
      "inputs": [],
      "name": "symbol",
      "outputs": [
        {
          "internalType": "string",
          "name": "",
          "type": "string"
        }
      ],
      "stateMutability": "view",
      "type": "function"
    },
    {
      "inputs": [
        {
          "internalType": "uint256",
          "name": "index",
          "type": "uint256"
        }
      ],
      "name": "tokenByIndex",
      "outputs": [
        {
          "internalType": "uint256",
          "name": "",
          "type": "uint256"
        }
      ],
      "stateMutability": "view",
      "type": "function"
    },
    {
      "inputs": [
        {
          "internalType": "address",
          "name": "owner",
          "type": "address"
        },
        {
          "internalType": "uint256",
          "name": "index",
          "type": "uint256"
        }
      ],
      "name": "tokenOfOwnerByIndex",
      "outputs": [
        {
          "internalType": "uint256",
          "name": "",
          "type": "uint256"
        }
      ],
      "stateMutability": "view",
      "type": "function"
    },
    {
      "inputs": [
        {
          "internalType": "uint256",
          "name": "tokenId_",
          "type": "uint256"
        }
      ],
      "name": "tokenURI",
      "outputs": [
        {
          "internalType": "string",
          "name": "",
          "type": "string"
        }
      ],
      "stateMutability": "view",
      "type": "function"
    },
    {
      "inputs": [],
      "name": "totalSupply",
      "outputs": [
        {
          "internalType": "uint256",
          "name": "",
          "type": "uint256"
        }
      ],
      "stateMutability": "view",
      "type": "function"
    },
    {
      "inputs": [
        {
          "internalType": "address",
          "name": "from",
          "type": "address"
        },
        {
          "internalType": "address",
          "name": "to",
          "type": "address"
        },
        {
          "internalType": "uint256",
          "name": "tokenId",
          "type": "uint256"
        }
      ],
      "name": "transferFrom",
      "outputs": [],
      "stateMutability": "nonpayable",
      "type": "function"
    },
    {
      "inputs": [
        {
          "internalType": "string",
          "name": "name_",
          "type": "string"
        },
        {
          "internalType": "uint256",
          "name": "cardId_",
          "type": "uint256"
        },
        {
          "internalType": "uint256",
          "name": "camp_",
          "type": "uint256"
        },
        {
          "internalType": "uint256",
          "name": "rarity_",
          "type": "uint256"
        },
        {
          "internalType": "uint256",
          "name": "maxAmount_",
          "type": "uint256"
        },
        {
          "internalType": "string",
          "name": "cardURI_",
          "type": "string"
        }
      ],
      "name": "updateCard",
      "outputs": [],
      "stateMutability": "nonpayable",
      "type": "function"
    }
  ],
  "transactionHash": "0x8d0b10ff5189306353edee0629b3b0e0b987bda750ad95a6d1153b1b2dc60403",
  "args": [],
  "numDeployments": 1,
  "solcInputHash": "0e81e0d05204f3293078f523345abdb3",
  "bytecode": "0x60806040523480156200001157600080fd5b50604080518082018252600b81526a1119599a5b984810d85c9960aa1b60208083019182528351808501909452600a84526911115192539050d0549160b21b9084015281519192916200006791600091620000b5565b5080516200007d906001906020840190620000b5565b50620000899150503390565b600b60026101000a8154816001600160a01b0302191690836001600160a01b0316021790555062000198565b828054620000c3906200015b565b90600052602060002090601f016020900481019282620000e7576000855562000132565b82601f106200010257805160ff191683800117855562000132565b8280016001018555821562000132579182015b828111156200013257825182559160200191906001019062000115565b506200014092915062000144565b5090565b5b8082111562000140576000815560010162000145565b600181811c908216806200017057607f821691505b602082108114156200019257634e487b7160e01b600052602260045260246000fd5b50919050565b6131d580620001a86000396000f3fe608060405234801561001057600080fd5b50600436106102275760003560e01c80636a4aeeb811610130578063b41d74d8116100b8578063e985e9c51161007c578063e985e9c5146104dc578063f399e22e14610518578063f9b3dd081461052b578063fbfe5e0d1461053e578063ff1b636d1461056457600080fd5b8063b41d74d81461047d578063b88d4fde14610490578063bb2fa28c146104a3578063c87b56dd146104b6578063ce954370146104c957600080fd5b80639239eb27116100ff5780639239eb271461041c57806395d89b411461043c578063995e5e7814610444578063a0712d6814610457578063a22cb4651461046a57600080fd5b80636a4aeeb8146103b8578063704b6c02146103cb57806370a08231146103de57806378746d0d146103f157600080fd5b8063372a3b82116101b35780635258495711610182578063525849571461034c5780635dcce2341461036c5780635f7c85431461037f57806362e42cb0146103925780636352211e146103a557600080fd5b8063372a3b821461030b57806342842e0e1461031357806342966c68146103265780634f6ccce71461033957600080fd5b806309ab0442116101fa57806309ab0442146102a957806317c0825e146102bc57806318160ddd146102dd57806323b872dd146102e55780632f745c59146102f857600080fd5b806301ffc9a71461022c57806306fdde0314610254578063081812fc14610269578063095ea7b314610294575b600080fd5b61023f61023a36600461293a565b61057d565b60405190151581526020015b60405180910390f35b61025c6105de565b60405161024b91906129af565b61027c6102773660046129c2565b610670565b6040516001600160a01b03909116815260200161024b565b6102a76102a23660046129f7565b61070a565b005b61023f6102b7366004612a21565b610820565b6102cf6102ca366004612a96565b6108d3565b60405190815260200161024b565b6008546102cf565b6102a76102f3366004612ab8565b610b03565b6102cf6103063660046129f7565b610b33565b61025c610bc9565b6102a7610321366004612ab8565b610c57565b61023f6103343660046129c2565b610c72565b6102cf6103473660046129c2565b610ce6565b61035f61035a366004612af4565b610d79565b60405161024b9190612b0f565b6102a761037a366004612bff565b610e3e565b6102a761038d366004612af4565b610e8e565b600d5461027c906001600160a01b031681565b61027c6103b33660046129c2565b610f81565b60145461027c906001600160a01b031681565b6102a76103d9366004612af4565b610ff8565b6102cf6103ec366004612af4565b6110af565b6102cf6103ff3660046129f7565b600c60209081526000928352604080842090915290825290205481565b6102cf61042a3660046129c2565b60126020526000908152604090205481565b61025c611136565b6102a7610452366004612c34565b611145565b6102cf6104653660046129c2565b611268565b6102a7610478366004612cbd565b61141f565b6102a761048b366004612af4565b61142a565b6102a761049e366004612cf9565b6114d7565b6102a76104b1366004612d75565b61150e565b61025c6104c43660046129c2565b61165b565b6102a76104d7366004612c34565b6117c9565b61023f6104ea366004612da8565b6001600160a01b03918216600090815260056020908152604080832093909416825291909152205460ff1690565b6102a7610526366004612ddb565b611916565b6102a7610539366004612ab8565b611a26565b61055161054c3660046129c2565b611c6b565b60405161024b9796959493929190612e29565b600b5461027c906201000090046001600160a01b031681565b60006001600160e01b031982166380ac58cd60e01b14806105ae57506001600160e01b0319821663780e9d6360e01b145b806105c957506001600160e01b03198216635b5e139f60e01b145b806105d857506105d882611db8565b92915050565b6060600080546105ed90612e7a565b80601f016020809104026020016040519081016040528092919081815260200182805461061990612e7a565b80156106665780601f1061063b57610100808354040283529160200191610666565b820191906000526020600020905b81548152906001019060200180831161064957829003601f168201915b5050505050905090565b6000818152600260205260408120546001600160a01b03166106ee5760405162461bcd60e51b815260206004820152602c60248201527f4552433732313a20617070726f76656420717565727920666f72206e6f6e657860448201526b34b9ba32b73a103a37b5b2b760a11b60648201526084015b60405180910390fd5b506000908152600460205260409020546001600160a01b031690565b600061071582610f81565b9050806001600160a01b0316836001600160a01b031614156107835760405162461bcd60e51b815260206004820152602160248201527f4552433732313a20617070726f76616c20746f2063757272656e74206f776e656044820152603960f91b60648201526084016106e5565b336001600160a01b038216148061079f575061079f81336104ea565b6108115760405162461bcd60e51b815260206004820152603860248201527f4552433732313a20617070726f76652063616c6c6572206973206e6f74206f7760448201527f6e6572206e6f7220617070726f76656420666f7220616c6c000000000000000060648201526084016106e5565b61081b8383611ddd565b505050565b6000805b828110156108c957600084848381811061084057610840612eb5565b9050602002013590506108596108533390565b82611e4b565b6108755760405162461bcd60e51b81526004016106e590612ecb565b60008181526012602052604081205561088d81611f3e565b60405181907fb90306ad06b2a6ff86ddc9327db583062895ef6540e62dc50add009db5b356eb90600090a2506108c281612f2e565b9050610824565b5060019392505050565b600080821161091d5760405162461bcd60e51b8152602060048201526016602482015275115490cdcc8c4e881b5a5cdcda5b99c8185b5bdd5b9d60521b60448201526064016106e5565b821580159061093957506000838152600f602052604090205415155b6109555760405162461bcd60e51b81526004016106e590612f49565b600d546001600160a01b03163314610a0157336000908152600c602090815260408083208684529091529020548211156109d15760405162461bcd60e51b815260206004820152601c60248201527f4552433732313a206e6f74206d696e74657227732063616c6c696e670000000060448201526064016106e5565b336000908152600c60209081526040808320868452909152812080548492906109fb908490612f77565b90915550505b6000838152600f6020526040902060048101546005909101548391610a269190611f4a565b1015610a445760405162461bcd60e51b81526004016106e590612f8e565b6000838152600f602052604081206004018054849290610a65908490612fd2565b9091555060009050805b83811015610ac257610a85600e80546001019055565b600e546000818152601260205260409020869055601454909250610ab2906001600160a01b031683611f5d565b610abb81612f2e565b9050610a6f565b5060408051858152602081018590527f20b9ec4cf5d5efbd4a139af041f94cea204bba8485660cff6a37cc30735a5fe9910160405180910390a19392505050565b610b0c33610853565b610b285760405162461bcd60e51b81526004016106e590612fea565b61081b8383836120ab565b6000610b3e836110af565b8210610ba05760405162461bcd60e51b815260206004820152602b60248201527f455243373231456e756d657261626c653a206f776e657220696e646578206f7560448201526a74206f6620626f756e647360a81b60648201526084016106e5565b506001600160a01b03919091166000908152600660209081526040808320938352929052205490565b60138054610bd690612e7a565b80601f0160208091040260200160405190810160405280929190818152602001828054610c0290612e7a565b8015610c4f5780601f10610c2457610100808354040283529160200191610c4f565b820191906000526020600020905b815481529060010190602001808311610c3257829003601f168201915b505050505081565b61081b838383604051806020016040528060008152506114d7565b6000610c7f335b83611e4b565b610c9b5760405162461bcd60e51b81526004016106e590612ecb565b600082815260126020526040812055610cb382611f3e565b60405182907fb90306ad06b2a6ff86ddc9327db583062895ef6540e62dc50add009db5b356eb90600090a2506001919050565b6000610cf160085490565b8210610d545760405162461bcd60e51b815260206004820152602c60248201527f455243373231456e756d657261626c653a20676c6f62616c20696e646578206f60448201526b7574206f6620626f756e647360a01b60648201526084016106e5565b60088281548110610d6757610d67612eb5565b90600052602060002001549050919050565b60606001600160a01b038216610d8e57600080fd5b6000610d99836110af565b905060008167ffffffffffffffff811115610db657610db6612b53565b604051908082528060200260200182016040528015610ddf578160200160208202803683370190505b50905060005b82811015610e3657610e07856001610dfd8487612f77565b6103069190612f77565b828281518110610e1957610e19612eb5565b602090810291909101015280610e2e81612f2e565b915050610de5565b509392505050565b600b546201000090046001600160a01b0316336001600160a01b031614610e775760405162461bcd60e51b81526004016106e59061303b565b8051610e8a906013906020840190612855565b5050565b600b546201000090046001600160a01b0316336001600160a01b031614610ec75760405162461bcd60e51b81526004016106e59061303b565b6001600160a01b038116610f2c5760405162461bcd60e51b815260206004820152602660248201527f5468652061646472657373206f6620426c696e6420426f7820746f6b656e20696044820152651cc81b9d5b1b60d21b60648201526084016106e5565b601480546001600160a01b0319166001600160a01b0383169081179091556040519081527fc2d6e5aa65a6a82749a98248a03c62d85dceda00a7bdd681867e8783cf0f8362906020015b60405180910390a150565b6000818152600260205260408120546001600160a01b0316806105d85760405162461bcd60e51b815260206004820152602960248201527f4552433732313a206f776e657220717565727920666f72206e6f6e657869737460448201526832b73a103a37b5b2b760b91b60648201526084016106e5565b600b546201000090046001600160a01b0316336001600160a01b0316146110315760405162461bcd60e51b81526004016106e59061303b565b6001600160a01b0381166110575760405162461bcd60e51b81526004016106e590613068565b600b805462010000600160b01b031916620100006001600160a01b038416908102919091179091556040519081527f5a272403b402d892977df56625f4164ccaf70ca3863991c43ecfe76a6905b0a190602001610f76565b60006001600160a01b03821661111a5760405162461bcd60e51b815260206004820152602a60248201527f4552433732313a2062616c616e636520717565727920666f7220746865207a65604482015269726f206164647265737360b01b60648201526084016106e5565b506001600160a01b031660009081526003602052604090205490565b6060600180546105ed90612e7a565b600b546201000090046001600160a01b0316336001600160a01b03161461117e5760405162461bcd60e51b81526004016106e59061303b565b841580159061119957506000858152600f6020526040902054155b6111b55760405162461bcd60e51b81526004016106e590612f49565b6111c0601086612252565b506040805160e0810182528681526020808201878152828401878152606084018b815260006080860181905260a0860189905260c086018890528b8152600f85529590952084518155915160018301555160028201559251805192939261122d9260038501920190612855565b506080820151600482015560a0820151600582015560c0820151805161125d916006840191602090910190612855565b505050505050505050565b6000811580159061128657506000828152600f602052604090205415155b6112a25760405162461bcd60e51b81526004016106e590612f49565b600d546001600160a01b0316331461134c57336000908152600c6020908152604080832085845290915290205461131b5760405162461bcd60e51b815260206004820152601c60248201527f4552433732313a206e6f74206d696e74657227732063616c6c696e670000000060448201526064016106e5565b336000908152600c602090815260408083208584529091528120805460019290611346908490612f77565b90915550505b6000828152600f602052604090206005810154600490910154106113825760405162461bcd60e51b81526004016106e590612f8e565b6000828152600f602052604081206004018054600192906113a4908490612fd2565b9091555050600e8054600101905560006113bd600e5490565b90507f07883703ed0e86588a40d76551c92f8a4b329e3bf19765e0e6749473c1a84665836040516113f091815260200190565b60405180910390a160008181526012602052604090208390556014546105d8906001600160a01b031682611f5d565b610e8a33838361225e565b600b546201000090046001600160a01b0316336001600160a01b0316146114635760405162461bcd60e51b81526004016106e59061303b565b6001600160a01b0381166114895760405162461bcd60e51b81526004016106e590613068565b600d80546001600160a01b0319166001600160a01b0383169081179091556040519081527fd4f3adbf0b736e108a3a5cd8d42edef56c28856b9806e8eda50a0acc1097e9fb90602001610f76565b6114e033610c79565b6114fc5760405162461bcd60e51b81526004016106e590612fea565b6115088484848461232d565b50505050565b600b546201000090046001600160a01b0316336001600160a01b0316146115475760405162461bcd60e51b81526004016106e59061303b565b6001600160a01b03831661156d5760405162461bcd60e51b81526004016106e590613068565b816115b05760405162461bcd60e51b8152602060048201526013602482015272151a194818d85c99125917c81a5cc81b9d5b1b606a1b60448201526064016106e5565b806115f35760405162461bcd60e51b8152602060048201526013602482015272151a1948185b5bdd5b9d17c81a5cc81b9d5b1b606a1b60448201526064016106e5565b6001600160a01b0383166000818152600c602090815260408083208684528252918290208490558151928352820184905281018290527f0561e3bc0e85ba2a46eebd611c60cd166c9080d8b53ba0ce668aad6c54df6ec59060600160405180910390a1505050565b6000818152600260205260409020546060906001600160a01b03166116da5760405162461bcd60e51b815260206004820152602f60248201527f4552433732314d657461646174613a2055524920717565727920666f72206e6f60448201526e3732bc34b9ba32b73a103a37b5b2b760891b60648201526084016106e5565b6000828152601260209081526040808320548352600f9091528120600601805461170390612e7a565b80601f016020809104026020016040519081016040528092919081815260200182805461172f90612e7a565b801561177c5780601f106117515761010080835404028352916020019161177c565b820191906000526020600020905b81548152906001019060200180831161175f57829003601f168201915b50505050509050600061178d612360565b9050600081511161179e57816117c1565b80826040516020016117b1929190613095565b6040516020818303038152906040525b949350505050565b600b546201000090046001600160a01b0316336001600160a01b0316146118025760405162461bcd60e51b81526004016106e59061303b565b841580159061181e57506000858152600f602052604090205415155b61183a5760405162461bcd60e51b81526004016106e590612f49565b6000858152600f602052604090206004015482116118ad5760405162461bcd60e51b815260206004820152602a60248201527f4552433732313a206d6178416d6f756e74206c657373207468616e2063757272604482015269195b9d08185b5bdd5b9d60b21b60648201526084016106e5565b6000858152600f6020908152604090912087516118d292600390920191890190612855565b506000858152600f60209081526040909120600181018690556002810185905560058101849055825161190d92600690920191840190612855565b50505050505050565b600b546201000090046001600160a01b0316336001600160a01b03161461194f5760405162461bcd60e51b81526004016106e59061303b565b600b54610100900460ff1661196a57600b5460ff161561196e565b303b155b6119d15760405162461bcd60e51b815260206004820152602e60248201527f496e697469616c697a61626c653a20636f6e747261637420697320616c72656160448201526d191e481a5b9a5d1a585b1a5e995960921b60648201526084016106e5565b600b54610100900460ff161580156119f357600b805461ffff19166101011790555b6119fc83610e8e565b8151611a0f906013906020850190612855565b50801561081b57600b805461ff0019169055505050565b600b546201000090046001600160a01b0316336001600160a01b031614611a5f5760405162461bcd60e51b81526004016106e59061303b565b6001600160a01b038216611a7257600080fd5b6001600160a01b038316611a8557600080fd5b6040516370a0823160e01b81523060048201526000906001600160a01b038516906370a082319060240160206040518083038186803b158015611ac757600080fd5b505afa158015611adb573d6000803e3d6000fd5b505050506040513d601f19601f82011682018060405250810190611aff91906130c4565b905081811015611b0d578091505b60005b82811015611c1957604051632f745c5960e01b8152306004820152600060248201819052906001600160a01b03871690632f745c599060440160206040518083038186803b158015611b6157600080fd5b505afa158015611b75573d6000803e3d6000fd5b505050506040513d601f19601f82011682018060405250810190611b9991906130c4565b604051632142170760e11b81523060048201526001600160a01b03878116602483015260448201839052919250908716906342842e0e90606401600060405180830381600087803b158015611bed57600080fd5b505af1158015611c01573d6000803e3d6000fd5b50505050508080611c1190612f2e565b915050611b10565b50604080516001600160a01b038087168252851660208201529081018390527f4353fd48ccf9fce9a5e548dea48c94142c8ca07352c78a006e0aca2ac650dc129060600160405180910390a150505050565b600f60205260009081526040902080546001820154600283015460038401805493949293919291611c9b90612e7a565b80601f0160208091040260200160405190810160405280929190818152602001828054611cc790612e7a565b8015611d145780601f10611ce957610100808354040283529160200191611d14565b820191906000526020600020905b815481529060010190602001808311611cf757829003601f168201915b505050505090806004015490806005015490806006018054611d3590612e7a565b80601f0160208091040260200160405190810160405280929190818152602001828054611d6190612e7a565b8015611dae5780601f10611d8357610100808354040283529160200191611dae565b820191906000526020600020905b815481529060010190602001808311611d9157829003601f168201915b5050505050905087565b60006001600160e01b0319821663780e9d6360e01b14806105d857506105d88261236f565b600081815260046020526040902080546001600160a01b0319166001600160a01b0384169081179091558190611e1282610f81565b6001600160a01b03167f8c5be1e5ebec7d5bd14f71427d1e84f3dd0314c0f7b2291e5b200ac8c7c3b92560405160405180910390a45050565b6000818152600260205260408120546001600160a01b0316611ec45760405162461bcd60e51b815260206004820152602c60248201527f4552433732313a206f70657261746f7220717565727920666f72206e6f6e657860448201526b34b9ba32b73a103a37b5b2b760a11b60648201526084016106e5565b6000611ecf83610f81565b9050806001600160a01b0316846001600160a01b03161480611f0a5750836001600160a01b0316611eff84610670565b6001600160a01b0316145b806117c157506001600160a01b0380821660009081526005602090815260408083209388168352929052205460ff166117c1565b611f47816123bf565b50565b6000611f568284612f77565b9392505050565b6001600160a01b038216611fb35760405162461bcd60e51b815260206004820181905260248201527f4552433732313a206d696e7420746f20746865207a65726f206164647265737360448201526064016106e5565b6000818152600260205260409020546001600160a01b0316156120185760405162461bcd60e51b815260206004820152601c60248201527f4552433732313a20746f6b656e20616c7265616479206d696e7465640000000060448201526064016106e5565b612024600083836123ff565b6001600160a01b038216600090815260036020526040812080546001929061204d908490612fd2565b909155505060008181526002602052604080822080546001600160a01b0319166001600160a01b03861690811790915590518392907fddf252ad1be2c89b69c2b068fc378daa952ba7f163c4a11628f55a4df523b3ef908290a45050565b826001600160a01b03166120be82610f81565b6001600160a01b0316146121225760405162461bcd60e51b815260206004820152602560248201527f4552433732313a207472616e736665722066726f6d20696e636f72726563742060448201526437bbb732b960d91b60648201526084016106e5565b6001600160a01b0382166121845760405162461bcd60e51b8152602060048201526024808201527f4552433732313a207472616e7366657220746f20746865207a65726f206164646044820152637265737360e01b60648201526084016106e5565b61218f8383836123ff565b61219a600082611ddd565b6001600160a01b03831660009081526003602052604081208054600192906121c3908490612f77565b90915550506001600160a01b03821660009081526003602052604081208054600192906121f1908490612fd2565b909155505060008181526002602052604080822080546001600160a01b0319166001600160a01b0386811691821790925591518493918716917fddf252ad1be2c89b69c2b068fc378daa952ba7f163c4a11628f55a4df523b3ef91a4505050565b6000611f56838361240a565b816001600160a01b0316836001600160a01b031614156122c05760405162461bcd60e51b815260206004820152601960248201527f4552433732313a20617070726f766520746f2063616c6c65720000000000000060448201526064016106e5565b6001600160a01b03838116600081815260056020908152604080832094871680845294825291829020805460ff191686151590811790915591519182527f17307eab39ab6107e8899845ad3d59bd9653f200f220920489ca2b5937696c31910160405180910390a3505050565b6123388484846120ab565b61234484848484612459565b6115085760405162461bcd60e51b81526004016106e5906130dd565b6060601380546105ed90612e7a565b60006001600160e01b031982166380ac58cd60e01b14806123a057506001600160e01b03198216635b5e139f60e01b145b806105d857506301ffc9a760e01b6001600160e01b03198316146105d8565b6123c881612566565b6000818152600a6020526040902080546123e190612e7a565b159050611f47576000818152600a60205260408120611f47916128d9565b61081b83838361260d565b6000818152600183016020526040812054612451575081546001818101845560008481526020808220909301849055845484825282860190935260409020919091556105d8565b5060006105d8565b60006001600160a01b0384163b1561255b57604051630a85bd0160e11b81526001600160a01b0385169063150b7a029061249d90339089908890889060040161312f565b602060405180830381600087803b1580156124b757600080fd5b505af19250505080156124e7575060408051601f3d908101601f191682019092526124e49181019061316c565b60015b612541573d808015612515576040519150601f19603f3d011682016040523d82523d6000602084013e61251a565b606091505b5080516125395760405162461bcd60e51b81526004016106e5906130dd565b805181602001fd5b6001600160e01b031916630a85bd0160e11b1490506117c1565b506001949350505050565b600061257182610f81565b905061257f816000846123ff565b61258a600083611ddd565b6001600160a01b03811660009081526003602052604081208054600192906125b3908490612f77565b909155505060008281526002602052604080822080546001600160a01b0319169055518391906001600160a01b038416907fddf252ad1be2c89b69c2b068fc378daa952ba7f163c4a11628f55a4df523b3ef908390a45050565b6001600160a01b0383166126685761266381600880546000838152600960205260408120829055600182018355919091527ff3f7a9fe364faab93b216da50a3214154f22a0a2b415b23a84c8169e8b636ee30155565b61268b565b816001600160a01b0316836001600160a01b03161461268b5761268b83826126c5565b6001600160a01b0382166126a25761081b81612762565b826001600160a01b0316826001600160a01b03161461081b5761081b8282612811565b600060016126d2846110af565b6126dc9190612f77565b60008381526007602052604090205490915080821461272f576001600160a01b03841660009081526006602090815260408083208584528252808320548484528184208190558352600790915290208190555b5060009182526007602090815260408084208490556001600160a01b039094168352600681528383209183525290812055565b60085460009061277490600190612f77565b6000838152600960205260408120546008805493945090928490811061279c5761279c612eb5565b9060005260206000200154905080600883815481106127bd576127bd612eb5565b60009182526020808320909101929092558281526009909152604080822084905585825281205560088054806127f5576127f5613189565b6001900381819060005260206000200160009055905550505050565b600061281c836110af565b6001600160a01b039093166000908152600660209081526040808320868452825280832085905593825260079052919091209190915550565b82805461286190612e7a565b90600052602060002090601f01602090048101928261288357600085556128c9565b82601f1061289c57805160ff19168380011785556128c9565b828001600101855582156128c9579182015b828111156128c95782518255916020019190600101906128ae565b506128d592915061290f565b5090565b5080546128e590612e7a565b6000825580601f106128f5575050565b601f016020900490600052602060002090810190611f4791905b5b808211156128d55760008155600101612910565b6001600160e01b031981168114611f4757600080fd5b60006020828403121561294c57600080fd5b8135611f5681612924565b60005b8381101561297257818101518382015260200161295a565b838111156115085750506000910152565b6000815180845261299b816020860160208601612957565b601f01601f19169290920160200192915050565b602081526000611f566020830184612983565b6000602082840312156129d457600080fd5b5035919050565b80356001600160a01b03811681146129f257600080fd5b919050565b60008060408385031215612a0a57600080fd5b612a13836129db565b946020939093013593505050565b60008060208385031215612a3457600080fd5b823567ffffffffffffffff80821115612a4c57600080fd5b818501915085601f830112612a6057600080fd5b813581811115612a6f57600080fd5b8660208260051b8501011115612a8457600080fd5b60209290920196919550909350505050565b60008060408385031215612aa957600080fd5b50508035926020909101359150565b600080600060608486031215612acd57600080fd5b612ad6846129db565b9250612ae4602085016129db565b9150604084013590509250925092565b600060208284031215612b0657600080fd5b611f56826129db565b6020808252825182820181905260009190848201906040850190845b81811015612b4757835183529284019291840191600101612b2b565b50909695505050505050565b634e487b7160e01b600052604160045260246000fd5b600067ffffffffffffffff80841115612b8457612b84612b53565b604051601f8501601f19908116603f01168101908282118183101715612bac57612bac612b53565b81604052809350858152868686011115612bc557600080fd5b858560208301376000602087830101525050509392505050565b600082601f830112612bf057600080fd5b611f5683833560208501612b69565b600060208284031215612c1157600080fd5b813567ffffffffffffffff811115612c2857600080fd5b6117c184828501612bdf565b60008060008060008060c08789031215612c4d57600080fd5b863567ffffffffffffffff80821115612c6557600080fd5b612c718a838b01612bdf565b97506020890135965060408901359550606089013594506080890135935060a0890135915080821115612ca357600080fd5b50612cb089828a01612bdf565b9150509295509295509295565b60008060408385031215612cd057600080fd5b612cd9836129db565b915060208301358015158114612cee57600080fd5b809150509250929050565b60008060008060808587031215612d0f57600080fd5b612d18856129db565b9350612d26602086016129db565b925060408501359150606085013567ffffffffffffffff811115612d4957600080fd5b8501601f81018713612d5a57600080fd5b612d6987823560208401612b69565b91505092959194509250565b600080600060608486031215612d8a57600080fd5b612d93846129db565b95602085013595506040909401359392505050565b60008060408385031215612dbb57600080fd5b612dc4836129db565b9150612dd2602084016129db565b90509250929050565b60008060408385031215612dee57600080fd5b612df7836129db565b9150602083013567ffffffffffffffff811115612e1357600080fd5b612e1f85828601612bdf565b9150509250929050565b87815286602082015285604082015260e060608201526000612e4e60e0830187612983565b8560808401528460a084015282810360c0840152612e6c8185612983565b9a9950505050505050505050565b600181811c90821680612e8e57607f821691505b60208210811415612eaf57634e487b7160e01b600052602260045260246000fd5b50919050565b634e487b7160e01b600052603260045260246000fd5b6020808252602d908201527f4552433732313a206275726e2063616c6c6572206973206e6f74206f776e657260408201526c081b9bdc88185c1c1c9bdd9959609a1b606082015260800190565b634e487b7160e01b600052601160045260246000fd5b6000600019821415612f4257612f42612f18565b5060010190565b602080825260149082015273115490cdcc8c4e881ddc9bdb99c818d85c99125960621b604082015260600190565b600082821015612f8957612f89612f18565b500390565b60208082526024908201527f4552433732313a20546f6b656e20616d6f756e74206973206f7574206f66206c6040820152631a5b5a5d60e21b606082015260800190565b60008219821115612fe557612fe5612f18565b500190565b60208082526031908201527f4552433732313a207472616e736665722063616c6c6572206973206e6f74206f6040820152701ddb995c881b9bdc88185c1c1c9bdd9959607a1b606082015260800190565b6020808252601390820152726e6f742041646d696e27732063616c6c696e6760681b604082015260600190565b602080825260139082015272151a19481859191c995cdcc81a5cc81b9d5b1b606a1b604082015260600190565b600083516130a7818460208801612957565b8351908301906130bb818360208801612957565b01949350505050565b6000602082840312156130d657600080fd5b5051919050565b60208082526032908201527f4552433732313a207472616e7366657220746f206e6f6e20455243373231526560408201527131b2b4bb32b91034b6b83632b6b2b73a32b960711b606082015260800190565b6001600160a01b038581168252841660208201526040810183905260806060820181905260009061316290830184612983565b9695505050505050565b60006020828403121561317e57600080fd5b8151611f5681612924565b634e487b7160e01b600052603160045260246000fdfea264697066735822122038fc2e6cdfaa68067147b95c3ee15dd32757150f8f1fdd3f7fe06ca7ecb47ef564736f6c63430008090033",
  "devdoc": {
    "kind": "dev",
    "methods": {
      "approve(address,uint256)": {
        "details": "See {IERC721-approve}."
      },
      "balanceOf(address)": {
        "details": "See {IERC721-balanceOf}."
      },
      "getApproved(uint256)": {
        "details": "See {IERC721-getApproved}."
      },
      "isApprovedForAll(address,address)": {
        "details": "See {IERC721-isApprovedForAll}."
      },
      "name()": {
        "details": "See {IERC721Metadata-name}."
      },
      "ownerOf(uint256)": {
        "details": "See {IERC721-ownerOf}."
      },
      "safeTransferFrom(address,address,uint256)": {
        "details": "See {IERC721-safeTransferFrom}."
      },
      "safeTransferFrom(address,address,uint256,bytes)": {
        "details": "See {IERC721-safeTransferFrom}."
      },
      "setApprovalForAll(address,bool)": {
        "details": "See {IERC721-setApprovalForAll}."
      },
      "symbol()": {
        "details": "See {IERC721Metadata-symbol}."
      },
      "tokenByIndex(uint256)": {
        "details": "See {IERC721Enumerable-tokenByIndex}."
      },
      "tokenOfOwnerByIndex(address,uint256)": {
        "details": "See {IERC721Enumerable-tokenOfOwnerByIndex}."
      },
      "totalSupply()": {
        "details": "See {IERC721Enumerable-totalSupply}."
      },
      "transferFrom(address,address,uint256)": {
        "details": "See {IERC721-transferFrom}."
      }
    },
    "version": 1
  },
  "userdoc": {
    "kind": "user",
    "methods": {},
    "version": 1
  },
  "storageLayout": {
    "storage": [
      {
        "astId": 2905,
        "contract": "contracts/DefinaCard721.sol:DefinaCard721",
        "label": "_name",
        "offset": 0,
        "slot": "0",
        "type": "t_string_storage"
      },
      {
        "astId": 2907,
        "contract": "contracts/DefinaCard721.sol:DefinaCard721",
        "label": "_symbol",
        "offset": 0,
        "slot": "1",
        "type": "t_string_storage"
      },
      {
        "astId": 2911,
        "contract": "contracts/DefinaCard721.sol:DefinaCard721",
        "label": "_owners",
        "offset": 0,
        "slot": "2",
        "type": "t_mapping(t_uint256,t_address)"
      },
      {
        "astId": 2915,
        "contract": "contracts/DefinaCard721.sol:DefinaCard721",
        "label": "_balances",
        "offset": 0,
        "slot": "3",
        "type": "t_mapping(t_address,t_uint256)"
      },
      {
        "astId": 2919,
        "contract": "contracts/DefinaCard721.sol:DefinaCard721",
        "label": "_tokenApprovals",
        "offset": 0,
        "slot": "4",
        "type": "t_mapping(t_uint256,t_address)"
      },
      {
        "astId": 2925,
        "contract": "contracts/DefinaCard721.sol:DefinaCard721",
        "label": "_operatorApprovals",
        "offset": 0,
        "slot": "5",
        "type": "t_mapping(t_address,t_mapping(t_address,t_bool))"
      },
      {
        "astId": 3924,
        "contract": "contracts/DefinaCard721.sol:DefinaCard721",
        "label": "_ownedTokens",
        "offset": 0,
        "slot": "6",
        "type": "t_mapping(t_address,t_mapping(t_uint256,t_uint256))"
      },
      {
        "astId": 3928,
        "contract": "contracts/DefinaCard721.sol:DefinaCard721",
        "label": "_ownedTokensIndex",
        "offset": 0,
        "slot": "7",
        "type": "t_mapping(t_uint256,t_uint256)"
      },
      {
        "astId": 3931,
        "contract": "contracts/DefinaCard721.sol:DefinaCard721",
        "label": "_allTokens",
        "offset": 0,
        "slot": "8",
        "type": "t_array(t_uint256)dyn_storage"
      },
      {
        "astId": 3935,
        "contract": "contracts/DefinaCard721.sol:DefinaCard721",
        "label": "_allTokensIndex",
        "offset": 0,
        "slot": "9",
        "type": "t_mapping(t_uint256,t_uint256)"
      },
      {
        "astId": 4297,
        "contract": "contracts/DefinaCard721.sol:DefinaCard721",
        "label": "_tokenURIs",
        "offset": 0,
        "slot": "10",
        "type": "t_mapping(t_uint256,t_string_storage)"
      },
      {
        "astId": 882,
        "contract": "contracts/DefinaCard721.sol:DefinaCard721",
        "label": "_initialized",
        "offset": 0,
        "slot": "11",
        "type": "t_bool"
      },
      {
        "astId": 885,
        "contract": "contracts/DefinaCard721.sol:DefinaCard721",
        "label": "_initializing",
        "offset": 1,
        "slot": "11",
        "type": "t_bool"
      },
      {
        "astId": 7183,
        "contract": "contracts/DefinaCard721.sol:DefinaCard721",
        "label": "Admin",
        "offset": 2,
        "slot": "11",
        "type": "t_address"
      },
      {
        "astId": 7189,
        "contract": "contracts/DefinaCard721.sol:DefinaCard721",
        "label": "minters",
        "offset": 0,
        "slot": "12",
        "type": "t_mapping(t_address,t_mapping(t_uint256,t_uint256))"
      },
      {
        "astId": 7191,
        "contract": "contracts/DefinaCard721.sol:DefinaCard721",
        "label": "superMinter",
        "offset": 0,
        "slot": "13",
        "type": "t_address"
      },
      {
        "astId": 7368,
        "contract": "contracts/DefinaCard721.sol:DefinaCard721",
        "label": "_tokenIds",
        "offset": 0,
        "slot": "14",
        "type": "t_struct(Counter)4820_storage"
      },
      {
        "astId": 7388,
        "contract": "contracts/DefinaCard721.sol:DefinaCard721",
        "label": "cardInfoes",
        "offset": 0,
        "slot": "15",
        "type": "t_mapping(t_uint256,t_struct(CardInfo)7383_storage)"
      },
      {
        "astId": 7391,
        "contract": "contracts/DefinaCard721.sol:DefinaCard721",
        "label": "cardIds",
        "offset": 0,
        "slot": "16",
        "type": "t_struct(UintSet)6950_storage"
      },
      {
        "astId": 7395,
        "contract": "contracts/DefinaCard721.sol:DefinaCard721",
        "label": "cardIdMap",
        "offset": 0,
        "slot": "18",
        "type": "t_mapping(t_uint256,t_uint256)"
      },
      {
        "astId": 7397,
        "contract": "contracts/DefinaCard721.sol:DefinaCard721",
        "label": "myBaseURI",
        "offset": 0,
        "slot": "19",
        "type": "t_string_storage"
      },
      {
        "astId": 7399,
        "contract": "contracts/DefinaCard721.sol:DefinaCard721",
        "label": "blindBox",
        "offset": 0,
        "slot": "20",
        "type": "t_address"
      }
    ],
    "types": {
      "t_address": {
        "encoding": "inplace",
        "label": "address",
        "numberOfBytes": "20"
      },
      "t_array(t_bytes32)dyn_storage": {
        "base": "t_bytes32",
        "encoding": "dynamic_array",
        "label": "bytes32[]",
        "numberOfBytes": "32"
      },
      "t_array(t_uint256)dyn_storage": {
        "base": "t_uint256",
        "encoding": "dynamic_array",
        "label": "uint256[]",
        "numberOfBytes": "32"
      },
      "t_bool": {
        "encoding": "inplace",
        "label": "bool",
        "numberOfBytes": "1"
      },
      "t_bytes32": {
        "encoding": "inplace",
        "label": "bytes32",
        "numberOfBytes": "32"
      },
      "t_mapping(t_address,t_bool)": {
        "encoding": "mapping",
        "key": "t_address",
        "label": "mapping(address => bool)",
        "numberOfBytes": "32",
        "value": "t_bool"
      },
      "t_mapping(t_address,t_mapping(t_address,t_bool))": {
        "encoding": "mapping",
        "key": "t_address",
        "label": "mapping(address => mapping(address => bool))",
        "numberOfBytes": "32",
        "value": "t_mapping(t_address,t_bool)"
      },
      "t_mapping(t_address,t_mapping(t_uint256,t_uint256))": {
        "encoding": "mapping",
        "key": "t_address",
        "label": "mapping(address => mapping(uint256 => uint256))",
        "numberOfBytes": "32",
        "value": "t_mapping(t_uint256,t_uint256)"
      },
      "t_mapping(t_address,t_uint256)": {
        "encoding": "mapping",
        "key": "t_address",
        "label": "mapping(address => uint256)",
        "numberOfBytes": "32",
        "value": "t_uint256"
      },
      "t_mapping(t_bytes32,t_uint256)": {
        "encoding": "mapping",
        "key": "t_bytes32",
        "label": "mapping(bytes32 => uint256)",
        "numberOfBytes": "32",
        "value": "t_uint256"
      },
      "t_mapping(t_uint256,t_address)": {
        "encoding": "mapping",
        "key": "t_uint256",
        "label": "mapping(uint256 => address)",
        "numberOfBytes": "32",
        "value": "t_address"
      },
      "t_mapping(t_uint256,t_string_storage)": {
        "encoding": "mapping",
        "key": "t_uint256",
        "label": "mapping(uint256 => string)",
        "numberOfBytes": "32",
        "value": "t_string_storage"
      },
      "t_mapping(t_uint256,t_struct(CardInfo)7383_storage)": {
        "encoding": "mapping",
        "key": "t_uint256",
        "label": "mapping(uint256 => struct DefinaCard721.CardInfo)",
        "numberOfBytes": "32",
        "value": "t_struct(CardInfo)7383_storage"
      },
      "t_mapping(t_uint256,t_uint256)": {
        "encoding": "mapping",
        "key": "t_uint256",
        "label": "mapping(uint256 => uint256)",
        "numberOfBytes": "32",
        "value": "t_uint256"
      },
      "t_string_storage": {
        "encoding": "bytes",
        "label": "string",
        "numberOfBytes": "32"
      },
      "t_struct(CardInfo)7383_storage": {
        "encoding": "inplace",
        "label": "struct DefinaCard721.CardInfo",
        "members": [
          {
            "astId": 7370,
            "contract": "contracts/DefinaCard721.sol:DefinaCard721",
            "label": "cardId",
            "offset": 0,
            "slot": "0",
            "type": "t_uint256"
          },
          {
            "astId": 7372,
            "contract": "contracts/DefinaCard721.sol:DefinaCard721",
            "label": "camp",
            "offset": 0,
            "slot": "1",
            "type": "t_uint256"
          },
          {
            "astId": 7374,
            "contract": "contracts/DefinaCard721.sol:DefinaCard721",
            "label": "rarity",
            "offset": 0,
            "slot": "2",
            "type": "t_uint256"
          },
          {
            "astId": 7376,
            "contract": "contracts/DefinaCard721.sol:DefinaCard721",
            "label": "name",
            "offset": 0,
            "slot": "3",
            "type": "t_string_storage"
          },
          {
            "astId": 7378,
            "contract": "contracts/DefinaCard721.sol:DefinaCard721",
            "label": "currentAmount",
            "offset": 0,
            "slot": "4",
            "type": "t_uint256"
          },
          {
            "astId": 7380,
            "contract": "contracts/DefinaCard721.sol:DefinaCard721",
            "label": "maxAmount",
            "offset": 0,
            "slot": "5",
            "type": "t_uint256"
          },
          {
            "astId": 7382,
            "contract": "contracts/DefinaCard721.sol:DefinaCard721",
            "label": "cardURI",
            "offset": 0,
            "slot": "6",
            "type": "t_string_storage"
          }
        ],
        "numberOfBytes": "224"
      },
      "t_struct(Counter)4820_storage": {
        "encoding": "inplace",
        "label": "struct Counters.Counter",
        "members": [
          {
            "astId": 4819,
            "contract": "contracts/DefinaCard721.sol:DefinaCard721",
            "label": "_value",
            "offset": 0,
            "slot": "0",
            "type": "t_uint256"
          }
        ],
        "numberOfBytes": "32"
      },
      "t_struct(Set)6492_storage": {
        "encoding": "inplace",
        "label": "struct EnumerableSet.Set",
        "members": [
          {
            "astId": 6487,
            "contract": "contracts/DefinaCard721.sol:DefinaCard721",
            "label": "_values",
            "offset": 0,
            "slot": "0",
            "type": "t_array(t_bytes32)dyn_storage"
          },
          {
            "astId": 6491,
            "contract": "contracts/DefinaCard721.sol:DefinaCard721",
            "label": "_indexes",
            "offset": 0,
            "slot": "1",
            "type": "t_mapping(t_bytes32,t_uint256)"
          }
        ],
        "numberOfBytes": "64"
      },
      "t_struct(UintSet)6950_storage": {
        "encoding": "inplace",
        "label": "struct EnumerableSet.UintSet",
        "members": [
          {
            "astId": 6949,
            "contract": "contracts/DefinaCard721.sol:DefinaCard721",
            "label": "_inner",
            "offset": 0,
            "slot": "0",
            "type": "t_struct(Set)6492_storage"
          }
        ],
        "numberOfBytes": "64"
      },
      "t_uint256": {
        "encoding": "inplace",
        "label": "uint256",
        "numberOfBytes": "32"
      }
    }
  }
}