{
  "address": "0xDA59f8f2EDd7Dc0C6964AD3df84C61fba0f63f97",
  "abi": [
    {
      "inputs": [],
      "stateMutability": "nonpayable",
      "type": "constructor"
    },
    {
      "anonymous": false,
      "inputs": [
        {
          "indexed": true,
          "internalType": "address",
          "name": "owner",
          "type": "address"
        },
        {
          "indexed": true,
          "internalType": "address",
          "name": "approved",
          "type": "address"
        },
        {
          "indexed": true,
          "internalType": "uint256",
          "name": "tokenId",
          "type": "uint256"
        }
      ],
      "name": "Approval",
      "type": "event"
    },
    {
      "anonymous": false,
      "inputs": [
        {
          "indexed": true,
          "internalType": "address",
          "name": "owner",
          "type": "address"
        },
        {
          "indexed": true,
          "internalType": "address",
          "name": "operator",
          "type": "address"
        },
        {
          "indexed": false,
          "internalType": "bool",
          "name": "approved",
          "type": "bool"
        }
      ],
      "name": "ApprovalForAll",
      "type": "event"
    },
    {
      "anonymous": false,
      "inputs": [
        {
          "indexed": false,
          "internalType": "address",
          "name": "_to",
          "type": "address"
        },
        {
          "indexed": false,
          "internalType": "uint256",
          "name": "tokenid_",
          "type": "uint256"
        }
      ],
      "name": "Mint",
      "type": "event"
    },
    {
      "anonymous": false,
      "inputs": [
        {
          "indexed": true,
          "internalType": "address",
          "name": "_to",
          "type": "address"
        },
        {
          "indexed": false,
          "internalType": "uint256",
          "name": "_amount",
          "type": "uint256"
        }
      ],
      "name": "MintMulti",
      "type": "event"
    },
    {
      "anonymous": false,
      "inputs": [
        {
          "indexed": true,
          "internalType": "uint256",
          "name": "tokenId_",
          "type": "uint256"
        },
        {
          "indexed": true,
          "internalType": "uint256",
          "name": "cardId_",
          "type": "uint256"
        },
        {
          "indexed": true,
          "internalType": "uint256",
          "name": "nftId_",
          "type": "uint256"
        }
      ],
      "name": "Open",
      "type": "event"
    },
    {
      "anonymous": false,
      "inputs": [
        {
          "indexed": true,
          "internalType": "uint256",
          "name": "tokenId",
          "type": "uint256"
        },
        {
          "indexed": true,
          "internalType": "address",
          "name": "user_",
          "type": "address"
        }
      ],
      "name": "OpenRequested",
      "type": "event"
    },
    {
      "anonymous": false,
      "inputs": [
        {
          "indexed": false,
          "internalType": "address",
          "name": "account",
          "type": "address"
        }
      ],
      "name": "Paused",
      "type": "event"
    },
    {
      "anonymous": false,
      "inputs": [
        {
          "indexed": true,
          "internalType": "bytes32",
          "name": "role",
          "type": "bytes32"
        },
        {
          "indexed": true,
          "internalType": "bytes32",
          "name": "previousAdminRole",
          "type": "bytes32"
        },
        {
          "indexed": true,
          "internalType": "bytes32",
          "name": "newAdminRole",
          "type": "bytes32"
        }
      ],
      "name": "RoleAdminChanged",
      "type": "event"
    },
    {
      "anonymous": false,
      "inputs": [
        {
          "indexed": true,
          "internalType": "bytes32",
          "name": "role",
          "type": "bytes32"
        },
        {
          "indexed": true,
          "internalType": "address",
          "name": "account",
          "type": "address"
        },
        {
          "indexed": true,
          "internalType": "address",
          "name": "sender",
          "type": "address"
        }
      ],
      "name": "RoleGranted",
      "type": "event"
    },
    {
      "anonymous": false,
      "inputs": [
        {
          "indexed": true,
          "internalType": "bytes32",
          "name": "role",
          "type": "bytes32"
        },
        {
          "indexed": true,
          "internalType": "address",
          "name": "account",
          "type": "address"
        },
        {
          "indexed": true,
          "internalType": "address",
          "name": "sender",
          "type": "address"
        }
      ],
      "name": "RoleRevoked",
      "type": "event"
    },
    {
      "anonymous": false,
      "inputs": [
        {
          "indexed": false,
          "internalType": "string",
          "name": "_newURI",
          "type": "string"
        }
      ],
      "name": "SetMyBaseURI",
      "type": "event"
    },
    {
      "anonymous": false,
      "inputs": [
        {
          "indexed": false,
          "internalType": "contract IDefinaCard",
          "name": "_newNft",
          "type": "address"
        }
      ],
      "name": "SetNftToken",
      "type": "event"
    },
    {
      "anonymous": false,
      "inputs": [
        {
          "indexed": false,
          "internalType": "contract IRandomGenerator",
          "name": "_newRandomGenerator",
          "type": "address"
        }
      ],
      "name": "SetRandomGenerator",
      "type": "event"
    },
    {
      "anonymous": false,
      "inputs": [
        {
          "indexed": true,
          "internalType": "address",
          "name": "from",
          "type": "address"
        },
        {
          "indexed": true,
          "internalType": "address",
          "name": "to",
          "type": "address"
        },
        {
          "indexed": true,
          "internalType": "uint256",
          "name": "tokenId",
          "type": "uint256"
        }
      ],
      "name": "Transfer",
      "type": "event"
    },
    {
      "anonymous": false,
      "inputs": [
        {
          "indexed": false,
          "internalType": "address",
          "name": "account",
          "type": "address"
        }
      ],
      "name": "Unpaused",
      "type": "event"
    },
    {
      "inputs": [],
      "name": "ADMIN_ROLE",
      "outputs": [
        {
          "internalType": "bytes32",
          "name": "",
          "type": "bytes32"
        }
      ],
      "stateMutability": "view",
      "type": "function"
    },
    {
      "inputs": [],
      "name": "DEFAULT_ADMIN_ROLE",
      "outputs": [
        {
          "internalType": "bytes32",
          "name": "",
          "type": "bytes32"
        }
      ],
      "stateMutability": "view",
      "type": "function"
    },
    {
      "inputs": [],
      "name": "PAUSER_ROLE",
      "outputs": [
        {
          "internalType": "bytes32",
          "name": "",
          "type": "bytes32"
        }
      ],
      "stateMutability": "view",
      "type": "function"
    },
    {
      "inputs": [
        {
          "internalType": "address[]",
          "name": "candidates_",
          "type": "address[]"
        }
      ],
      "name": "addToWhitelist",
      "outputs": [
        {
          "internalType": "bool",
          "name": "",
          "type": "bool"
        }
      ],
      "stateMutability": "nonpayable",
      "type": "function"
    },
    {
      "inputs": [
        {
          "internalType": "address",
          "name": "to",
          "type": "address"
        },
        {
          "internalType": "uint256",
          "name": "tokenId",
          "type": "uint256"
        }
      ],
      "name": "approve",
      "outputs": [],
      "stateMutability": "nonpayable",
      "type": "function"
    },
    {
      "inputs": [
        {
          "internalType": "address",
          "name": "owner",
          "type": "address"
        }
      ],
      "name": "balanceOf",
      "outputs": [
        {
          "internalType": "uint256",
          "name": "",
          "type": "uint256"
        }
      ],
      "stateMutability": "view",
      "type": "function"
    },
    {
      "inputs": [
        {
          "internalType": "uint256",
          "name": "tokenId",
          "type": "uint256"
        }
      ],
      "name": "burn",
      "outputs": [],
      "stateMutability": "nonpayable",
      "type": "function"
    },
    {
      "inputs": [
        {
          "internalType": "uint256",
          "name": "",
          "type": "uint256"
        }
      ],
      "name": "cardsQuota",
      "outputs": [
        {
          "internalType": "uint256",
          "name": "",
          "type": "uint256"
        }
      ],
      "stateMutability": "view",
      "type": "function"
    },
    {
      "inputs": [
        {
          "internalType": "uint256",
          "name": "amount",
          "type": "uint256"
        }
      ],
      "name": "cleanPublicBuyHistory",
      "outputs": [
        {
          "internalType": "bool",
          "name": "",
          "type": "bool"
        }
      ],
      "stateMutability": "nonpayable",
      "type": "function"
    },
    {
      "inputs": [
        {
          "internalType": "uint256",
          "name": "amount",
          "type": "uint256"
        }
      ],
      "name": "cleanWhitelist",
      "outputs": [
        {
          "internalType": "bool",
          "name": "",
          "type": "bool"
        }
      ],
      "stateMutability": "nonpayable",
      "type": "function"
    },
    {
      "inputs": [
        {
          "internalType": "address",
          "name": "candidate_",
          "type": "address"
        }
      ],
      "name": "containsInWhiteList",
      "outputs": [
        {
          "internalType": "bool",
          "name": "",
          "type": "bool"
        }
      ],
      "stateMutability": "view",
      "type": "function"
    },
    {
      "inputs": [],
      "name": "currToken",
      "outputs": [
        {
          "internalType": "contract IERC20Upgradeable",
          "name": "",
          "type": "address"
        }
      ],
      "stateMutability": "view",
      "type": "function"
    },
    {
      "inputs": [
        {
          "internalType": "uint256",
          "name": "tokenId",
          "type": "uint256"
        }
      ],
      "name": "getApproved",
      "outputs": [
        {
          "internalType": "address",
          "name": "",
          "type": "address"
        }
      ],
      "stateMutability": "view",
      "type": "function"
    },
    {
      "inputs": [
        {
          "internalType": "bytes32",
          "name": "role",
          "type": "bytes32"
        }
      ],
      "name": "getRoleAdmin",
      "outputs": [
        {
          "internalType": "bytes32",
          "name": "",
          "type": "bytes32"
        }
      ],
      "stateMutability": "view",
      "type": "function"
    },
    {
      "inputs": [
        {
          "internalType": "bytes32",
          "name": "role",
          "type": "bytes32"
        },
        {
          "internalType": "uint256",
          "name": "index",
          "type": "uint256"
        }
      ],
      "name": "getRoleMember",
      "outputs": [
        {
          "internalType": "address",
          "name": "",
          "type": "address"
        }
      ],
      "stateMutability": "view",
      "type": "function"
    },
    {
      "inputs": [
        {
          "internalType": "bytes32",
          "name": "role",
          "type": "bytes32"
        }
      ],
      "name": "getRoleMemberCount",
      "outputs": [
        {
          "internalType": "uint256",
          "name": "",
          "type": "uint256"
        }
      ],
      "stateMutability": "view",
      "type": "function"
    },
    {
      "inputs": [
        {
          "internalType": "bytes32",
          "name": "role",
          "type": "bytes32"
        },
        {
          "internalType": "address",
          "name": "account",
          "type": "address"
        }
      ],
      "name": "grantRole",
      "outputs": [],
      "stateMutability": "nonpayable",
      "type": "function"
    },
    {
      "inputs": [
        {
          "internalType": "bytes32",
          "name": "role",
          "type": "bytes32"
        },
        {
          "internalType": "address",
          "name": "account",
          "type": "address"
        }
      ],
      "name": "hasRole",
      "outputs": [
        {
          "internalType": "bool",
          "name": "",
          "type": "bool"
        }
      ],
      "stateMutability": "view",
      "type": "function"
    },
    {
      "inputs": [
        {
          "internalType": "contract IDefinaCard",
          "name": "nftToken_",
          "type": "address"
        },
        {
          "internalType": "string",
          "name": "baseTokenURI",
          "type": "string"
        },
        {
          "internalType": "contract IERC20Upgradeable",
          "name": "currToken_",
          "type": "address"
        },
        {
          "internalType": "uint256",
          "name": "nftPrice_",
          "type": "uint256"
        },
        {
          "internalType": "address",
          "name": "tokenReceiveAddress_",
          "type": "address"
        },
        {
          "internalType": "uint256[]",
          "name": "cardIds_",
          "type": "uint256[]"
        },
        {
          "internalType": "uint256[]",
          "name": "cardsNum_",
          "type": "uint256[]"
        },
        {
          "internalType": "contract IRandomGenerator",
          "name": "randomGenerator_",
          "type": "address"
        }
      ],
      "name": "initialize",
      "outputs": [],
      "stateMutability": "nonpayable",
      "type": "function"
    },
    {
      "inputs": [
        {
          "internalType": "address",
          "name": "owner",
          "type": "address"
        },
        {
          "internalType": "address",
          "name": "operator",
          "type": "address"
        }
      ],
      "name": "isApprovedForAll",
      "outputs": [
        {
          "internalType": "bool",
          "name": "",
          "type": "bool"
        }
      ],
      "stateMutability": "view",
      "type": "function"
    },
    {
      "inputs": [
        {
          "internalType": "uint256",
          "name": "amount",
          "type": "uint256"
        }
      ],
      "name": "mintMulti",
      "outputs": [],
      "stateMutability": "nonpayable",
      "type": "function"
    },
    {
      "inputs": [],
      "name": "name",
      "outputs": [
        {
          "internalType": "string",
          "name": "",
          "type": "string"
        }
      ],
      "stateMutability": "view",
      "type": "function"
    },
    {
      "inputs": [
        {
          "internalType": "uint256",
          "name": "",
          "type": "uint256"
        }
      ],
      "name": "nftIdtoCardId",
      "outputs": [
        {
          "internalType": "uint256",
          "name": "",
          "type": "uint256"
        }
      ],
      "stateMutability": "view",
      "type": "function"
    },
    {
      "inputs": [],
      "name": "nftPrice",
      "outputs": [
        {
          "internalType": "uint256",
          "name": "",
          "type": "uint256"
        }
      ],
      "stateMutability": "view",
      "type": "function"
    },
    {
      "inputs": [],
      "name": "nftToken",
      "outputs": [
        {
          "internalType": "contract IDefinaCard",
          "name": "",
          "type": "address"
        }
      ],
      "stateMutability": "view",
      "type": "function"
    },
    {
      "inputs": [
        {
          "internalType": "address",
          "name": "",
          "type": "address"
        },
        {
          "internalType": "address",
          "name": "",
          "type": "address"
        },
        {
          "internalType": "uint256",
          "name": "",
          "type": "uint256"
        },
        {
          "internalType": "bytes",
          "name": "",
          "type": "bytes"
        }
      ],
      "name": "onERC721Received",
      "outputs": [
        {
          "internalType": "bytes4",
          "name": "",
          "type": "bytes4"
        }
      ],
      "stateMutability": "nonpayable",
      "type": "function"
    },
    {
      "inputs": [
        {
          "internalType": "uint256",
          "name": "tokenId",
          "type": "uint256"
        }
      ],
      "name": "open",
      "outputs": [],
      "stateMutability": "nonpayable",
      "type": "function"
    },
    {
      "inputs": [
        {
          "internalType": "uint256",
          "name": "tokenId",
          "type": "uint256"
        }
      ],
      "name": "ownerOf",
      "outputs": [
        {
          "internalType": "address",
          "name": "",
          "type": "address"
        }
      ],
      "stateMutability": "view",
      "type": "function"
    },
    {
      "inputs": [],
      "name": "pause",
      "outputs": [],
      "stateMutability": "nonpayable",
      "type": "function"
    },
    {
      "inputs": [],
      "name": "paused",
      "outputs": [
        {
          "internalType": "bool",
          "name": "",
          "type": "bool"
        }
      ],
      "stateMutability": "view",
      "type": "function"
    },
    {
      "inputs": [],
      "name": "publicBuyableQuota",
      "outputs": [
        {
          "internalType": "uint256",
          "name": "",
          "type": "uint256"
        }
      ],
      "stateMutability": "view",
      "type": "function"
    },
    {
      "inputs": [
        {
          "internalType": "address",
          "name": "",
          "type": "address"
        }
      ],
      "name": "publicBuyingHistory",
      "outputs": [
        {
          "internalType": "uint256",
          "name": "",
          "type": "uint256"
        }
      ],
      "stateMutability": "view",
      "type": "function"
    },
    {
      "inputs": [
        {
          "internalType": "address",
          "name": "tokenAddress",
          "type": "address"
        },
        {
          "internalType": "address",
          "name": "receivedAddress",
          "type": "address"
        },
        {
          "internalType": "uint256",
          "name": "amount",
          "type": "uint256"
        }
      ],
      "name": "pullNFTs",
      "outputs": [],
      "stateMutability": "nonpayable",
      "type": "function"
    },
    {
      "inputs": [],
      "name": "randomGenerator",
      "outputs": [
        {
          "internalType": "contract IRandomGenerator",
          "name": "",
          "type": "address"
        }
      ],
      "stateMutability": "view",
      "type": "function"
    },
    {
      "inputs": [
        {
          "internalType": "bytes32",
          "name": "role",
          "type": "bytes32"
        },
        {
          "internalType": "address",
          "name": "account",
          "type": "address"
        }
      ],
      "name": "renounceRole",
      "outputs": [],
      "stateMutability": "nonpayable",
      "type": "function"
    },
    {
      "inputs": [
        {
          "internalType": "bytes32",
          "name": "role",
          "type": "bytes32"
        },
        {
          "internalType": "address",
          "name": "account",
          "type": "address"
        }
      ],
      "name": "revokeRole",
      "outputs": [],
      "stateMutability": "nonpayable",
      "type": "function"
    },
    {
      "inputs": [
        {
          "internalType": "uint256",
          "name": "tokenId_",
          "type": "uint256"
        },
        {
          "internalType": "address",
          "name": "user_",
          "type": "address"
        },
        {
          "internalType": "uint256",
          "name": "randomness_",
          "type": "uint256"
        }
      ],
      "name": "runFulfillRandomness",
      "outputs": [],
      "stateMutability": "nonpayable",
      "type": "function"
    },
    {
      "inputs": [
        {
          "internalType": "address",
          "name": "from",
          "type": "address"
        },
        {
          "internalType": "address",
          "name": "to",
          "type": "address"
        },
        {
          "internalType": "uint256",
          "name": "tokenId",
          "type": "uint256"
        }
      ],
      "name": "safeTransferFrom",
      "outputs": [],
      "stateMutability": "nonpayable",
      "type": "function"
    },
    {
      "inputs": [
        {
          "internalType": "address",
          "name": "from",
          "type": "address"
        },
        {
          "internalType": "address",
          "name": "to",
          "type": "address"
        },
        {
          "internalType": "uint256",
          "name": "tokenId",
          "type": "uint256"
        },
        {
          "internalType": "bytes",
          "name": "_data",
          "type": "bytes"
        }
      ],
      "name": "safeTransferFrom",
      "outputs": [],
      "stateMutability": "nonpayable",
      "type": "function"
    },
    {
      "inputs": [
        {
          "internalType": "address",
          "name": "operator",
          "type": "address"
        },
        {
          "internalType": "bool",
          "name": "approved",
          "type": "bool"
        }
      ],
      "name": "setApprovalForAll",
      "outputs": [],
      "stateMutability": "nonpayable",
      "type": "function"
    },
    {
      "inputs": [
        {
          "internalType": "uint256[]",
          "name": "cardIds_",
          "type": "uint256[]"
        },
        {
          "internalType": "uint256[]",
          "name": "cardsNum_",
          "type": "uint256[]"
        }
      ],
      "name": "setCardsQuota",
      "outputs": [],
      "stateMutability": "nonpayable",
      "type": "function"
    },
    {
      "inputs": [
        {
          "internalType": "contract IERC20Upgradeable",
          "name": "currToken_",
          "type": "address"
        }
      ],
      "name": "setCurrToken",
      "outputs": [],
      "stateMutability": "nonpayable",
      "type": "function"
    },
    {
      "inputs": [
        {
          "internalType": "address",
          "name": "tokenReceiveAddress_",
          "type": "address"
        }
      ],
      "name": "setErc20TokenReceiveAddress",
      "outputs": [],
      "stateMutability": "nonpayable",
      "type": "function"
    },
    {
      "inputs": [
        {
          "internalType": "string",
          "name": "uri_",
          "type": "string"
        }
      ],
      "name": "setMyBaseURI",
      "outputs": [],
      "stateMutability": "nonpayable",
      "type": "function"
    },
    {
      "inputs": [
        {
          "internalType": "uint256",
          "name": "nftPrice_",
          "type": "uint256"
        }
      ],
      "name": "setNftPrice",
      "outputs": [],
      "stateMutability": "nonpayable",
      "type": "function"
    },
    {
      "inputs": [
        {
          "internalType": "contract IDefinaCard",
          "name": "nftToken_",
          "type": "address"
        }
      ],
      "name": "setNftToken",
      "outputs": [],
      "stateMutability": "nonpayable",
      "type": "function"
    },
    {
      "inputs": [
        {
          "internalType": "uint256",
          "name": "publicBuyableQuota_",
          "type": "uint256"
        }
      ],
      "name": "setPublicBuyableQuota",
      "outputs": [],
      "stateMutability": "nonpayable",
      "type": "function"
    },
    {
      "inputs": [
        {
          "internalType": "contract IRandomGenerator",
          "name": "randomGenerator_",
          "type": "address"
        }
      ],
      "name": "setRandomGenerator",
      "outputs": [],
      "stateMutability": "nonpayable",
      "type": "function"
    },
    {
      "inputs": [
        {
          "internalType": "uint256",
          "name": "whiteListBuyableQuota_",
          "type": "uint256"
        }
      ],
      "name": "setWhiteListBuyableQuota",
      "outputs": [],
      "stateMutability": "nonpayable",
      "type": "function"
    },
    {
      "inputs": [
        {
          "internalType": "bytes4",
          "name": "interfaceId",
          "type": "bytes4"
        }
      ],
      "name": "supportsInterface",
      "outputs": [
        {
          "internalType": "bool",
          "name": "",
          "type": "bool"
        }
      ],
      "stateMutability": "view",
      "type": "function"
    },
    {
      "inputs": [],
      "name": "symbol",
      "outputs": [
        {
          "internalType": "string",
          "name": "",
          "type": "string"
        }
      ],
      "stateMutability": "view",
      "type": "function"
    },
    {
      "inputs": [],
      "name": "toggleWhiteListOnly",
      "outputs": [],
      "stateMutability": "nonpayable",
      "type": "function"
    },
    {
      "inputs": [
        {
          "internalType": "uint256",
          "name": "index",
          "type": "uint256"
        }
      ],
      "name": "tokenByIndex",
      "outputs": [
        {
          "internalType": "uint256",
          "name": "",
          "type": "uint256"
        }
      ],
      "stateMutability": "view",
      "type": "function"
    },
    {
      "inputs": [
        {
          "internalType": "address",
          "name": "owner",
          "type": "address"
        },
        {
          "internalType": "uint256",
          "name": "index",
          "type": "uint256"
        }
      ],
      "name": "tokenOfOwnerByIndex",
      "outputs": [
        {
          "internalType": "uint256",
          "name": "",
          "type": "uint256"
        }
      ],
      "stateMutability": "view",
      "type": "function"
    },
    {
      "inputs": [],
      "name": "tokenReceiveAddress",
      "outputs": [
        {
          "internalType": "address",
          "name": "",
          "type": "address"
        }
      ],
      "stateMutability": "view",
      "type": "function"
    },
    {
      "inputs": [
        {
          "internalType": "uint256",
          "name": "tokenId",
          "type": "uint256"
        }
      ],
      "name": "tokenURI",
      "outputs": [
        {
          "internalType": "string",
          "name": "",
          "type": "string"
        }
      ],
      "stateMutability": "view",
      "type": "function"
    },
    {
      "inputs": [],
      "name": "totalBlindBoxQuota",
      "outputs": [
        {
          "internalType": "uint256",
          "name": "",
          "type": "uint256"
        }
      ],
      "stateMutability": "view",
      "type": "function"
    },
    {
      "inputs": [],
      "name": "totalBlindBoxRemaining",
      "outputs": [
        {
          "internalType": "uint256",
          "name": "",
          "type": "uint256"
        }
      ],
      "stateMutability": "view",
      "type": "function"
    },
    {
      "inputs": [],
      "name": "totalBlindBoxSold",
      "outputs": [
        {
          "internalType": "uint256",
          "name": "",
          "type": "uint256"
        }
      ],
      "stateMutability": "view",
      "type": "function"
    },
    {
      "inputs": [],
      "name": "totalSupply",
      "outputs": [
        {
          "internalType": "uint256",
          "name": "",
          "type": "uint256"
        }
      ],
      "stateMutability": "view",
      "type": "function"
    },
    {
      "inputs": [
        {
          "internalType": "address",
          "name": "account",
          "type": "address"
        }
      ],
      "name": "transferAdmin",
      "outputs": [],
      "stateMutability": "nonpayable",
      "type": "function"
    },
    {
      "inputs": [
        {
          "internalType": "address",
          "name": "from",
          "type": "address"
        },
        {
          "internalType": "address",
          "name": "to",
          "type": "address"
        },
        {
          "internalType": "uint256",
          "name": "tokenId",
          "type": "uint256"
        }
      ],
      "name": "transferFrom",
      "outputs": [],
      "stateMutability": "nonpayable",
      "type": "function"
    },
    {
      "inputs": [],
      "name": "unpause",
      "outputs": [],
      "stateMutability": "nonpayable",
      "type": "function"
    },
    {
      "inputs": [
        {
          "internalType": "uint256",
          "name": "index",
          "type": "uint256"
        }
      ],
      "name": "whiteListAtIndex",
      "outputs": [
        {
          "internalType": "address",
          "name": "",
          "type": "address"
        }
      ],
      "stateMutability": "view",
      "type": "function"
    },
    {
      "inputs": [],
      "name": "whiteListBuyableQuota",
      "outputs": [
        {
          "internalType": "uint256",
          "name": "",
          "type": "uint256"
        }
      ],
      "stateMutability": "view",
      "type": "function"
    },
    {
      "inputs": [],
      "name": "whiteListCount",
      "outputs": [
        {
          "internalType": "uint256",
          "name": "",
          "type": "uint256"
        }
      ],
      "stateMutability": "view",
      "type": "function"
    },
    {
      "inputs": [],
      "name": "whiteListOnly",
      "outputs": [
        {
          "internalType": "bool",
          "name": "",
          "type": "bool"
        }
      ],
      "stateMutability": "view",
      "type": "function"
    },
    {
      "inputs": [
        {
          "internalType": "address",
          "name": "",
          "type": "address"
        }
      ],
      "name": "whitelistBuyingHistory",
      "outputs": [
        {
          "internalType": "uint256",
          "name": "",
          "type": "uint256"
        }
      ],
      "stateMutability": "view",
      "type": "function"
    }
  ],
  "transactionHash": "0xce9f197c6a358eb1a0e7571b6a1f95956a65e42de5448bc2e4a4dbfb12e15b60",
  "args": [],
  "numDeployments": 1,
  "solcInputHash": "3ea80335fa63ed9197311ab010571b55",
  "bytecode": "0x608060405234801561001057600080fd5b50614dc1806100206000396000f3fe608060405234801561001057600080fd5b50600436106103fc5760003560e01c8063613dd3311161021557806395d89b4111610125578063ca15c873116100b8578063d547741f11610087578063d547741f146108c4578063dcbad90d146108d7578063e63ab1e9146108eb578063e985e9c514610900578063f9b3dd081461093c57600080fd5b8063ca15c87314610877578063ced0603f1461088a578063d06fcba81461089d578063d207e244146108b157600080fd5b8063b88d4fde116100f4578063b88d4fde1461081d578063bd09e55514610830578063c32bc36414610851578063c87b56dd1461086457600080fd5b806395d89b41146107f0578063a217fddf146107f8578063a22cb46514610800578063a2b165051461081357600080fd5b80637d9a7a4c116101a857806385c239bb1161017757806385c239bb1461078757806388aac7b4146107a85780639010d07c146107bc578063912554cb146107cf57806391d14854146107dd57600080fd5b80637d9a7a4c146107465780637f64978314610759578063823962841461076c5780638456cb591461077f57600080fd5b806370a08231116101e457806370a08231146106f857806372aa3b621461070b57806375829def1461071e57806375b238fc1461073157600080fd5b8063613dd331146106ac5780636352211e146106bf57806363f2ff1a146106d2578063690e7c09146106e557600080fd5b806336568abe11610310578063460dd82b116102a35780634f2efc72116102725780634f2efc72146106545780634f6ccce71461066757806351e5d91d1461067a5780635c975abb1461068d5780635dcce2341461069957600080fd5b8063460dd82b1461061c578063475f95051461062f5780634bc19fee146106395780634de031611461064c57600080fd5b80633fc80923116102df5780633fc80923146105d957806342842e0e146105ec57806342966c68146105ff57806343953e131461061257600080fd5b806336568abe146105a3578063380fced3146105b6578063399dccb6146105c95780633f4ba83a146105d157600080fd5b806318160ddd1161039357806323b872dd1161036257806323b872dd14610526578063248a9ca3146105395780632c914aea1461055c5780632f2ff15d1461057d5780632f745c591461059057600080fd5b806318160ddd146104f75780631b7c0a26146104ff5780631e6f28651461051257806323a7657d1461051c57600080fd5b8063095ea7b3116103cf578063095ea7b3146104985780630d39fc81146104ad5780630ed36832146104b7578063150b7a02146104cb57600080fd5b806301ffc9a71461040157806306fdde0314610429578063081812fc1461043e578063082096af14610469575b600080fd5b61041461040f366004614328565b61094f565b60405190151581526020015b60405180910390f35b610431610960565b604051610420919061439d565b61045161044c3660046143b0565b6109f2565b6040516001600160a01b039091168152602001610420565b61048a6104773660046143b0565b6101f96020526000908152604090205481565b604051908152602001610420565b6104ab6104a63660046143ee565b610a8c565b005b61048a6101f75481565b6101f854610451906001600160a01b031681565b6104de6104d93660046144a6565b610ba2565b6040516001600160e01b03199091168152602001610420565b60fd5461048a565b6104ab61050d3660046143b0565b610bb3565b61048a61020a5481565b61048a6102005481565b6104ab610534366004614526565b610bf6565b61048a6105473660046143b0565b60009081526065602052604090206001015490565b61048a61056a3660046143b0565b6101fe6020526000908152604090205481565b6104ab61058b366004614567565b610c28565b61048a61059e3660046143ee565b610c4e565b6104ab6105b1366004614567565b610ce4565b6104146105c43660046143b0565b610d62565b61048a610e1e565b6104ab610e30565b6104ab6105e7366004614603565b610eb1565b6104ab6105fa366004614526565b6113d4565b6104ab61060d3660046143b0565b6113ef565b61048a6101ff5481565b6104ab61062a3660046146e4565b611469565b61048a6102015481565b6104ab6106473660046146e4565b61152b565b6104ab611624565b6104ab610662366004614701565b61168b565b61048a6106753660046143b0565b6119db565b6104ab6106883660046143b0565b611a6e565b61015f5460ff16610414565b6104ab6106a736600461476d565b611e22565b6104ab6106ba3660046146e4565b611ea2565b6104516106cd3660046143b0565b611f58565b6104516106e03660046143b0565b611fcf565b6104ab6106f33660046143b0565b612044565b61048a6107063660046146e4565b61218b565b6104ab6107193660046143b0565b612212565b6104ab61072c3660046146e4565b612255565b61048a600080516020614d6c83398151915281565b6104ab6107543660046143b0565b612277565b6104146107673660046147a2565b612302565b61041461077a3660046146e4565b612418565b6104ab612426565b61048a6107953660046146e4565b6102096020526000908152604090205481565b6101f654610451906001600160a01b031681565b6104516107ca3660046147e4565b6124a3565b610205546104149060ff1681565b6104146107eb366004614567565b6124c2565b6104316124ed565b61048a600081565b6104ab61080e366004614814565b6124fc565b61048a6102065481565b6104ab61082b3660046144a6565b612507565b61048a61083e3660046146e4565b6102046020526000908152604090205481565b61041461085f3660046143b0565b61253f565b6104316108723660046143b0565b6125ee565b61048a6108853660046143b0565b6126c8565b6104ab610898366004614842565b6126df565b61020c54610451906001600160a01b031681565b6104ab6108bf3660046146e4565b61276d565b6104ab6108d2366004614567565b61285a565b61020d54610451906001600160a01b031681565b61048a600080516020614d4c83398151915281565b61041461090e366004614869565b6001600160a01b03918216600090815260ce6020908152604080832093909416825291909152205460ff1690565b6104ab61094a366004614526565b612880565b600061095a82612a4e565b92915050565b606060c9805461096f90614897565b80601f016020809104026020016040519081016040528092919081815260200182805461099b90614897565b80156109e85780601f106109bd576101008083540402835291602001916109e8565b820191906000526020600020905b8154815290600101906020018083116109cb57829003601f168201915b5050505050905090565b600081815260cb60205260408120546001600160a01b0316610a705760405162461bcd60e51b815260206004820152602c60248201527f4552433732313a20617070726f76656420717565727920666f72206e6f6e657860448201526b34b9ba32b73a103a37b5b2b760a11b60648201526084015b60405180910390fd5b50600090815260cd60205260409020546001600160a01b031690565b6000610a9782611f58565b9050806001600160a01b0316836001600160a01b03161415610b055760405162461bcd60e51b815260206004820152602160248201527f4552433732313a20617070726f76616c20746f2063757272656e74206f776e656044820152603960f91b6064820152608401610a67565b336001600160a01b0382161480610b215750610b21813361090e565b610b935760405162461bcd60e51b815260206004820152603860248201527f4552433732313a20617070726f76652063616c6c6572206973206e6f74206f7760448201527f6e6572206e6f7220617070726f76656420666f7220616c6c00000000000000006064820152608401610a67565b610b9d8383612a73565b505050565b630a85bd0160e11b5b949350505050565b600080516020614d6c833981519152610bcc8133612ae1565b61015f5460ff16610bef5760405162461bcd60e51b8152600401610a67906148cc565b5061020a55565b610c01335b82612b45565b610c1d5760405162461bcd60e51b8152600401610a67906148fa565b610b9d838383612c38565b600082815260656020526040902060010154610c448133612ae1565b610b9d8383612ddf565b6000610c598361218b565b8210610cbb5760405162461bcd60e51b815260206004820152602b60248201527f455243373231456e756d657261626c653a206f776e657220696e646578206f7560448201526a74206f6620626f756e647360a81b6064820152608401610a67565b506001600160a01b0391909116600090815260fb60209081526040808320938352929052205490565b6001600160a01b0381163314610d545760405162461bcd60e51b815260206004820152602f60248201527f416363657373436f6e74726f6c3a2063616e206f6e6c792072656e6f756e636560448201526e103937b632b9903337b91039b2b63360891b6064820152608401610a67565b610d5e8282612e01565b5050565b6000600080516020614d6c833981519152610d7d8133612ae1565b61015f5460ff16610da05760405162461bcd60e51b8152600401610a67906148cc565b6000610dad610207612e23565b905083811015610dbb578093505b60005b84811015610e11576000610dd461020782612e2d565b6001600160a01b038116600090815261020960205260408120559050610dfc61020782612e39565b50508080610e0990614961565b915050610dbe565b5060019250505b50919050565b6000610e2b610202612e23565b905090565b610e48600080516020614d4c833981519152336124c2565b610ea75760405162461bcd60e51b815260206004820152602a60248201527f426c696e64426f783a206d75737420686176652070617573657220726f6c6520604482015269746f20756e706175736560b01b6064820152608401610a67565b610eaf612e4e565b565b600054610100900460ff16610ecc5760005460ff1615610ed0565b303b155b610f335760405162461bcd60e51b815260206004820152602e60248201527f496e697469616c697a61626c653a20636f6e747261637420697320616c72656160448201526d191e481a5b9a5d1a585b1a5e995960921b6064820152608401610a67565b600054610100900460ff16158015610f55576000805461ffff19166101011790555b610f5d612ebc565b610fad6040518060400160405280600f81526020016e088caccd2dcc24090cae4de4084def608b1b815250604051806040016040528060078152602001660908aa49e849eb60cb1b815250612ee3565b610fb5612ebc565b610fbd612ebc565b610fc5612f31565b610fcd612ebc565b610fd5612ebc565b610fe0600033612f65565b610ff8600080516020614d4c83398151915233612f65565b611010600080516020614d6c83398151915233612f65565b611028600080516020614d6c833981519152336124c2565b6110895760405162461bcd60e51b815260206004820152602c60248201527f426c696e64426f783a206d75737420686176652061646d696e20726f6c65207460448201526b6f20696e697469616c697a6560a01b6064820152608401610a67565b846110a65760405162461bcd60e51b8152600401610a679061497c565b8483146110c55760405162461bcd60e51b8152600401610a67906149be565b61020c80546001600160a01b0319166001600160a01b038d1617905589516110f59061020b9060208d0190614279565b506101f680546001600160a01b03808c166001600160a01b0319928316179092556101f78a90556101f880548a841690831617905561020d80549285169290911691909117905560005b858110156112965786868281811061115957611159614a0f565b905060200201356000141561116d57600080fd5b84848281811061117f5761117f614a0f565b905060200201356000141561119357600080fd5b8484828181106111a5576111a5614a0f565b905060200201356101f960008989858181106111c3576111c3614a0f565b905060200201358152602001908152602001600020819055508484828181106111ee576111ee614a0f565b905060200201356101fa600089898581811061120c5761120c614a0f565b9050602002013581526020019081526020016000208190555061125287878381811061123a5761123a614a0f565b905060200201356101fc612f6f90919063ffffffff16565b5084848281811061126557611265614a0f565b905060200201356101ff600082825461127e9190614a25565b9091555081905061128e81614961565b91505061113f565b5060005b858110156113a5576101ff546101f960008989858181106112bd576112bd614a0f565b9050602002013581526020019081526020016000205464e8d4a510006112e39190614a3d565b6112ed9190614a72565b6101fb600089898581811061130457611304614a0f565b9050602002013581526020019081526020016000208190555060646101fb600089898581811061133657611336614a0f565b90506020020135815260200190815260200160002054600a6113589190614a3d565b6113629190614a72565b610210600089898581811061137957611379614a0f565b90506020020135815260200190815260200160002081905550808061139d90614961565b91505061129a565b506101ff546102015560001961020f5580156113c7576000805461ff00191690555b5050505050505050505050565b610b9d83838360405180602001604052806000815250612507565b6113f833610bfb565b61145d5760405162461bcd60e51b815260206004820152603060248201527f4552433732314275726e61626c653a2063616c6c6572206973206e6f74206f7760448201526f1b995c881b9bdc88185c1c1c9bdd995960821b6064820152608401610a67565b61146681612f7b565b50565b600080516020614d6c8339815191526114828133612ae1565b61015f5460ff166114a55760405162461bcd60e51b8152600401610a67906148cc565b6001600160a01b0382166115075760405162461bcd60e51b815260206004820152602360248201527f5468652061646472657373206f662049455243323020746f6b656e206973206e6044820152621d5b1b60ea1b6064820152608401610a67565b506101f680546001600160a01b0319166001600160a01b0392909216919091179055565b600080516020614d6c8339815191526115448133612ae1565b61015f5460ff166115675760405162461bcd60e51b8152600401610a67906148cc565b6001600160a01b0382166115cd5760405162461bcd60e51b815260206004820152602760248201527f5468652061646472657373206f662072616e646f6d2067656e657261746f72206044820152661a5cc81b9d5b1b60ca1b6064820152608401610a67565b61020d80546001600160a01b0319166001600160a01b0384169081179091556040519081527fcd980f874c8ee4a311d89457c809b87e0749309253fbdae752b7708965d48070906020015b60405180910390a15050565b600080516020614d6c83398151915261163d8133612ae1565b61015f5460ff166116605760405162461bcd60e51b8152600401610a67906148cc565b6102055460ff161561167a57610205805460ff1916905550565b610205805460ff1916600117905550565b600080516020614d6c8339815191526116a48133612ae1565b61015f5460ff166116c75760405162461bcd60e51b8152600401610a67906148cc565b836116e45760405162461bcd60e51b8152600401610a679061497c565b8382146117035760405162461bcd60e51b8152600401610a67906149be565b60006117106101fc612e23565b905060005b8181101561176c57600061172b6101fc82612e2d565b60008181526101f9602090815260408083208390556101fb90915281205590506117576101fc82613022565b5050808061176490614961565b915050611715565b5060006101ff8190556102008190555b858110156118bb5786868281811061179657611796614a0f565b90506020020135600014156117aa57600080fd5b8484828181106117bc576117bc614a0f565b90506020020135600014156117d057600080fd5b8484828181106117e2576117e2614a0f565b905060200201356101f9600089898581811061180057611800614a0f565b9050602002013581526020019081526020016000208190555084848281811061182b5761182b614a0f565b905060200201356101fa600089898581811061184957611849614a0f565b9050602002013581526020019081526020016000208190555061187787878381811061123a5761123a614a0f565b5084848281811061188a5761188a614a0f565b905060200201356101ff60008282546118a39190614a25565b909155508190506118b381614961565b91505061177c565b5060005b858110156119ca576101ff546101f960008989858181106118e2576118e2614a0f565b9050602002013581526020019081526020016000205464e8d4a510006119089190614a3d565b6119129190614a72565b6101fb600089898581811061192957611929614a0f565b9050602002013581526020019081526020016000208190555060646101fb600089898581811061195b5761195b614a0f565b90506020020135815260200190815260200160002054600a61197d9190614a3d565b6119879190614a72565b610210600089898581811061199e5761199e614a0f565b9050602002013581526020019081526020016000208190555080806119c290614961565b9150506118bf565b50506101ff54610201555050505050565b60006119e660fd5490565b8210611a495760405162461bcd60e51b815260206004820152602c60248201527f455243373231456e756d657261626c653a20676c6f62616c20696e646578206f60448201526b7574206f6620626f756e647360a01b6064820152608401610a67565b60fd8281548110611a5c57611a5c614a0f565b90600052602060002001549050919050565b61015f5460ff1615611a925760405162461bcd60e51b8152600401610a6790614a86565b333214611ad55760405162461bcd60e51b8152602060048201526011602482015270426c696e64626f783a206e6f7420656f6160781b6044820152606401610a67565b60008111611b255760405162461bcd60e51b815260206004820152601860248201527f426c696e64426f783a206d697373696e6720616d6f756e7400000000000000006044820152606401610a67565b806102006000828254611b389190614a25565b90915550506101ff54610200541115611bac5760405162461bcd60e51b815260206004820152603060248201527f42696e64426f783a20657863656564656420746f74616c20626c696e6420626f60448201526f3c10313abcb0b136329038bab7ba309760811b6064820152608401610a67565b6102055460ff1615611c9b57611bc46102023361302e565b611c095760405162461bcd60e51b81526020600482015260166024820152751bdb9b1e481dda1a5d195b1a5cdd08185b1b1bddd95960521b6044820152606401610a67565b610206543360009081526102046020526040902054611c29908390614a25565b1115611c705760405162461bcd60e51b81526020600482015260166024820152754f7574206f662077686974656c6973742071756f746160501b6044820152606401610a67565b336000908152610204602052604081208054839290611c90908490614a25565b90915550611d3d9050565b61020a543360009081526102096020526040902054611cbb908390614a25565b1115611d095760405162461bcd60e51b815260206004820152601860248201527f4f7574206f66207075626c69632073656c6c2071756f746100000000000000006044820152606401610a67565b336000908152610209602052604081208054839290611d29908490614a25565b90915550611d3b905061020733613050565b505b60005b81811015611db557611d55336101f554613065565b6101f55460408051338152602081019290925280517f0f6798a560793a54c3bcfe86a93cde1e73087d944c0ea20544137d41213968859281900390910190a1611da36101f580546001019055565b80611dad81614961565b915050611d40565b506000816101f754611dc79190614a3d565b9050611de9336101f8546101f6546001600160a01b03908116929116846131b3565b60405182815233907f53dd95d829e31e93d4b97ced80cdb8c1d859de42fc3b07850e70e7f71ceaab359060200160405180910390a25050565b600080516020614d6c833981519152611e3b8133612ae1565b61015f5460ff16611e5e5760405162461bcd60e51b8152600401610a67906148cc565b8151611e729061020b906020850190614279565b507fa773411019f3dee5411958c0beb4c6c0d8e788b1f76abd88d4389a935b177ecd82604051611618919061439d565b600080516020614d6c833981519152611ebb8133612ae1565b61015f5460ff16611ede5760405162461bcd60e51b8152600401610a67906148cc565b6001600160a01b038216611f345760405162461bcd60e51b815260206004820152601e60248201527f5468652061646472657373206f662072656365697665206973206e756c6c00006044820152606401610a67565b506101f880546001600160a01b0319166001600160a01b0392909216919091179055565b600081815260cb60205260408120546001600160a01b03168061095a5760405162461bcd60e51b815260206004820152602960248201527f4552433732313a206f776e657220717565727920666f72206e6f6e657869737460448201526832b73a103a37b5b2b760b91b6064820152608401610a67565b6000611fdc610202612e23565b82106120385760405162461bcd60e51b815260206004820152602560248201527f446566696e614e46544d61726b65743a3a20696e646578206f7574206f6620626044820152646f756e647360d81b6064820152608401610a67565b61095a61020283612e2d565b61015f5460ff16156120685760405162461bcd60e51b8152600401610a6790614a86565b3332146120ab5760405162461bcd60e51b8152602060048201526011602482015270426c696e64626f783a206e6f7420656f6160781b6044820152606401610a67565b6120b433610bfb565b6120d05760405162461bcd60e51b8152600401610a6790614ab0565b61020d546001600160a01b0316631da3f15982336040516001600160e01b031960e085901b16815260048101929092526001600160a01b03166024820152604401600060405180830381600087803b15801561212b57600080fd5b505af115801561213f573d6000803e3d6000fd5b505061020d5461215b92506001600160a01b0316905082610a8c565b604051339082907f25d3ff687259f25e24ccfddc0b2a50e75350f0d89910eb7d8f9772ba673f352990600090a350565b60006001600160a01b0382166121f65760405162461bcd60e51b815260206004820152602a60248201527f4552433732313a2062616c616e636520717565727920666f7220746865207a65604482015269726f206164647265737360b01b6064820152608401610a67565b506001600160a01b0316600090815260cc602052604090205490565b600080516020614d6c83398151915261222b8133612ae1565b61015f5460ff1661224e5760405162461bcd60e51b8152600401610a67906148cc565b5061020655565b60006122618133612ae1565b61226c600083610c28565b610d5e60003361285a565b600080516020614d6c8339815191526122908133612ae1565b61015f5460ff166122b35760405162461bcd60e51b8152600401610a67906148cc565b600082116122fb5760405162461bcd60e51b8152602060048201526015602482015274050726963652073686f756c64206e6f74206265203605c1b6044820152606401610a67565b506101f755565b6000600080516020614d6c83398151915261231d8133612ae1565b61015f5460ff166123405760405162461bcd60e51b8152600401610a67906148cc565b8261237f5760405162461bcd60e51b815260206004820152600f60248201526e0546865206c656e677468206973203608c1b6044820152606401610a67565b60005b8381101561240d57600085858381811061239e5761239e614a0f565b90506020020160208101906123b391906146e4565b6001600160a01b031614156123c757600080fd5b6123fa8585838181106123dc576123dc614a0f565b90506020020160208101906123f191906146e4565b61020290613050565b508061240581614961565b915050612382565b506001949350505050565b600061095a6102028361302e565b61243e600080516020614d4c833981519152336124c2565b61249b5760405162461bcd60e51b815260206004820152602860248201527f426c696e64426f783a206d75737420686176652070617573657220726f6c6520604482015267746f20706175736560c01b6064820152608401610a67565b610eaf61320d565b60008281526097602052604081206124bb9083612e2d565b9392505050565b60009182526065602090815260408084206001600160a01b0393909316845291905290205460ff1690565b606060ca805461096f90614897565b610d5e338383613267565b6125113383612b45565b61252d5760405162461bcd60e51b8152600401610a67906148fa565b61253984848484613336565b50505050565b6000600080516020614d6c83398151915261255a8133612ae1565b61015f5460ff1661257d5760405162461bcd60e51b8152600401610a67906148cc565b600061258a610202612e23565b905083811015612598578093505b60005b84811015610e115760006125b161020282612e2d565b6001600160a01b0381166000908152610204602052604081205590506125d961020282612e39565b505080806125e690614961565b91505061259b565b600081815260cb60205260409020546060906001600160a01b031661266d5760405162461bcd60e51b815260206004820152602f60248201527f4552433732314d657461646174613a2055524920717565727920666f72206e6f60448201526e3732bc34b9ba32b73a103a37b5b2b760891b6064820152608401610a67565b6000612677613369565b9050600081511161269757604051806020016040528060008152506124bb565b806126a184613379565b6040516020016126b2929190614afa565b6040516020818303038152906040529392505050565b600081815260976020526040812061095a90612e23565b61020d546001600160a01b0316336001600160a01b0316146127625760405162461bcd60e51b815260206004820152603660248201527f426c696e64426f783a206f6e6c792073656c65637465642067656e657261746f6044820152751c8818d85b8818d85b1b081d1a1a5cc81b595d1a1bd960521b6064820152608401610a67565b610b9d838383613477565b600080516020614d6c8339815191526127868133612ae1565b61015f5460ff166127a95760405162461bcd60e51b8152600401610a67906148cc565b6001600160a01b03821661280b5760405162461bcd60e51b8152602060048201526024808201527f5468652061646472657373206f66204945524337323120746f6b656e206973206044820152631b9d5b1b60e21b6064820152608401610a67565b61020c80546001600160a01b0319166001600160a01b0384169081179091556040519081527ff1e0c646b12b61a4571b5e8d9a75d9a86493f73bf470b22a741a39bc1558f68d90602001611618565b6000828152606560205260409020600101546128768133612ae1565b610b9d8383612e01565b600061288c8133612ae1565b6001600160a01b03831661289f57600080fd5b6001600160a01b0384166128b257600080fd5b6040516370a0823160e01b81523060048201526000906001600160a01b038616906370a082319060240160206040518083038186803b1580156128f457600080fd5b505afa158015612908573d6000803e3d6000fd5b505050506040513d601f19601f8201168201806040525081019061292c9190614b29565b90508281101561293a578092505b60005b83811015612a4657604051632f745c5960e01b8152306004820152600060248201819052906001600160a01b03881690632f745c599060440160206040518083038186803b15801561298e57600080fd5b505afa1580156129a2573d6000803e3d6000fd5b505050506040513d601f19601f820116820180604052508101906129c69190614b29565b604051632142170760e11b81523060048201526001600160a01b03888116602483015260448201839052919250908816906342842e0e90606401600060405180830381600087803b158015612a1a57600080fd5b505af1158015612a2e573d6000803e3d6000fd5b50505050508080612a3e90614961565b91505061293d565b505050505050565b60006001600160e01b0319821663780e9d6360e01b148061095a575061095a826136bc565b600081815260cd6020526040902080546001600160a01b0319166001600160a01b0384169081179091558190612aa882611f58565b6001600160a01b03167f8c5be1e5ebec7d5bd14f71427d1e84f3dd0314c0f7b2291e5b200ac8c7c3b92560405160405180910390a45050565b612aeb82826124c2565b610d5e57612b03816001600160a01b031660146136fc565b612b0e8360206136fc565b604051602001612b1f929190614b42565b60408051601f198184030181529082905262461bcd60e51b8252610a679160040161439d565b600081815260cb60205260408120546001600160a01b0316612bbe5760405162461bcd60e51b815260206004820152602c60248201527f4552433732313a206f70657261746f7220717565727920666f72206e6f6e657860448201526b34b9ba32b73a103a37b5b2b760a11b6064820152608401610a67565b6000612bc983611f58565b9050806001600160a01b0316846001600160a01b03161480612c045750836001600160a01b0316612bf9846109f2565b6001600160a01b0316145b80610bab57506001600160a01b03808216600090815260ce602090815260408083209388168352929052205460ff16610bab565b826001600160a01b0316612c4b82611f58565b6001600160a01b031614612caf5760405162461bcd60e51b815260206004820152602560248201527f4552433732313a207472616e736665722066726f6d20696e636f72726563742060448201526437bbb732b960d91b6064820152608401610a67565b6001600160a01b038216612d115760405162461bcd60e51b8152602060048201526024808201527f4552433732313a207472616e7366657220746f20746865207a65726f206164646044820152637265737360e01b6064820152608401610a67565b612d1c838383613898565b612d27600082612a73565b6001600160a01b038316600090815260cc60205260408120805460019290612d50908490614bb7565b90915550506001600160a01b038216600090815260cc60205260408120805460019290612d7e908490614a25565b9091555050600081815260cb602052604080822080546001600160a01b0319166001600160a01b0386811691821790925591518493918716917fddf252ad1be2c89b69c2b068fc378daa952ba7f163c4a11628f55a4df523b3ef91a4505050565b612de982826138a3565b6000828152609760205260409020610b9d9082613050565b612e0b8282613929565b6000828152609760205260409020610b9d9082612e39565b600061095a825490565b60006124bb8383613990565b60006124bb836001600160a01b0384166139ba565b61015f5460ff16612e715760405162461bcd60e51b8152600401610a67906148cc565b61015f805460ff191690557f5db9ee0a495bf2e6ff9c91a7834c1ba4fdd244a5e8aa4e537bd38aeae4b073aa335b6040516001600160a01b03909116815260200160405180910390a1565b600054610100900460ff16610eaf5760405162461bcd60e51b8152600401610a6790614bce565b600054610100900460ff16612f0a5760405162461bcd60e51b8152600401610a6790614bce565b8151612f1d9060c9906020850190614279565b508051610b9d9060ca906020840190614279565b600054610100900460ff16612f585760405162461bcd60e51b8152600401610a6790614bce565b61015f805460ff19169055565b610d5e8282612ddf565b60006124bb8383613aad565b6000612f8682611f58565b9050612f9481600084613898565b612f9f600083612a73565b6001600160a01b038116600090815260cc60205260408120805460019290612fc8908490614bb7565b9091555050600082815260cb602052604080822080546001600160a01b0319169055518391906001600160a01b038416907fddf252ad1be2c89b69c2b068fc378daa952ba7f163c4a11628f55a4df523b3ef908390a45050565b60006124bb83836139ba565b6001600160a01b038116600090815260018301602052604081205415156124bb565b60006124bb836001600160a01b038416613aad565b6001600160a01b0382166130bb5760405162461bcd60e51b815260206004820181905260248201527f4552433732313a206d696e7420746f20746865207a65726f20616464726573736044820152606401610a67565b600081815260cb60205260409020546001600160a01b0316156131205760405162461bcd60e51b815260206004820152601c60248201527f4552433732313a20746f6b656e20616c7265616479206d696e746564000000006044820152606401610a67565b61312c60008383613898565b6001600160a01b038216600090815260cc60205260408120805460019290613155908490614a25565b9091555050600081815260cb602052604080822080546001600160a01b0319166001600160a01b03861690811790915590518392907fddf252ad1be2c89b69c2b068fc378daa952ba7f163c4a11628f55a4df523b3ef908290a45050565b604080516001600160a01b0385811660248301528416604482015260648082018490528251808303909101815260849091019091526020810180516001600160e01b03166323b872dd60e01b179052612539908590613afc565b61015f5460ff16156132315760405162461bcd60e51b8152600401610a6790614a86565b61015f805460ff191660011790557f62e78cea01bee320cd4e420270b5ea74000d11b0c9f74754ebdbfc544b05a258612e9f3390565b816001600160a01b0316836001600160a01b031614156132c95760405162461bcd60e51b815260206004820152601960248201527f4552433732313a20617070726f766520746f2063616c6c6572000000000000006044820152606401610a67565b6001600160a01b03838116600081815260ce6020908152604080832094871680845294825291829020805460ff191686151590811790915591519182527f17307eab39ab6107e8899845ad3d59bd9653f200f220920489ca2b5937696c31910160405180910390a3505050565b613341848484612c38565b61334d84848484613bce565b6125395760405162461bcd60e51b8152600401610a6790614c19565b606061020b805461096f90614897565b60608161339d5750506040805180820190915260018152600360fc1b602082015290565b8160005b81156133c757806133b181614961565b91506133c09050600a83614a72565b91506133a1565b60008167ffffffffffffffff8111156133e2576133e261441a565b6040519080825280601f01601f19166020018201604052801561340c576020820181803683370190505b5090505b8415610bab57613421600183614bb7565b915061342e600a86614c6b565b613439906030614a25565b60f81b81838151811061344e5761344e614a0f565b60200101906001600160f81b031916908160001a905350613470600a86614a72565b9450613410565b6134818284612b45565b61349d5760405162461bcd60e51b8152600401610a6790614ab0565b6134a6836113ef565b61020f546003905b6134c56134c085858561020154613cd8565b613d54565b6102015460008281526101fa6020526040812054929350916134ec9064e8d4a51000614a3d565b6134f69190614a72565b60008381526101fb602090815260408083205461021090925290912054919250906135219083614a25565b1061352c5750613543565b613537600184614bb7565b925050600082116134ae575b61020f5481141561355657613556614c7f565b60008181526101fa60205260408120805460019290613576908490614bb7565b92505081905550600161020160008282546135919190614bb7565b909155505061020c5460405163140e25ad60e31b8152600481018390526000916001600160a01b03169063a0712d6890602401602060405180830381600087803b1580156135de57600080fd5b505af11580156135f2573d6000803e3d6000fd5b505050506040513d601f19601f820116820180604052508101906136169190614b29565b61020c54604051632142170760e11b81523060048201526001600160a01b038881166024830152604482018490529293509116906342842e0e90606401600060405180830381600087803b15801561366d57600080fd5b505af1158015613681573d6000803e3d6000fd5b505050508082877f11b31b436792d2e77105df5b9a822dcd56f23ff877fd17c7e4eb3f0dc9b18b8660405160405180910390a4505050505050565b60006001600160e01b031982166380ac58cd60e01b14806136ed57506001600160e01b03198216635b5e139f60e01b145b8061095a575061095a82613deb565b6060600061370b836002614a3d565b613716906002614a25565b67ffffffffffffffff81111561372e5761372e61441a565b6040519080825280601f01601f191660200182016040528015613758576020820181803683370190505b509050600360fc1b8160008151811061377357613773614a0f565b60200101906001600160f81b031916908160001a905350600f60fb1b816001815181106137a2576137a2614a0f565b60200101906001600160f81b031916908160001a90535060006137c6846002614a3d565b6137d1906001614a25565b90505b6001811115613849576f181899199a1a9b1b9c1cb0b131b232b360811b85600f166010811061380557613805614a0f565b1a60f81b82828151811061381b5761381b614a0f565b60200101906001600160f81b031916908160001a90535060049490941c9361384281614c95565b90506137d4565b5083156124bb5760405162461bcd60e51b815260206004820181905260248201527f537472696e67733a20686578206c656e67746820696e73756666696369656e746044820152606401610a67565b610b9d838383613e10565b6138ad82826124c2565b610d5e5760008281526065602090815260408083206001600160a01b03851684529091529020805460ff191660011790556138e53390565b6001600160a01b0316816001600160a01b0316837f2f8788117e7eff1d82e926ec794901d17c78024a50270940304540a733656f0d60405160405180910390a45050565b61393382826124c2565b15610d5e5760008281526065602090815260408083206001600160a01b0385168085529252808320805460ff1916905551339285917ff6391f5c32d9c69d2a47ea670b442974b53935d1edc7fd64eb21e047a839171b9190a45050565b60008260000182815481106139a7576139a7614a0f565b9060005260206000200154905092915050565b60008181526001830160205260408120548015613aa35760006139de600183614bb7565b85549091506000906139f290600190614bb7565b9050818114613a57576000866000018281548110613a1257613a12614a0f565b9060005260206000200154905080876000018481548110613a3557613a35614a0f565b6000918252602080832090910192909255918252600188019052604090208390555b8554869080613a6857613a68614cac565b60019003818190600052602060002001600090559055856001016000868152602001908152602001600020600090556001935050505061095a565b600091505061095a565b6000818152600183016020526040812054613af45750815460018181018455600084815260208082209093018490558454848252828601909352604090209190915561095a565b50600061095a565b6000613b51826040518060400160405280602081526020017f5361666545524332303a206c6f772d6c6576656c2063616c6c206661696c6564815250856001600160a01b0316613e839092919063ffffffff16565b805190915015610b9d5780806020019051810190613b6f9190614cc2565b610b9d5760405162461bcd60e51b815260206004820152602a60248201527f5361666545524332303a204552433230206f7065726174696f6e20646964206e6044820152691bdd081cdd58d8d9595960b21b6064820152608401610a67565b60006001600160a01b0384163b15613cd057604051630a85bd0160e11b81526001600160a01b0385169063150b7a0290613c12903390899088908890600401614cdf565b602060405180830381600087803b158015613c2c57600080fd5b505af1925050508015613c5c575060408051601f3d908101601f19168201909252613c5991810190614d12565b60015b613cb6573d808015613c8a576040519150601f19603f3d011682016040523d82523d6000602084013e613c8f565b606091505b508051613cae5760405162461bcd60e51b8152600401610a6790614c19565b805181602001fd5b6001600160e01b031916630a85bd0160e11b149050610bab565b506001610bab565b6040805142602080830191909152448284015260608083018590526bffffffffffffffffffffffff1988821b811660808501526094840188905260b484018790523390911b1660d4830152825180830360c801815260e890920190925280519101206000908190613d4a908490614c6b565b9695505050505050565b600080613d626101fc612e23565b90506000805b82811015613de357613d7c6101fc82612e2d565b60008181526101fa6020526040902054909250613d9857613dd1565b60008281526101fa6020526040902054851015613db457613de3565b60008281526101fa6020526040902054613dce9086614bb7565b94505b80613ddb81614961565b915050613d68565b509392505050565b60006001600160e01b03198216635a05180f60e01b148061095a575061095a82613e92565b613e1b838383613ec7565b61015f5460ff1615610b9d5760405162461bcd60e51b815260206004820152602b60248201527f4552433732315061757361626c653a20746f6b656e207472616e73666572207760448201526a1a1a5b19481c185d5cd95960aa1b6064820152608401610a67565b6060610bab8484600085613f7f565b60006001600160e01b03198216637965db0b60e01b148061095a57506301ffc9a760e01b6001600160e01b031983161461095a565b6001600160a01b038316613f2257613f1d8160fd8054600083815260fe60205260408120829055600182018355919091527f9346ac6dd7de6b96975fec380d4d994c4c12e6a8897544f22915316cc6cca2800155565b613f45565b816001600160a01b0316836001600160a01b031614613f4557613f4583826140b0565b6001600160a01b038216613f5c57610b9d8161414d565b826001600160a01b0316826001600160a01b031614610b9d57610b9d82826141fc565b606082471015613fe05760405162461bcd60e51b815260206004820152602660248201527f416464726573733a20696e73756666696369656e742062616c616e636520666f6044820152651c8818d85b1b60d21b6064820152608401610a67565b6001600160a01b0385163b6140375760405162461bcd60e51b815260206004820152601d60248201527f416464726573733a2063616c6c20746f206e6f6e2d636f6e74726163740000006044820152606401610a67565b600080866001600160a01b031685876040516140539190614d2f565b60006040518083038185875af1925050503d8060008114614090576040519150601f19603f3d011682016040523d82523d6000602084013e614095565b606091505b50915091506140a5828286614240565b979650505050505050565b600060016140bd8461218b565b6140c79190614bb7565b600083815260fc602052604090205490915080821461411a576001600160a01b038416600090815260fb60209081526040808320858452825280832054848452818420819055835260fc90915290208190555b50600091825260fc602090815260408084208490556001600160a01b03909416835260fb81528383209183525290812055565b60fd5460009061415f90600190614bb7565b600083815260fe602052604081205460fd805493945090928490811061418757614187614a0f565b906000526020600020015490508060fd83815481106141a8576141a8614a0f565b600091825260208083209091019290925582815260fe909152604080822084905585825281205560fd8054806141e0576141e0614cac565b6001900381819060005260206000200160009055905550505050565b60006142078361218b565b6001600160a01b03909316600090815260fb60209081526040808320868452825280832085905593825260fc9052919091209190915550565b6060831561424f5750816124bb565b82511561425f5782518084602001fd5b8160405162461bcd60e51b8152600401610a67919061439d565b82805461428590614897565b90600052602060002090601f0160209004810192826142a757600085556142ed565b82601f106142c057805160ff19168380011785556142ed565b828001600101855582156142ed579182015b828111156142ed5782518255916020019190600101906142d2565b506142f99291506142fd565b5090565b5b808211156142f957600081556001016142fe565b6001600160e01b03198116811461146657600080fd5b60006020828403121561433a57600080fd5b81356124bb81614312565b60005b83811015614360578181015183820152602001614348565b838111156125395750506000910152565b60008151808452614389816020860160208601614345565b601f01601f19169290920160200192915050565b6020815260006124bb6020830184614371565b6000602082840312156143c257600080fd5b5035919050565b6001600160a01b038116811461146657600080fd5b80356143e9816143c9565b919050565b6000806040838503121561440157600080fd5b823561440c816143c9565b946020939093013593505050565b634e487b7160e01b600052604160045260246000fd5b600067ffffffffffffffff8084111561444b5761444b61441a565b604051601f8501601f19908116603f011681019082821181831017156144735761447361441a565b8160405280935085815286868601111561448c57600080fd5b858560208301376000602087830101525050509392505050565b600080600080608085870312156144bc57600080fd5b84356144c7816143c9565b935060208501356144d7816143c9565b925060408501359150606085013567ffffffffffffffff8111156144fa57600080fd5b8501601f8101871361450b57600080fd5b61451a87823560208401614430565b91505092959194509250565b60008060006060848603121561453b57600080fd5b8335614546816143c9565b92506020840135614556816143c9565b929592945050506040919091013590565b6000806040838503121561457a57600080fd5b82359150602083013561458c816143c9565b809150509250929050565b600082601f8301126145a857600080fd5b6124bb83833560208501614430565b60008083601f8401126145c957600080fd5b50813567ffffffffffffffff8111156145e157600080fd5b6020830191508360208260051b85010111156145fc57600080fd5b9250929050565b6000806000806000806000806000806101008b8d03121561462357600080fd5b61462c8b6143de565b995060208b013567ffffffffffffffff8082111561464957600080fd5b6146558e838f01614597565b9a5061466360408e016143de565b995060608d0135985061467860808e016143de565b975060a08d013591508082111561468e57600080fd5b61469a8e838f016145b7565b909750955060c08d01359150808211156146b357600080fd5b506146c08d828e016145b7565b90945092506146d3905060e08c016143de565b90509295989b9194979a5092959850565b6000602082840312156146f657600080fd5b81356124bb816143c9565b6000806000806040858703121561471757600080fd5b843567ffffffffffffffff8082111561472f57600080fd5b61473b888389016145b7565b9096509450602087013591508082111561475457600080fd5b50614761878288016145b7565b95989497509550505050565b60006020828403121561477f57600080fd5b813567ffffffffffffffff81111561479657600080fd5b610bab84828501614597565b600080602083850312156147b557600080fd5b823567ffffffffffffffff8111156147cc57600080fd5b6147d8858286016145b7565b90969095509350505050565b600080604083850312156147f757600080fd5b50508035926020909101359150565b801515811461146657600080fd5b6000806040838503121561482757600080fd5b8235614832816143c9565b9150602083013561458c81614806565b60008060006060848603121561485757600080fd5b833592506020840135614556816143c9565b6000806040838503121561487c57600080fd5b8235614887816143c9565b9150602083013561458c816143c9565b600181811c908216806148ab57607f821691505b60208210811415610e1857634e487b7160e01b600052602260045260246000fd5b60208082526014908201527314185d5cd8589b194e881b9bdd081c185d5cd95960621b604082015260600190565b60208082526031908201527f4552433732313a207472616e736665722063616c6c6572206973206e6f74206f6040820152701ddb995c881b9bdc88185c1c1c9bdd9959607a1b606082015260800190565b634e487b7160e01b600052601160045260246000fd5b60006000198214156149755761497561494b565b5060010190565b60208082526022908201527f426c696e64426f783a204e6f2063617264496473207761732070726f76696465604082015261321760f11b606082015260800190565b60208082526031908201527f426c696e64426f783a204e756d626572206f66206361726420696473206e6f74604082015270206d6174636820636172642071756f746160781b606082015260800190565b634e487b7160e01b600052603260045260246000fd5b60008219821115614a3857614a3861494b565b500190565b6000816000190483118215151615614a5757614a5761494b565b500290565b634e487b7160e01b600052601260045260246000fd5b600082614a8157614a81614a5c565b500490565b60208082526010908201526f14185d5cd8589b194e881c185d5cd95960821b604082015260600190565b6020808252602a908201527f426c696e64426f783a2063616c6c6572206973206e6f74206f776e6572206e6f6040820152691c88185c1c1c9bdd995960b21b606082015260800190565b60008351614b0c818460208801614345565b835190830190614b20818360208801614345565b01949350505050565b600060208284031215614b3b57600080fd5b5051919050565b7f416363657373436f6e74726f6c3a206163636f756e7420000000000000000000815260008351614b7a816017850160208801614345565b7001034b99036b4b9b9b4b733903937b6329607d1b6017918401918201528351614bab816028840160208801614345565b01602801949350505050565b600082821015614bc957614bc961494b565b500390565b6020808252602b908201527f496e697469616c697a61626c653a20636f6e7472616374206973206e6f74206960408201526a6e697469616c697a696e6760a81b606082015260800190565b60208082526032908201527f4552433732313a207472616e7366657220746f206e6f6e20455243373231526560408201527131b2b4bb32b91034b6b83632b6b2b73a32b960711b606082015260800190565b600082614c7a57614c7a614a5c565b500690565b634e487b7160e01b600052600160045260246000fd5b600081614ca457614ca461494b565b506000190190565b634e487b7160e01b600052603160045260246000fd5b600060208284031215614cd457600080fd5b81516124bb81614806565b6001600160a01b0385811682528416602082015260408101839052608060608201819052600090613d4a90830184614371565b600060208284031215614d2457600080fd5b81516124bb81614312565b60008251614d41818460208701614345565b919091019291505056fe65d7a28e3265b37a6474929f336521b332c1681b933f6cb9f3376673440d862aa49807205ce4d355092ef5a8a18f56e8913cf4a201fbe287825b095693c21775a26469706673582212208545d896bb1cc60a1d05d5bf1dc12e33aeeefe88983fc534fcfba0551f3b0c6664736f6c63430008090033",
  "devdoc": {
    "details": "{ERC721} token, including:  - ability for holders to burn (destroy) their tokens  - a minter role that allows for token minting (creation)  - a pauser role that allows to stop all token transfers  - token ID and URI auto-generation",
    "kind": "dev",
    "methods": {
      "approve(address,uint256)": {
        "details": "See {IERC721-approve}."
      },
      "balanceOf(address)": {
        "details": "See {IERC721-balanceOf}."
      },
      "burn(uint256)": {
        "details": "Burns `tokenId`. See {ERC721-_burn}. Requirements: - The caller must own `tokenId` or be an approved operator."
      },
      "constructor": {
        "details": "Grants `DEFAULT_ADMIN_ROLE` and `PAUSER_ROLE` to the account that deploys the contract."
      },
      "getApproved(uint256)": {
        "details": "See {IERC721-getApproved}."
      },
      "getRoleAdmin(bytes32)": {
        "details": "Returns the admin role that controls `role`. See {grantRole} and {revokeRole}. To change a role's admin, use {_setRoleAdmin}."
      },
      "getRoleMember(bytes32,uint256)": {
        "details": "Returns one of the accounts that have `role`. `index` must be a value between 0 and {getRoleMemberCount}, non-inclusive. Role bearers are not sorted in any particular way, and their ordering may change at any point. WARNING: When using {getRoleMember} and {getRoleMemberCount}, make sure you perform all queries on the same block. See the following https://forum.openzeppelin.com/t/iterating-over-elements-on-enumerableset-in-openzeppelin-contracts/2296[forum post] for more information."
      },
      "getRoleMemberCount(bytes32)": {
        "details": "Returns the number of accounts that have `role`. Can be used together with {getRoleMember} to enumerate all bearers of a role."
      },
      "grantRole(bytes32,address)": {
        "details": "Grants `role` to `account`. If `account` had not been already granted `role`, emits a {RoleGranted} event. Requirements: - the caller must have ``role``'s admin role."
      },
      "hasRole(bytes32,address)": {
        "details": "Returns `true` if `account` has been granted `role`."
      },
      "isApprovedForAll(address,address)": {
        "details": "See {IERC721-isApprovedForAll}."
      },
      "name()": {
        "details": "See {IERC721Metadata-name}."
      },
      "onERC721Received(address,address,uint256,bytes)": {
        "details": "See {IERC721Receiver-onERC721Received}. Always returns `IERC721Receiver.onERC721Received.selector`."
      },
      "ownerOf(uint256)": {
        "details": "See {IERC721-ownerOf}."
      },
      "paused()": {
        "details": "Returns true if the contract is paused, and false otherwise."
      },
      "renounceRole(bytes32,address)": {
        "details": "Revokes `role` from the calling account. Roles are often managed via {grantRole} and {revokeRole}: this function's purpose is to provide a mechanism for accounts to lose their privileges if they are compromised (such as when a trusted device is misplaced). If the calling account had been revoked `role`, emits a {RoleRevoked} event. Requirements: - the caller must be `account`."
      },
      "revokeRole(bytes32,address)": {
        "details": "Revokes `role` from `account`. If `account` had been granted `role`, emits a {RoleRevoked} event. Requirements: - the caller must have ``role``'s admin role."
      },
      "safeTransferFrom(address,address,uint256)": {
        "details": "See {IERC721-safeTransferFrom}."
      },
      "safeTransferFrom(address,address,uint256,bytes)": {
        "details": "See {IERC721-safeTransferFrom}."
      },
      "setApprovalForAll(address,bool)": {
        "details": "See {IERC721-setApprovalForAll}."
      },
      "symbol()": {
        "details": "See {IERC721Metadata-symbol}."
      },
      "tokenByIndex(uint256)": {
        "details": "See {IERC721Enumerable-tokenByIndex}."
      },
      "tokenOfOwnerByIndex(address,uint256)": {
        "details": "See {IERC721Enumerable-tokenOfOwnerByIndex}."
      },
      "tokenURI(uint256)": {
        "details": "See {IERC721Metadata-tokenURI}."
      },
      "totalSupply()": {
        "details": "See {IERC721Enumerable-totalSupply}."
      },
      "transferFrom(address,address,uint256)": {
        "details": "See {IERC721-transferFrom}."
      }
    },
    "version": 1
  },
  "userdoc": {
    "kind": "user",
    "methods": {},
    "version": 1
  },
  "storageLayout": {
    "storage": [
      {
        "astId": 578,
        "contract": "contracts/DefinaHeroBoxV2.sol:DefinaHeroBoxV2",
        "label": "_initialized",
        "offset": 0,
        "slot": "0",
        "type": "t_bool"
      },
      {
        "astId": 581,
        "contract": "contracts/DefinaHeroBoxV2.sol:DefinaHeroBoxV2",
        "label": "_initializing",
        "offset": 1,
        "slot": "0",
        "type": "t_bool"
      },
      {
        "astId": 2940,
        "contract": "contracts/DefinaHeroBoxV2.sol:DefinaHeroBoxV2",
        "label": "__gap",
        "offset": 0,
        "slot": "1",
        "type": "t_array(t_uint256)50_storage"
      },
      {
        "astId": 3261,
        "contract": "contracts/DefinaHeroBoxV2.sol:DefinaHeroBoxV2",
        "label": "__gap",
        "offset": 0,
        "slot": "51",
        "type": "t_array(t_uint256)50_storage"
      },
      {
        "astId": 184,
        "contract": "contracts/DefinaHeroBoxV2.sol:DefinaHeroBoxV2",
        "label": "_roles",
        "offset": 0,
        "slot": "101",
        "type": "t_mapping(t_bytes32,t_struct(RoleData)179_storage)"
      },
      {
        "astId": 472,
        "contract": "contracts/DefinaHeroBoxV2.sol:DefinaHeroBoxV2",
        "label": "__gap",
        "offset": 0,
        "slot": "102",
        "type": "t_array(t_uint256)49_storage"
      },
      {
        "astId": 33,
        "contract": "contracts/DefinaHeroBoxV2.sol:DefinaHeroBoxV2",
        "label": "_roleMembers",
        "offset": 0,
        "slot": "151",
        "type": "t_mapping(t_bytes32,t_struct(AddressSet)4066_storage)"
      },
      {
        "astId": 143,
        "contract": "contracts/DefinaHeroBoxV2.sol:DefinaHeroBoxV2",
        "label": "__gap",
        "offset": 0,
        "slot": "152",
        "type": "t_array(t_uint256)49_storage"
      },
      {
        "astId": 1087,
        "contract": "contracts/DefinaHeroBoxV2.sol:DefinaHeroBoxV2",
        "label": "_name",
        "offset": 0,
        "slot": "201",
        "type": "t_string_storage"
      },
      {
        "astId": 1089,
        "contract": "contracts/DefinaHeroBoxV2.sol:DefinaHeroBoxV2",
        "label": "_symbol",
        "offset": 0,
        "slot": "202",
        "type": "t_string_storage"
      },
      {
        "astId": 1093,
        "contract": "contracts/DefinaHeroBoxV2.sol:DefinaHeroBoxV2",
        "label": "_owners",
        "offset": 0,
        "slot": "203",
        "type": "t_mapping(t_uint256,t_address)"
      },
      {
        "astId": 1097,
        "contract": "contracts/DefinaHeroBoxV2.sol:DefinaHeroBoxV2",
        "label": "_balances",
        "offset": 0,
        "slot": "204",
        "type": "t_mapping(t_address,t_uint256)"
      },
      {
        "astId": 1101,
        "contract": "contracts/DefinaHeroBoxV2.sol:DefinaHeroBoxV2",
        "label": "_tokenApprovals",
        "offset": 0,
        "slot": "205",
        "type": "t_mapping(t_uint256,t_address)"
      },
      {
        "astId": 1107,
        "contract": "contracts/DefinaHeroBoxV2.sol:DefinaHeroBoxV2",
        "label": "_operatorApprovals",
        "offset": 0,
        "slot": "206",
        "type": "t_mapping(t_address,t_mapping(t_address,t_bool))"
      },
      {
        "astId": 1948,
        "contract": "contracts/DefinaHeroBoxV2.sol:DefinaHeroBoxV2",
        "label": "__gap",
        "offset": 0,
        "slot": "207",
        "type": "t_array(t_uint256)44_storage"
      },
      {
        "astId": 2163,
        "contract": "contracts/DefinaHeroBoxV2.sol:DefinaHeroBoxV2",
        "label": "_ownedTokens",
        "offset": 0,
        "slot": "251",
        "type": "t_mapping(t_address,t_mapping(t_uint256,t_uint256))"
      },
      {
        "astId": 2167,
        "contract": "contracts/DefinaHeroBoxV2.sol:DefinaHeroBoxV2",
        "label": "_ownedTokensIndex",
        "offset": 0,
        "slot": "252",
        "type": "t_mapping(t_uint256,t_uint256)"
      },
      {
        "astId": 2170,
        "contract": "contracts/DefinaHeroBoxV2.sol:DefinaHeroBoxV2",
        "label": "_allTokens",
        "offset": 0,
        "slot": "253",
        "type": "t_array(t_uint256)dyn_storage"
      },
      {
        "astId": 2174,
        "contract": "contracts/DefinaHeroBoxV2.sol:DefinaHeroBoxV2",
        "label": "_allTokensIndex",
        "offset": 0,
        "slot": "254",
        "type": "t_mapping(t_uint256,t_uint256)"
      },
      {
        "astId": 2490,
        "contract": "contracts/DefinaHeroBoxV2.sol:DefinaHeroBoxV2",
        "label": "__gap",
        "offset": 0,
        "slot": "255",
        "type": "t_array(t_uint256)46_storage"
      },
      {
        "astId": 2132,
        "contract": "contracts/DefinaHeroBoxV2.sol:DefinaHeroBoxV2",
        "label": "__gap",
        "offset": 0,
        "slot": "301",
        "type": "t_array(t_uint256)50_storage"
      },
      {
        "astId": 666,
        "contract": "contracts/DefinaHeroBoxV2.sol:DefinaHeroBoxV2",
        "label": "_paused",
        "offset": 0,
        "slot": "351",
        "type": "t_bool"
      },
      {
        "astId": 755,
        "contract": "contracts/DefinaHeroBoxV2.sol:DefinaHeroBoxV2",
        "label": "__gap",
        "offset": 0,
        "slot": "352",
        "type": "t_array(t_uint256)49_storage"
      },
      {
        "astId": 2550,
        "contract": "contracts/DefinaHeroBoxV2.sol:DefinaHeroBoxV2",
        "label": "__gap",
        "offset": 0,
        "slot": "401",
        "type": "t_array(t_uint256)50_storage"
      },
      {
        "astId": 2655,
        "contract": "contracts/DefinaHeroBoxV2.sol:DefinaHeroBoxV2",
        "label": "__gap",
        "offset": 0,
        "slot": "451",
        "type": "t_array(t_uint256)50_storage"
      },
      {
        "astId": 4482,
        "contract": "contracts/DefinaHeroBoxV2.sol:DefinaHeroBoxV2",
        "label": "_tokenIdTracker",
        "offset": 0,
        "slot": "501",
        "type": "t_struct(Counter)2947_storage"
      },
      {
        "astId": 4485,
        "contract": "contracts/DefinaHeroBoxV2.sol:DefinaHeroBoxV2",
        "label": "currToken",
        "offset": 0,
        "slot": "502",
        "type": "t_contract(IERC20Upgradeable)834"
      },
      {
        "astId": 4487,
        "contract": "contracts/DefinaHeroBoxV2.sol:DefinaHeroBoxV2",
        "label": "nftPrice",
        "offset": 0,
        "slot": "503",
        "type": "t_uint256"
      },
      {
        "astId": 4489,
        "contract": "contracts/DefinaHeroBoxV2.sol:DefinaHeroBoxV2",
        "label": "tokenReceiveAddress",
        "offset": 0,
        "slot": "504",
        "type": "t_address"
      },
      {
        "astId": 4493,
        "contract": "contracts/DefinaHeroBoxV2.sol:DefinaHeroBoxV2",
        "label": "cardsQuota",
        "offset": 0,
        "slot": "505",
        "type": "t_mapping(t_uint256,t_uint256)"
      },
      {
        "astId": 4497,
        "contract": "contracts/DefinaHeroBoxV2.sol:DefinaHeroBoxV2",
        "label": "cardsRemaining",
        "offset": 0,
        "slot": "506",
        "type": "t_mapping(t_uint256,t_uint256)"
      },
      {
        "astId": 4501,
        "contract": "contracts/DefinaHeroBoxV2.sol:DefinaHeroBoxV2",
        "label": "cardsRatio",
        "offset": 0,
        "slot": "507",
        "type": "t_mapping(t_uint256,t_uint256)"
      },
      {
        "astId": 4504,
        "contract": "contracts/DefinaHeroBoxV2.sol:DefinaHeroBoxV2",
        "label": "cardIds",
        "offset": 0,
        "slot": "508",
        "type": "t_struct(UintSet)4223_storage"
      },
      {
        "astId": 4508,
        "contract": "contracts/DefinaHeroBoxV2.sol:DefinaHeroBoxV2",
        "label": "nftIdtoCardId",
        "offset": 0,
        "slot": "510",
        "type": "t_mapping(t_uint256,t_uint256)"
      },
      {
        "astId": 4510,
        "contract": "contracts/DefinaHeroBoxV2.sol:DefinaHeroBoxV2",
        "label": "totalBlindBoxQuota",
        "offset": 0,
        "slot": "511",
        "type": "t_uint256"
      },
      {
        "astId": 4512,
        "contract": "contracts/DefinaHeroBoxV2.sol:DefinaHeroBoxV2",
        "label": "totalBlindBoxSold",
        "offset": 0,
        "slot": "512",
        "type": "t_uint256"
      },
      {
        "astId": 4514,
        "contract": "contracts/DefinaHeroBoxV2.sol:DefinaHeroBoxV2",
        "label": "totalBlindBoxRemaining",
        "offset": 0,
        "slot": "513",
        "type": "t_uint256"
      },
      {
        "astId": 4517,
        "contract": "contracts/DefinaHeroBoxV2.sol:DefinaHeroBoxV2",
        "label": "whiteList",
        "offset": 0,
        "slot": "514",
        "type": "t_struct(AddressSet)4066_storage"
      },
      {
        "astId": 4521,
        "contract": "contracts/DefinaHeroBoxV2.sol:DefinaHeroBoxV2",
        "label": "whitelistBuyingHistory",
        "offset": 0,
        "slot": "516",
        "type": "t_mapping(t_address,t_uint256)"
      },
      {
        "astId": 4523,
        "contract": "contracts/DefinaHeroBoxV2.sol:DefinaHeroBoxV2",
        "label": "whiteListOnly",
        "offset": 0,
        "slot": "517",
        "type": "t_bool"
      },
      {
        "astId": 4525,
        "contract": "contracts/DefinaHeroBoxV2.sol:DefinaHeroBoxV2",
        "label": "whiteListBuyableQuota",
        "offset": 0,
        "slot": "518",
        "type": "t_uint256"
      },
      {
        "astId": 4528,
        "contract": "contracts/DefinaHeroBoxV2.sol:DefinaHeroBoxV2",
        "label": "publicBuyerList",
        "offset": 0,
        "slot": "519",
        "type": "t_struct(AddressSet)4066_storage"
      },
      {
        "astId": 4532,
        "contract": "contracts/DefinaHeroBoxV2.sol:DefinaHeroBoxV2",
        "label": "publicBuyingHistory",
        "offset": 0,
        "slot": "521",
        "type": "t_mapping(t_address,t_uint256)"
      },
      {
        "astId": 4534,
        "contract": "contracts/DefinaHeroBoxV2.sol:DefinaHeroBoxV2",
        "label": "publicBuyableQuota",
        "offset": 0,
        "slot": "522",
        "type": "t_uint256"
      },
      {
        "astId": 4536,
        "contract": "contracts/DefinaHeroBoxV2.sol:DefinaHeroBoxV2",
        "label": "_baseTokenURI",
        "offset": 0,
        "slot": "523",
        "type": "t_string_storage"
      },
      {
        "astId": 4539,
        "contract": "contracts/DefinaHeroBoxV2.sol:DefinaHeroBoxV2",
        "label": "nftToken",
        "offset": 0,
        "slot": "524",
        "type": "t_contract(IDefinaCard)4384"
      },
      {
        "astId": 4542,
        "contract": "contracts/DefinaHeroBoxV2.sol:DefinaHeroBoxV2",
        "label": "randomGenerator",
        "offset": 0,
        "slot": "525",
        "type": "t_contract(IRandomGenerator)4392"
      },
      {
        "astId": 4545,
        "contract": "contracts/DefinaHeroBoxV2.sol:DefinaHeroBoxV2",
        "label": "allCandidateCards",
        "offset": 0,
        "slot": "526",
        "type": "t_array(t_uint256)dyn_storage"
      },
      {
        "astId": 4547,
        "contract": "contracts/DefinaHeroBoxV2.sol:DefinaHeroBoxV2",
        "label": "INVALID_CARD_ID",
        "offset": 0,
        "slot": "527",
        "type": "t_uint256"
      },
      {
        "astId": 4551,
        "contract": "contracts/DefinaHeroBoxV2.sol:DefinaHeroBoxV2",
        "label": "cardsRatioRange",
        "offset": 0,
        "slot": "528",
        "type": "t_mapping(t_uint256,t_uint256)"
      }
    ],
    "types": {
      "t_address": {
        "encoding": "inplace",
        "label": "address",
        "numberOfBytes": "20"
      },
      "t_array(t_bytes32)dyn_storage": {
        "base": "t_bytes32",
        "encoding": "dynamic_array",
        "label": "bytes32[]",
        "numberOfBytes": "32"
      },
      "t_array(t_uint256)44_storage": {
        "base": "t_uint256",
        "encoding": "inplace",
        "label": "uint256[44]",
        "numberOfBytes": "1408"
      },
      "t_array(t_uint256)46_storage": {
        "base": "t_uint256",
        "encoding": "inplace",
        "label": "uint256[46]",
        "numberOfBytes": "1472"
      },
      "t_array(t_uint256)49_storage": {
        "base": "t_uint256",
        "encoding": "inplace",
        "label": "uint256[49]",
        "numberOfBytes": "1568"
      },
      "t_array(t_uint256)50_storage": {
        "base": "t_uint256",
        "encoding": "inplace",
        "label": "uint256[50]",
        "numberOfBytes": "1600"
      },
      "t_array(t_uint256)dyn_storage": {
        "base": "t_uint256",
        "encoding": "dynamic_array",
        "label": "uint256[]",
        "numberOfBytes": "32"
      },
      "t_bool": {
        "encoding": "inplace",
        "label": "bool",
        "numberOfBytes": "1"
      },
      "t_bytes32": {
        "encoding": "inplace",
        "label": "bytes32",
        "numberOfBytes": "32"
      },
      "t_contract(IDefinaCard)4384": {
        "encoding": "inplace",
        "label": "contract IDefinaCard",
        "numberOfBytes": "20"
      },
      "t_contract(IERC20Upgradeable)834": {
        "encoding": "inplace",
        "label": "contract IERC20Upgradeable",
        "numberOfBytes": "20"
      },
      "t_contract(IRandomGenerator)4392": {
        "encoding": "inplace",
        "label": "contract IRandomGenerator",
        "numberOfBytes": "20"
      },
      "t_mapping(t_address,t_bool)": {
        "encoding": "mapping",
        "key": "t_address",
        "label": "mapping(address => bool)",
        "numberOfBytes": "32",
        "value": "t_bool"
      },
      "t_mapping(t_address,t_mapping(t_address,t_bool))": {
        "encoding": "mapping",
        "key": "t_address",
        "label": "mapping(address => mapping(address => bool))",
        "numberOfBytes": "32",
        "value": "t_mapping(t_address,t_bool)"
      },
      "t_mapping(t_address,t_mapping(t_uint256,t_uint256))": {
        "encoding": "mapping",
        "key": "t_address",
        "label": "mapping(address => mapping(uint256 => uint256))",
        "numberOfBytes": "32",
        "value": "t_mapping(t_uint256,t_uint256)"
      },
      "t_mapping(t_address,t_uint256)": {
        "encoding": "mapping",
        "key": "t_address",
        "label": "mapping(address => uint256)",
        "numberOfBytes": "32",
        "value": "t_uint256"
      },
      "t_mapping(t_bytes32,t_struct(AddressSet)4066_storage)": {
        "encoding": "mapping",
        "key": "t_bytes32",
        "label": "mapping(bytes32 => struct EnumerableSetUpgradeable.AddressSet)",
        "numberOfBytes": "32",
        "value": "t_struct(AddressSet)4066_storage"
      },
      "t_mapping(t_bytes32,t_struct(RoleData)179_storage)": {
        "encoding": "mapping",
        "key": "t_bytes32",
        "label": "mapping(bytes32 => struct AccessControlUpgradeable.RoleData)",
        "numberOfBytes": "32",
        "value": "t_struct(RoleData)179_storage"
      },
      "t_mapping(t_bytes32,t_uint256)": {
        "encoding": "mapping",
        "key": "t_bytes32",
        "label": "mapping(bytes32 => uint256)",
        "numberOfBytes": "32",
        "value": "t_uint256"
      },
      "t_mapping(t_uint256,t_address)": {
        "encoding": "mapping",
        "key": "t_uint256",
        "label": "mapping(uint256 => address)",
        "numberOfBytes": "32",
        "value": "t_address"
      },
      "t_mapping(t_uint256,t_uint256)": {
        "encoding": "mapping",
        "key": "t_uint256",
        "label": "mapping(uint256 => uint256)",
        "numberOfBytes": "32",
        "value": "t_uint256"
      },
      "t_string_storage": {
        "encoding": "bytes",
        "label": "string",
        "numberOfBytes": "32"
      },
      "t_struct(AddressSet)4066_storage": {
        "encoding": "inplace",
        "label": "struct EnumerableSetUpgradeable.AddressSet",
        "members": [
          {
            "astId": 4065,
            "contract": "contracts/DefinaHeroBoxV2.sol:DefinaHeroBoxV2",
            "label": "_inner",
            "offset": 0,
            "slot": "0",
            "type": "t_struct(Set)3765_storage"
          }
        ],
        "numberOfBytes": "64"
      },
      "t_struct(Counter)2947_storage": {
        "encoding": "inplace",
        "label": "struct CountersUpgradeable.Counter",
        "members": [
          {
            "astId": 2946,
            "contract": "contracts/DefinaHeroBoxV2.sol:DefinaHeroBoxV2",
            "label": "_value",
            "offset": 0,
            "slot": "0",
            "type": "t_uint256"
          }
        ],
        "numberOfBytes": "32"
      },
      "t_struct(RoleData)179_storage": {
        "encoding": "inplace",
        "label": "struct AccessControlUpgradeable.RoleData",
        "members": [
          {
            "astId": 176,
            "contract": "contracts/DefinaHeroBoxV2.sol:DefinaHeroBoxV2",
            "label": "members",
            "offset": 0,
            "slot": "0",
            "type": "t_mapping(t_address,t_bool)"
          },
          {
            "astId": 178,
            "contract": "contracts/DefinaHeroBoxV2.sol:DefinaHeroBoxV2",
            "label": "adminRole",
            "offset": 0,
            "slot": "1",
            "type": "t_bytes32"
          }
        ],
        "numberOfBytes": "64"
      },
      "t_struct(Set)3765_storage": {
        "encoding": "inplace",
        "label": "struct EnumerableSetUpgradeable.Set",
        "members": [
          {
            "astId": 3760,
            "contract": "contracts/DefinaHeroBoxV2.sol:DefinaHeroBoxV2",
            "label": "_values",
            "offset": 0,
            "slot": "0",
            "type": "t_array(t_bytes32)dyn_storage"
          },
          {
            "astId": 3764,
            "contract": "contracts/DefinaHeroBoxV2.sol:DefinaHeroBoxV2",
            "label": "_indexes",
            "offset": 0,
            "slot": "1",
            "type": "t_mapping(t_bytes32,t_uint256)"
          }
        ],
        "numberOfBytes": "64"
      },
      "t_struct(UintSet)4223_storage": {
        "encoding": "inplace",
        "label": "struct EnumerableSetUpgradeable.UintSet",
        "members": [
          {
            "astId": 4222,
            "contract": "contracts/DefinaHeroBoxV2.sol:DefinaHeroBoxV2",
            "label": "_inner",
            "offset": 0,
            "slot": "0",
            "type": "t_struct(Set)3765_storage"
          }
        ],
        "numberOfBytes": "64"
      },
      "t_uint256": {
        "encoding": "inplace",
        "label": "uint256",
        "numberOfBytes": "32"
      }
    }
  }
}