{
  "address": "0xDd7996B2732B25938De35BEB67d87a89a48f52c4",
  "abi": [
    {
      "inputs": [],
      "stateMutability": "nonpayable",
      "type": "constructor"
    },
    {
      "anonymous": false,
      "inputs": [
        {
          "indexed": true,
          "internalType": "address",
          "name": "who",
          "type": "address"
        },
        {
          "indexed": true,
          "internalType": "uint256",
          "name": "amount",
          "type": "uint256"
        }
      ],
      "name": "Deposited",
      "type": "event"
    },
    {
      "anonymous": false,
      "inputs": [
        {
          "indexed": true,
          "internalType": "bytes32",
          "name": "role",
          "type": "bytes32"
        },
        {
          "indexed": true,
          "internalType": "bytes32",
          "name": "previousAdminRole",
          "type": "bytes32"
        },
        {
          "indexed": true,
          "internalType": "bytes32",
          "name": "newAdminRole",
          "type": "bytes32"
        }
      ],
      "name": "RoleAdminChanged",
      "type": "event"
    },
    {
      "anonymous": false,
      "inputs": [
        {
          "indexed": true,
          "internalType": "bytes32",
          "name": "role",
          "type": "bytes32"
        },
        {
          "indexed": true,
          "internalType": "address",
          "name": "account",
          "type": "address"
        },
        {
          "indexed": true,
          "internalType": "address",
          "name": "sender",
          "type": "address"
        }
      ],
      "name": "RoleGranted",
      "type": "event"
    },
    {
      "anonymous": false,
      "inputs": [
        {
          "indexed": true,
          "internalType": "bytes32",
          "name": "role",
          "type": "bytes32"
        },
        {
          "indexed": true,
          "internalType": "address",
          "name": "account",
          "type": "address"
        },
        {
          "indexed": true,
          "internalType": "address",
          "name": "sender",
          "type": "address"
        }
      ],
      "name": "RoleRevoked",
      "type": "event"
    },
    {
      "anonymous": false,
      "inputs": [
        {
          "indexed": true,
          "internalType": "address",
          "name": "who",
          "type": "address"
        },
        {
          "indexed": true,
          "internalType": "uint256",
          "name": "amount",
          "type": "uint256"
        }
      ],
      "name": "Withdraw",
      "type": "event"
    },
    {
      "inputs": [],
      "name": "ADMIN_ROLE",
      "outputs": [
        {
          "internalType": "bytes32",
          "name": "",
          "type": "bytes32"
        }
      ],
      "stateMutability": "view",
      "type": "function"
    },
    {
      "inputs": [],
      "name": "DEFAULT_ADMIN_ROLE",
      "outputs": [
        {
          "internalType": "bytes32",
          "name": "",
          "type": "bytes32"
        }
      ],
      "stateMutability": "view",
      "type": "function"
    },
    {
      "inputs": [],
      "name": "allowance",
      "outputs": [
        {
          "internalType": "uint256",
          "name": "",
          "type": "uint256"
        }
      ],
      "stateMutability": "view",
      "type": "function"
    },
    {
      "inputs": [
        {
          "internalType": "uint256",
          "name": "amount_",
          "type": "uint256"
        }
      ],
      "name": "deposit",
      "outputs": [],
      "stateMutability": "nonpayable",
      "type": "function"
    },
    {
      "inputs": [],
      "name": "finaToken",
      "outputs": [
        {
          "internalType": "contract IERC20Upgradeable",
          "name": "",
          "type": "address"
        }
      ],
      "stateMutability": "view",
      "type": "function"
    },
    {
      "inputs": [
        {
          "internalType": "bytes32",
          "name": "role",
          "type": "bytes32"
        }
      ],
      "name": "getRoleAdmin",
      "outputs": [
        {
          "internalType": "bytes32",
          "name": "",
          "type": "bytes32"
        }
      ],
      "stateMutability": "view",
      "type": "function"
    },
    {
      "inputs": [
        {
          "internalType": "bytes32",
          "name": "role",
          "type": "bytes32"
        },
        {
          "internalType": "uint256",
          "name": "index",
          "type": "uint256"
        }
      ],
      "name": "getRoleMember",
      "outputs": [
        {
          "internalType": "address",
          "name": "",
          "type": "address"
        }
      ],
      "stateMutability": "view",
      "type": "function"
    },
    {
      "inputs": [
        {
          "internalType": "bytes32",
          "name": "role",
          "type": "bytes32"
        }
      ],
      "name": "getRoleMemberCount",
      "outputs": [
        {
          "internalType": "uint256",
          "name": "",
          "type": "uint256"
        }
      ],
      "stateMutability": "view",
      "type": "function"
    },
    {
      "inputs": [
        {
          "internalType": "bytes32",
          "name": "role",
          "type": "bytes32"
        },
        {
          "internalType": "address",
          "name": "account",
          "type": "address"
        }
      ],
      "name": "grantRole",
      "outputs": [],
      "stateMutability": "nonpayable",
      "type": "function"
    },
    {
      "inputs": [
        {
          "internalType": "bytes32",
          "name": "role",
          "type": "bytes32"
        },
        {
          "internalType": "address",
          "name": "account",
          "type": "address"
        }
      ],
      "name": "hasRole",
      "outputs": [
        {
          "internalType": "bool",
          "name": "",
          "type": "bool"
        }
      ],
      "stateMutability": "view",
      "type": "function"
    },
    {
      "inputs": [
        {
          "internalType": "contract IERC20Upgradeable",
          "name": "token_",
          "type": "address"
        }
      ],
      "name": "initialize",
      "outputs": [],
      "stateMutability": "nonpayable",
      "type": "function"
    },
    {
      "inputs": [
        {
          "internalType": "address[]",
          "name": "recipients_",
          "type": "address[]"
        },
        {
          "internalType": "uint256[]",
          "name": "amount_",
          "type": "uint256[]"
        }
      ],
      "name": "multiSend",
      "outputs": [],
      "stateMutability": "nonpayable",
      "type": "function"
    },
    {
      "inputs": [
        {
          "internalType": "address",
          "name": "tokenAddress_",
          "type": "address"
        }
      ],
      "name": "pullFunds",
      "outputs": [],
      "stateMutability": "nonpayable",
      "type": "function"
    },
    {
      "inputs": [
        {
          "internalType": "bytes32",
          "name": "role",
          "type": "bytes32"
        },
        {
          "internalType": "address",
          "name": "account",
          "type": "address"
        }
      ],
      "name": "renounceRole",
      "outputs": [],
      "stateMutability": "nonpayable",
      "type": "function"
    },
    {
      "inputs": [
        {
          "internalType": "uint256",
          "name": "amount_",
          "type": "uint256"
        }
      ],
      "name": "resetAllowance",
      "outputs": [],
      "stateMutability": "nonpayable",
      "type": "function"
    },
    {
      "inputs": [
        {
          "internalType": "bytes32",
          "name": "role",
          "type": "bytes32"
        },
        {
          "internalType": "address",
          "name": "account",
          "type": "address"
        }
      ],
      "name": "revokeRole",
      "outputs": [],
      "stateMutability": "nonpayable",
      "type": "function"
    },
    {
      "inputs": [
        {
          "internalType": "contract IERC20Upgradeable",
          "name": "token_",
          "type": "address"
        }
      ],
      "name": "setFinaAddress",
      "outputs": [],
      "stateMutability": "nonpayable",
      "type": "function"
    },
    {
      "inputs": [
        {
          "internalType": "bytes4",
          "name": "interfaceId",
          "type": "bytes4"
        }
      ],
      "name": "supportsInterface",
      "outputs": [
        {
          "internalType": "bool",
          "name": "",
          "type": "bool"
        }
      ],
      "stateMutability": "view",
      "type": "function"
    }
  ],
  "transactionHash": "0xe03a666100a9ce4b07495f969345fc0aedda061d67fb95bc2003424aa5738279",
  "args": [],
  "numDeployments": 1,
  "solcInputHash": "3ea80335fa63ed9197311ab010571b55",
  "bytecode": "0x608060405234801561001057600080fd5b50611742806100206000396000f3fe608060405234801561001057600080fd5b50600436106101165760003560e01c8063a3776825116100a2578063ca15c87311610071578063ca15c87314610268578063d32504c91461027b578063d547741f1461028e578063de242ff4146102a1578063eee4f11b146102aa57600080fd5b8063a37768251461021c578063b6b55f251461022f578063bb4c9f0b14610242578063c4d66de81461025557600080fd5b80635d5a92fb116100e95780635d5a92fb1461019c57806375b238fc146101af5780639010d07c146101d657806391d1485414610201578063a217fddf1461021457600080fd5b806301ffc9a71461011b578063248a9ca3146101435780632f2ff15d1461017457806336568abe14610189575b600080fd5b61012e6101293660046112bd565b6102bd565b60405190151581526020015b60405180910390f35b6101666101513660046112e7565b60009081526065602052604090206001015490565b60405190815260200161013a565b610187610182366004611318565b6102e8565b005b610187610197366004611318565b610313565b6101876101aa366004611348565b610396565b6101667fa49807205ce4d355092ef5a8a18f56e8913cf4a201fbe287825b095693c2177581565b6101e96101e4366004611365565b6104e8565b6040516001600160a01b03909116815260200161013a565b61012e61020f366004611318565b610507565b610166600081565b60c9546101e9906001600160a01b031681565b61018761023d3660046112e7565b610532565b61018761025036600461145d565b6105d3565b610187610263366004611348565b61084e565b6101666102763660046112e7565b610972565b610187610289366004611348565b610989565b61018761029c366004611318565b610a0e565b61016660ca5481565b6101876102b83660046112e7565b610a34565b60006001600160e01b03198216635a05180f60e01b14806102e257506102e282610a46565b92915050565b6000828152606560205260409020600101546103048133610a7b565b61030e8383610adf565b505050565b6001600160a01b03811633146103885760405162461bcd60e51b815260206004820152602f60248201527f416363657373436f6e74726f6c3a2063616e206f6e6c792072656e6f756e636560448201526e103937b632b9903337b91039b2b63360891b60648201526084015b60405180910390fd5b6103928282610b01565b5050565b60006103a28133610a7b565b6001600160a01b0382166103dc5760405133904780156108fc02916000818181858888f1935050505015801561030e573d6000803e3d6000fd5b816001600160a01b03811663a9059cbb336040516370a0823160e01b81523060048201526001600160a01b038516906370a082319060240160206040518083038186803b15801561042c57600080fd5b505afa158015610440573d6000803e3d6000fd5b505050506040513d601f19601f82011682018060405250810190610464919061151f565b6040516001600160e01b031960e085901b1681526001600160a01b0390921660048301526024820152604401602060405180830381600087803b1580156104aa57600080fd5b505af11580156104be573d6000803e3d6000fd5b505050506040513d601f19601f820116820180604052508101906104e29190611538565b50505050565b60008281526097602052604081206105009083610b23565b9392505050565b60009182526065602090815260408084206001600160a01b0393909316845291905290205460ff1690565b3332146105815760405162461bcd60e51b815260206004820152601760248201527f466f7263654e46544d61726b65743a206e6f7420656f61000000000000000000604482015260640161037f565b8061058b57600080fd5b6105a33360c9546001600160a01b0316903084610b2f565b604051819033907f2da466a7b24304f47e87fa2e1e5a81b9831ce54fec19055ce277ca2f39ba42c490600090a350565b7fa49807205ce4d355092ef5a8a18f56e8913cf4a201fbe287825b095693c217756105fe8133610a7b565b815183511461064f5760405162461bcd60e51b815260206004820152601b60248201527f56616c7565206c656e6774687320646f206e6f74206d617463682e0000000000604482015260640161037f565b60008351116106925760405162461bcd60e51b815260206004820152600f60248201526e0546865206c656e677468206973203608c1b604482015260640161037f565b6000805b83518110156106d8578381815181106106b1576106b161155a565b6020026020010151826106c49190611586565b9150806106d08161159e565b915050610696565b5060ca548111156107225760405162461bcd60e51b81526020600482015260146024820152736e6f7420656e6f75676820616c6c6f77616e636560601b604482015260640161037f565b8060ca600082825461073491906115b9565b90915550600090505b84518110156108475760006001600160a01b03168582815181106107635761076361155a565b60200260200101516001600160a01b0316141561077f57600080fd5b6107cc8582815181106107945761079461155a565b60200260200101518583815181106107ae576107ae61155a565b602090810291909101015160c9546001600160a01b03169190610b9a565b8381815181106107de576107de61155a565b60200260200101518582815181106107f8576107f861155a565b60200260200101516001600160a01b03167f884edad9ce6fa2440d8a54cc123490eb96d2768479d49ff9c7366125a942436460405160405180910390a38061083f8161159e565b91505061073d565b5050505050565b600054610100900460ff166108695760005460ff161561086d565b303b155b6108d05760405162461bcd60e51b815260206004820152602e60248201527f496e697469616c697a61626c653a20636f6e747261637420697320616c72656160448201526d191e481a5b9a5d1a585b1a5e995960921b606482015260840161037f565b600054610100900460ff161580156108f2576000805461ffff19166101011790555b6108fa610bca565b6001600160a01b03821661090d57600080fd5b60c980546001600160a01b0319166001600160a01b038416179055610933600033610c37565b61095d7fa49807205ce4d355092ef5a8a18f56e8913cf4a201fbe287825b095693c2177533610c37565b8015610392576000805461ff00191690555050565b60008181526097602052604081206102e290610c41565b60006109958133610a7b565b6001600160a01b0382166109eb5760405162461bcd60e51b815260206004820152601c60248201527f5468652061646472657373206f6620746f6b656e206973206e756c6c00000000604482015260640161037f565b5060c980546001600160a01b0319166001600160a01b0392909216919091179055565b600082815260656020526040902060010154610a2a8133610a7b565b61030e8383610b01565b6000610a408133610a7b565b5060ca55565b60006001600160e01b03198216637965db0b60e01b14806102e257506301ffc9a760e01b6001600160e01b03198316146102e2565b610a858282610507565b61039257610a9d816001600160a01b03166014610c4b565b610aa8836020610c4b565b604051602001610ab99291906115fc565b60408051601f198184030181529082905262461bcd60e51b825261037f91600401611671565b610ae98282610de7565b600082815260976020526040902061030e9082610e6d565b610b0b8282610e82565b600082815260976020526040902061030e9082610ee9565b60006105008383610efe565b6040516001600160a01b03808516602483015283166044820152606481018290526104e29085906323b872dd60e01b906084015b60408051601f198184030181529190526020810180516001600160e01b03166001600160e01b031990931692909217909152610f28565b6040516001600160a01b03831660248201526044810182905261030e90849063a9059cbb60e01b90606401610b63565b600054610100900460ff16610c355760405162461bcd60e51b815260206004820152602b60248201527f496e697469616c697a61626c653a20636f6e7472616374206973206e6f74206960448201526a6e697469616c697a696e6760a81b606482015260840161037f565b565b6103928282610adf565b60006102e2825490565b60606000610c5a8360026116a4565b610c65906002611586565b67ffffffffffffffff811115610c7d57610c7d611387565b6040519080825280601f01601f191660200182016040528015610ca7576020820181803683370190505b509050600360fc1b81600081518110610cc257610cc261155a565b60200101906001600160f81b031916908160001a905350600f60fb1b81600181518110610cf157610cf161155a565b60200101906001600160f81b031916908160001a9053506000610d158460026116a4565b610d20906001611586565b90505b6001811115610d98576f181899199a1a9b1b9c1cb0b131b232b360811b85600f1660108110610d5457610d5461155a565b1a60f81b828281518110610d6a57610d6a61155a565b60200101906001600160f81b031916908160001a90535060049490941c93610d91816116c3565b9050610d23565b5083156105005760405162461bcd60e51b815260206004820181905260248201527f537472696e67733a20686578206c656e67746820696e73756666696369656e74604482015260640161037f565b610df18282610507565b6103925760008281526065602090815260408083206001600160a01b03851684529091529020805460ff19166001179055610e293390565b6001600160a01b0316816001600160a01b0316837f2f8788117e7eff1d82e926ec794901d17c78024a50270940304540a733656f0d60405160405180910390a45050565b6000610500836001600160a01b038416610ffa565b610e8c8282610507565b156103925760008281526065602090815260408083206001600160a01b0385168085529252808320805460ff1916905551339285917ff6391f5c32d9c69d2a47ea670b442974b53935d1edc7fd64eb21e047a839171b9190a45050565b6000610500836001600160a01b038416611049565b6000826000018281548110610f1557610f1561155a565b9060005260206000200154905092915050565b6000610f7d826040518060400160405280602081526020017f5361666545524332303a206c6f772d6c6576656c2063616c6c206661696c6564815250856001600160a01b031661113c9092919063ffffffff16565b80519091501561030e5780806020019051810190610f9b9190611538565b61030e5760405162461bcd60e51b815260206004820152602a60248201527f5361666545524332303a204552433230206f7065726174696f6e20646964206e6044820152691bdd081cdd58d8d9595960b21b606482015260840161037f565b6000818152600183016020526040812054611041575081546001818101845560008481526020808220909301849055845484825282860190935260409020919091556102e2565b5060006102e2565b6000818152600183016020526040812054801561113257600061106d6001836115b9565b8554909150600090611081906001906115b9565b90508181146110e65760008660000182815481106110a1576110a161155a565b90600052602060002001549050808760000184815481106110c4576110c461155a565b6000918252602080832090910192909255918252600188019052604090208390555b85548690806110f7576110f76116da565b6001900381819060005260206000200160009055905585600101600086815260200190815260200160002060009055600193505050506102e2565b60009150506102e2565b606061114b8484600085611153565b949350505050565b6060824710156111b45760405162461bcd60e51b815260206004820152602660248201527f416464726573733a20696e73756666696369656e742062616c616e636520666f6044820152651c8818d85b1b60d21b606482015260840161037f565b6001600160a01b0385163b61120b5760405162461bcd60e51b815260206004820152601d60248201527f416464726573733a2063616c6c20746f206e6f6e2d636f6e7472616374000000604482015260640161037f565b600080866001600160a01b0316858760405161122791906116f0565b60006040518083038185875af1925050503d8060008114611264576040519150601f19603f3d011682016040523d82523d6000602084013e611269565b606091505b5091509150611279828286611284565b979650505050505050565b60608315611293575081610500565b8251156112a35782518084602001fd5b8160405162461bcd60e51b815260040161037f9190611671565b6000602082840312156112cf57600080fd5b81356001600160e01b03198116811461050057600080fd5b6000602082840312156112f957600080fd5b5035919050565b6001600160a01b038116811461131557600080fd5b50565b6000806040838503121561132b57600080fd5b82359150602083013561133d81611300565b809150509250929050565b60006020828403121561135a57600080fd5b813561050081611300565b6000806040838503121561137857600080fd5b50508035926020909101359150565b634e487b7160e01b600052604160045260246000fd5b604051601f8201601f1916810167ffffffffffffffff811182821017156113c6576113c6611387565b604052919050565b600067ffffffffffffffff8211156113e8576113e8611387565b5060051b60200190565b600082601f83011261140357600080fd5b81356020611418611413836113ce565b61139d565b82815260059290921b8401810191818101908684111561143757600080fd5b8286015b84811015611452578035835291830191830161143b565b509695505050505050565b6000806040838503121561147057600080fd5b823567ffffffffffffffff8082111561148857600080fd5b818501915085601f83011261149c57600080fd5b813560206114ac611413836113ce565b82815260059290921b840181019181810190898411156114cb57600080fd5b948201945b838610156114f25785356114e381611300565b825294820194908201906114d0565b9650508601359250508082111561150857600080fd5b50611515858286016113f2565b9150509250929050565b60006020828403121561153157600080fd5b5051919050565b60006020828403121561154a57600080fd5b8151801515811461050057600080fd5b634e487b7160e01b600052603260045260246000fd5b634e487b7160e01b600052601160045260246000fd5b6000821982111561159957611599611570565b500190565b60006000198214156115b2576115b2611570565b5060010190565b6000828210156115cb576115cb611570565b500390565b60005b838110156115eb5781810151838201526020016115d3565b838111156104e25750506000910152565b7f416363657373436f6e74726f6c3a206163636f756e74200000000000000000008152600083516116348160178501602088016115d0565b7001034b99036b4b9b9b4b733903937b6329607d1b60179184019182015283516116658160288401602088016115d0565b01602801949350505050565b60208152600082518060208401526116908160408501602087016115d0565b601f01601f19169190910160400192915050565b60008160001904831182151516156116be576116be611570565b500290565b6000816116d2576116d2611570565b506000190190565b634e487b7160e01b600052603160045260246000fd5b600082516117028184602087016115d0565b919091019291505056fea264697066735822122019fe356b3c5d2a8e650206b560df4f9de11df3b988098031962ac95fe07be27a64736f6c63430008090033",
  "devdoc": {
    "kind": "dev",
    "methods": {
      "getRoleAdmin(bytes32)": {
        "details": "Returns the admin role that controls `role`. See {grantRole} and {revokeRole}. To change a role's admin, use {_setRoleAdmin}."
      },
      "getRoleMember(bytes32,uint256)": {
        "details": "Returns one of the accounts that have `role`. `index` must be a value between 0 and {getRoleMemberCount}, non-inclusive. Role bearers are not sorted in any particular way, and their ordering may change at any point. WARNING: When using {getRoleMember} and {getRoleMemberCount}, make sure you perform all queries on the same block. See the following https://forum.openzeppelin.com/t/iterating-over-elements-on-enumerableset-in-openzeppelin-contracts/2296[forum post] for more information."
      },
      "getRoleMemberCount(bytes32)": {
        "details": "Returns the number of accounts that have `role`. Can be used together with {getRoleMember} to enumerate all bearers of a role."
      },
      "grantRole(bytes32,address)": {
        "details": "Grants `role` to `account`. If `account` had not been already granted `role`, emits a {RoleGranted} event. Requirements: - the caller must have ``role``'s admin role."
      },
      "hasRole(bytes32,address)": {
        "details": "Returns `true` if `account` has been granted `role`."
      },
      "renounceRole(bytes32,address)": {
        "details": "Revokes `role` from the calling account. Roles are often managed via {grantRole} and {revokeRole}: this function's purpose is to provide a mechanism for accounts to lose their privileges if they are compromised (such as when a trusted device is misplaced). If the calling account had been revoked `role`, emits a {RoleRevoked} event. Requirements: - the caller must be `account`."
      },
      "revokeRole(bytes32,address)": {
        "details": "Revokes `role` from `account`. If `account` had been granted `role`, emits a {RoleRevoked} event. Requirements: - the caller must have ``role``'s admin role."
      },
      "supportsInterface(bytes4)": {
        "details": "See {IERC165-supportsInterface}."
      }
    },
    "version": 1
  },
  "userdoc": {
    "kind": "user",
    "methods": {},
    "version": 1
  },
  "storageLayout": {
    "storage": [
      {
        "astId": 578,
        "contract": "contracts/FinaMaster.sol:FinaMaster",
        "label": "_initialized",
        "offset": 0,
        "slot": "0",
        "type": "t_bool"
      },
      {
        "astId": 581,
        "contract": "contracts/FinaMaster.sol:FinaMaster",
        "label": "_initializing",
        "offset": 1,
        "slot": "0",
        "type": "t_bool"
      },
      {
        "astId": 2940,
        "contract": "contracts/FinaMaster.sol:FinaMaster",
        "label": "__gap",
        "offset": 0,
        "slot": "1",
        "type": "t_array(t_uint256)50_storage"
      },
      {
        "astId": 3261,
        "contract": "contracts/FinaMaster.sol:FinaMaster",
        "label": "__gap",
        "offset": 0,
        "slot": "51",
        "type": "t_array(t_uint256)50_storage"
      },
      {
        "astId": 184,
        "contract": "contracts/FinaMaster.sol:FinaMaster",
        "label": "_roles",
        "offset": 0,
        "slot": "101",
        "type": "t_mapping(t_bytes32,t_struct(RoleData)179_storage)"
      },
      {
        "astId": 472,
        "contract": "contracts/FinaMaster.sol:FinaMaster",
        "label": "__gap",
        "offset": 0,
        "slot": "102",
        "type": "t_array(t_uint256)49_storage"
      },
      {
        "astId": 33,
        "contract": "contracts/FinaMaster.sol:FinaMaster",
        "label": "_roleMembers",
        "offset": 0,
        "slot": "151",
        "type": "t_mapping(t_bytes32,t_struct(AddressSet)4066_storage)"
      },
      {
        "astId": 143,
        "contract": "contracts/FinaMaster.sol:FinaMaster",
        "label": "__gap",
        "offset": 0,
        "slot": "152",
        "type": "t_array(t_uint256)49_storage"
      },
      {
        "astId": 6061,
        "contract": "contracts/FinaMaster.sol:FinaMaster",
        "label": "finaToken",
        "offset": 0,
        "slot": "201",
        "type": "t_contract(IERC20Upgradeable)834"
      },
      {
        "astId": 6063,
        "contract": "contracts/FinaMaster.sol:FinaMaster",
        "label": "allowance",
        "offset": 0,
        "slot": "202",
        "type": "t_uint256"
      }
    ],
    "types": {
      "t_address": {
        "encoding": "inplace",
        "label": "address",
        "numberOfBytes": "20"
      },
      "t_array(t_bytes32)dyn_storage": {
        "base": "t_bytes32",
        "encoding": "dynamic_array",
        "label": "bytes32[]",
        "numberOfBytes": "32"
      },
      "t_array(t_uint256)49_storage": {
        "base": "t_uint256",
        "encoding": "inplace",
        "label": "uint256[49]",
        "numberOfBytes": "1568"
      },
      "t_array(t_uint256)50_storage": {
        "base": "t_uint256",
        "encoding": "inplace",
        "label": "uint256[50]",
        "numberOfBytes": "1600"
      },
      "t_bool": {
        "encoding": "inplace",
        "label": "bool",
        "numberOfBytes": "1"
      },
      "t_bytes32": {
        "encoding": "inplace",
        "label": "bytes32",
        "numberOfBytes": "32"
      },
      "t_contract(IERC20Upgradeable)834": {
        "encoding": "inplace",
        "label": "contract IERC20Upgradeable",
        "numberOfBytes": "20"
      },
      "t_mapping(t_address,t_bool)": {
        "encoding": "mapping",
        "key": "t_address",
        "label": "mapping(address => bool)",
        "numberOfBytes": "32",
        "value": "t_bool"
      },
      "t_mapping(t_bytes32,t_struct(AddressSet)4066_storage)": {
        "encoding": "mapping",
        "key": "t_bytes32",
        "label": "mapping(bytes32 => struct EnumerableSetUpgradeable.AddressSet)",
        "numberOfBytes": "32",
        "value": "t_struct(AddressSet)4066_storage"
      },
      "t_mapping(t_bytes32,t_struct(RoleData)179_storage)": {
        "encoding": "mapping",
        "key": "t_bytes32",
        "label": "mapping(bytes32 => struct AccessControlUpgradeable.RoleData)",
        "numberOfBytes": "32",
        "value": "t_struct(RoleData)179_storage"
      },
      "t_mapping(t_bytes32,t_uint256)": {
        "encoding": "mapping",
        "key": "t_bytes32",
        "label": "mapping(bytes32 => uint256)",
        "numberOfBytes": "32",
        "value": "t_uint256"
      },
      "t_struct(AddressSet)4066_storage": {
        "encoding": "inplace",
        "label": "struct EnumerableSetUpgradeable.AddressSet",
        "members": [
          {
            "astId": 4065,
            "contract": "contracts/FinaMaster.sol:FinaMaster",
            "label": "_inner",
            "offset": 0,
            "slot": "0",
            "type": "t_struct(Set)3765_storage"
          }
        ],
        "numberOfBytes": "64"
      },
      "t_struct(RoleData)179_storage": {
        "encoding": "inplace",
        "label": "struct AccessControlUpgradeable.RoleData",
        "members": [
          {
            "astId": 176,
            "contract": "contracts/FinaMaster.sol:FinaMaster",
            "label": "members",
            "offset": 0,
            "slot": "0",
            "type": "t_mapping(t_address,t_bool)"
          },
          {
            "astId": 178,
            "contract": "contracts/FinaMaster.sol:FinaMaster",
            "label": "adminRole",
            "offset": 0,
            "slot": "1",
            "type": "t_bytes32"
          }
        ],
        "numberOfBytes": "64"
      },
      "t_struct(Set)3765_storage": {
        "encoding": "inplace",
        "label": "struct EnumerableSetUpgradeable.Set",
        "members": [
          {
            "astId": 3760,
            "contract": "contracts/FinaMaster.sol:FinaMaster",
            "label": "_values",
            "offset": 0,
            "slot": "0",
            "type": "t_array(t_bytes32)dyn_storage"
          },
          {
            "astId": 3764,
            "contract": "contracts/FinaMaster.sol:FinaMaster",
            "label": "_indexes",
            "offset": 0,
            "slot": "1",
            "type": "t_mapping(t_bytes32,t_uint256)"
          }
        ],
        "numberOfBytes": "64"
      },
      "t_uint256": {
        "encoding": "inplace",
        "label": "uint256",
        "numberOfBytes": "32"
      }
    }
  }
}