{
  "address": "0x0ed5F51932304CA8A39f00896aB2F7307E17cbF3",
  "abi": [
    {
      "inputs": [],
      "stateMutability": "nonpayable",
      "type": "constructor"
    },
    {
      "anonymous": false,
      "inputs": [
        {
          "indexed": true,
          "internalType": "address",
          "name": "user",
          "type": "address"
        },
        {
          "indexed": false,
          "internalType": "bytes32",
          "name": "account",
          "type": "bytes32"
        }
      ],
      "name": "Binding",
      "type": "event"
    },
    {
      "anonymous": false,
      "inputs": [
        {
          "indexed": true,
          "internalType": "address",
          "name": "user",
          "type": "address"
        },
        {
          "indexed": false,
          "internalType": "bytes32",
          "name": "delegatedAccount",
          "type": "bytes32"
        }
      ],
      "name": "Delegated",
      "type": "event"
    },
    {
      "anonymous": false,
      "inputs": [
        {
          "indexed": true,
          "internalType": "bytes32",
          "name": "role",
          "type": "bytes32"
        },
        {
          "indexed": true,
          "internalType": "bytes32",
          "name": "previousAdminRole",
          "type": "bytes32"
        },
        {
          "indexed": true,
          "internalType": "bytes32",
          "name": "newAdminRole",
          "type": "bytes32"
        }
      ],
      "name": "RoleAdminChanged",
      "type": "event"
    },
    {
      "anonymous": false,
      "inputs": [
        {
          "indexed": true,
          "internalType": "bytes32",
          "name": "role",
          "type": "bytes32"
        },
        {
          "indexed": true,
          "internalType": "address",
          "name": "account",
          "type": "address"
        },
        {
          "indexed": true,
          "internalType": "address",
          "name": "sender",
          "type": "address"
        }
      ],
      "name": "RoleGranted",
      "type": "event"
    },
    {
      "anonymous": false,
      "inputs": [
        {
          "indexed": true,
          "internalType": "bytes32",
          "name": "role",
          "type": "bytes32"
        },
        {
          "indexed": true,
          "internalType": "address",
          "name": "account",
          "type": "address"
        },
        {
          "indexed": true,
          "internalType": "address",
          "name": "sender",
          "type": "address"
        }
      ],
      "name": "RoleRevoked",
      "type": "event"
    },
    {
      "anonymous": false,
      "inputs": [
        {
          "indexed": true,
          "internalType": "address",
          "name": "user",
          "type": "address"
        }
      ],
      "name": "UnBinding",
      "type": "event"
    },
    {
      "anonymous": false,
      "inputs": [
        {
          "indexed": true,
          "internalType": "address",
          "name": "user",
          "type": "address"
        },
        {
          "indexed": false,
          "internalType": "bytes32",
          "name": "delegatedAccount",
          "type": "bytes32"
        }
      ],
      "name": "UnDelegated",
      "type": "event"
    },
    {
      "inputs": [],
      "name": "ADMIN_ROLE",
      "outputs": [
        {
          "internalType": "bytes32",
          "name": "",
          "type": "bytes32"
        }
      ],
      "stateMutability": "view",
      "type": "function"
    },
    {
      "inputs": [],
      "name": "DEFAULT_ADMIN_ROLE",
      "outputs": [
        {
          "internalType": "bytes32",
          "name": "",
          "type": "bytes32"
        }
      ],
      "stateMutability": "view",
      "type": "function"
    },
    {
      "inputs": [
        {
          "internalType": "string",
          "name": "email_",
          "type": "string"
        }
      ],
      "name": "bindAccount",
      "outputs": [],
      "stateMutability": "nonpayable",
      "type": "function"
    },
    {
      "inputs": [
        {
          "internalType": "string",
          "name": "email_",
          "type": "string"
        }
      ],
      "name": "calcEmailHash",
      "outputs": [
        {
          "internalType": "bytes32",
          "name": "",
          "type": "bytes32"
        }
      ],
      "stateMutability": "pure",
      "type": "function"
    },
    {
      "inputs": [
        {
          "internalType": "string",
          "name": "email_",
          "type": "string"
        }
      ],
      "name": "delegateAccount",
      "outputs": [],
      "stateMutability": "nonpayable",
      "type": "function"
    },
    {
      "inputs": [
        {
          "internalType": "address",
          "name": "account_",
          "type": "address"
        }
      ],
      "name": "getDelegatedEmailHash",
      "outputs": [
        {
          "internalType": "bytes32",
          "name": "",
          "type": "bytes32"
        }
      ],
      "stateMutability": "view",
      "type": "function"
    },
    {
      "inputs": [
        {
          "internalType": "address",
          "name": "account_",
          "type": "address"
        }
      ],
      "name": "getEmailHash",
      "outputs": [
        {
          "internalType": "bytes32",
          "name": "",
          "type": "bytes32"
        }
      ],
      "stateMutability": "view",
      "type": "function"
    },
    {
      "inputs": [
        {
          "internalType": "bytes32",
          "name": "role",
          "type": "bytes32"
        }
      ],
      "name": "getRoleAdmin",
      "outputs": [
        {
          "internalType": "bytes32",
          "name": "",
          "type": "bytes32"
        }
      ],
      "stateMutability": "view",
      "type": "function"
    },
    {
      "inputs": [
        {
          "internalType": "bytes32",
          "name": "role",
          "type": "bytes32"
        },
        {
          "internalType": "uint256",
          "name": "index",
          "type": "uint256"
        }
      ],
      "name": "getRoleMember",
      "outputs": [
        {
          "internalType": "address",
          "name": "",
          "type": "address"
        }
      ],
      "stateMutability": "view",
      "type": "function"
    },
    {
      "inputs": [
        {
          "internalType": "bytes32",
          "name": "role",
          "type": "bytes32"
        }
      ],
      "name": "getRoleMemberCount",
      "outputs": [
        {
          "internalType": "uint256",
          "name": "",
          "type": "uint256"
        }
      ],
      "stateMutability": "view",
      "type": "function"
    },
    {
      "inputs": [
        {
          "internalType": "bytes32",
          "name": "role",
          "type": "bytes32"
        },
        {
          "internalType": "address",
          "name": "account",
          "type": "address"
        }
      ],
      "name": "grantRole",
      "outputs": [],
      "stateMutability": "nonpayable",
      "type": "function"
    },
    {
      "inputs": [
        {
          "internalType": "bytes32",
          "name": "role",
          "type": "bytes32"
        },
        {
          "internalType": "address",
          "name": "account",
          "type": "address"
        }
      ],
      "name": "hasRole",
      "outputs": [
        {
          "internalType": "bool",
          "name": "",
          "type": "bool"
        }
      ],
      "stateMutability": "view",
      "type": "function"
    },
    {
      "inputs": [],
      "name": "initialize",
      "outputs": [],
      "stateMutability": "nonpayable",
      "type": "function"
    },
    {
      "inputs": [
        {
          "internalType": "address",
          "name": "tokenAddress_",
          "type": "address"
        }
      ],
      "name": "pullFunds",
      "outputs": [],
      "stateMutability": "nonpayable",
      "type": "function"
    },
    {
      "inputs": [
        {
          "internalType": "address",
          "name": "account_",
          "type": "address"
        }
      ],
      "name": "removeAccount",
      "outputs": [],
      "stateMutability": "nonpayable",
      "type": "function"
    },
    {
      "inputs": [],
      "name": "removeAllAccounts",
      "outputs": [],
      "stateMutability": "nonpayable",
      "type": "function"
    },
    {
      "inputs": [
        {
          "internalType": "bytes32",
          "name": "role",
          "type": "bytes32"
        },
        {
          "internalType": "address",
          "name": "account",
          "type": "address"
        }
      ],
      "name": "renounceRole",
      "outputs": [],
      "stateMutability": "nonpayable",
      "type": "function"
    },
    {
      "inputs": [
        {
          "internalType": "bytes32",
          "name": "role",
          "type": "bytes32"
        },
        {
          "internalType": "address",
          "name": "account",
          "type": "address"
        }
      ],
      "name": "revokeRole",
      "outputs": [],
      "stateMutability": "nonpayable",
      "type": "function"
    },
    {
      "inputs": [
        {
          "internalType": "bytes4",
          "name": "interfaceId",
          "type": "bytes4"
        }
      ],
      "name": "supportsInterface",
      "outputs": [
        {
          "internalType": "bool",
          "name": "",
          "type": "bool"
        }
      ],
      "stateMutability": "view",
      "type": "function"
    },
    {
      "inputs": [
        {
          "internalType": "string",
          "name": "email_",
          "type": "string"
        }
      ],
      "name": "undelegateAccount",
      "outputs": [],
      "stateMutability": "nonpayable",
      "type": "function"
    }
  ],
  "transactionHash": "0xa0ab595ff394beb0a2db69e4b6aaadd3ffad8d54f451c37e29ec487cb7a2c89f",
  "args": [],
  "numDeployments": 1,
  "solcInputHash": "3ea80335fa63ed9197311ab010571b55",
  "bytecode": "0x608060405234801561001057600080fd5b50611777806100206000396000f3fe608060405234801561001057600080fd5b506004361061012c5760003560e01c80639010d07c116100ad578063ca15c87311610071578063ca15c8731461027c578063d547741f1461028f578063ec079caa146102a2578063fdf6e47d146102b5578063fe84244f146102c857600080fd5b80639010d07c1461021b57806390b1cb271461024657806391d148541461024e578063a217fddf14610261578063c4740a951461026957600080fd5b80633adde5bf116100f45780633adde5bf146101c55780635d5a92fb146101d85780636239b7b1146101eb57806375b238fc146101fe5780638129fc1c1461021357600080fd5b806301ffc9a7146101315780630c926d1f14610159578063248a9ca31461016e5780632f2ff15d1461019f57806336568abe146101b2575b600080fd5b61014461013f36600461133f565b6102db565b60405190151581526020015b60405180910390f35b61016c61016736600461137f565b610306565b005b61019161017c366004611430565b60009081526065602052604090206001015490565b604051908152602001610150565b61016c6101ad366004611465565b610480565b61016c6101c0366004611465565b6104ab565b6101916101d3366004611491565b610529565b61016c6101e6366004611491565b61055a565b61016c6101f936600461137f565b6106b9565b61019160008051602061172283398151915281565b61016c61081e565b61022e6102293660046114ac565b610902565b6040516001600160a01b039091168152602001610150565b61016c610921565b61014461025c366004611465565b610979565b610191600081565b61016c610277366004611491565b6109a4565b61019161028a366004611430565b6109c6565b61016c61029d366004611465565b6109dd565b6101916102b036600461137f565b610a03565b61016c6102c336600461137f565b610a0e565b6101916102d6366004611491565b610b86565b60006001600160e01b03198216635a05180f60e01b1480610300575061030082610bb7565b92915050565b600081511161031457600080fd5b600061031f82610bec565b33600090815260ca6020526040902054909150801561035557600081815260cc6020526040902080546001600160a01b03191690555b600082815260cb60205260409020546001600160a01b0316156103e55760405162461bcd60e51b815260206004820152603760248201527f54686520656d61696c2068617320616c7265616479206265656e20726567697360448201527f7465726564206173206d6173746572206163636f756e7400000000000000000060648201526084015b60405180910390fd5b600082815260cc60205260409020546001600160a01b03161561041a5760405162461bcd60e51b81526004016103dc906114ce565b33600081815260ca6020908152604080832086905585835260cc82529182902080546001600160a01b0319168417905590518481527fa6ca69be1634c9486160d4fa9f11c9bf604a6a4b1fd23c8336ffc5889ef4b5ab91015b60405180910390a2505050565b60008281526065602052604090206001015461049c8133610c31565b6104a68383610c95565b505050565b6001600160a01b038116331461051b5760405162461bcd60e51b815260206004820152602f60248201527f416363657373436f6e74726f6c3a2063616e206f6e6c792072656e6f756e636560448201526e103937b632b9903337b91039b2b63360891b60648201526084016103dc565b6105258282610cb7565b5050565b60006001600160a01b03821661053e57600080fd5b506001600160a01b0316600090815260c9602052604090205490565b6000805160206117228339815191526105738133610c31565b6001600160a01b0382166105ad5760405133904780156108fc02916000818181858888f193505050501580156104a6573d6000803e3d6000fd5b816001600160a01b03811663a9059cbb336040516370a0823160e01b81523060048201526001600160a01b038516906370a082319060240160206040518083038186803b1580156105fd57600080fd5b505afa158015610611573d6000803e3d6000fd5b505050506040513d601f19601f82011682018060405250810190610635919061152b565b6040516001600160e01b031960e085901b1681526001600160a01b0390921660048301526024820152604401602060405180830381600087803b15801561067b57600080fd5b505af115801561068f573d6000803e3d6000fd5b505050506040513d601f19601f820116820180604052508101906106b39190611544565b50505050565b60008151116106c757600080fd5b60006106d282610bec565b33600090815260c96020526040902054909150801561070857600081815260cb6020526040902080546001600160a01b03191690555b600082815260cb60205260409020546001600160a01b03161561077b5760405162461bcd60e51b815260206004820152602560248201527f54686520656d61696c2068617320616c7265616479206265656e2072656769736044820152641d195c995960da1b60648201526084016103dc565b600082815260cc60205260409020546001600160a01b0316156107b05760405162461bcd60e51b81526004016103dc906114ce565b33600081815260c96020908152604080832086905585835260cb909152902080546001600160a01b031916821790556107eb9060cd90610cd9565b5060405182815233907fcd73894d1869cdb933f1b053a0babed16ab19fd06a735373f9ba1792bc0da2a290602001610473565b600054610100900460ff166108395760005460ff161561083d565b303b155b6108a05760405162461bcd60e51b815260206004820152602e60248201527f496e697469616c697a61626c653a20636f6e747261637420697320616c72656160448201526d191e481a5b9a5d1a585b1a5e995960921b60648201526084016103dc565b600054610100900460ff161580156108c2576000805461ffff19166101011790555b6108ca610cee565b6108d5600033610d5b565b6108ed60008051602061172283398151915233610d5b565b80156108ff576000805461ff00191690555b50565b600082815260976020526040812061091a9083610d65565b9392505050565b60008051602061172283398151915261093a8133610c31565b600061094660cd610d71565b905060005b818110156104a65761096761096260cd6000610d65565b610d7b565b806109718161157c565b91505061094b565b60009182526065602090815260408084206001600160a01b0393909316845291905290205460ff1690565b6000805160206117228339815191526109bd8133610c31565b61052582610d7b565b600081815260976020526040812061030090610d71565b6000828152606560205260409020600101546109f98133610c31565b6104a68383610cb7565b600061030082610bec565b6000815111610a1c57600080fd5b6000610a2782610bec565b33600090815260ca60205260409020549091508114610aa65760405162461bcd60e51b815260206004820152603560248201527f54686520656d61696c20776173206e6f742072656769737465726564206173206044820152741d1a194819195b1959d85d1959081858d8dbdd5b9d605a1b60648201526084016103dc565b600081815260cc60205260409020546001600160a01b0316610b245760405162461bcd60e51b815260206004820152603160248201527f54686520656d61696c20776173206e6f7420726567697374657265642061732060448201527019195b1959d85d1959081858d8dbdd5b9d607a1b60648201526084016103dc565b33600081815260ca6020908152604080832083905584835260cc82529182902080546001600160a01b031916905590518381527fb5261b10ff84e4fced2848e663a8a79ba863dbf0f48fc6f07f8204c8de7a4274910160405180910390a25050565b60006001600160a01b038216610b9b57600080fd5b506001600160a01b0316600090815260ca602052604090205490565b60006001600160e01b03198216637965db0b60e01b148061030057506301ffc9a760e01b6001600160e01b0319831614610300565b600080825111610bfb57600080fd5b610c0482610e6c565b604051602001610c1491906115c3565b604051602081830303815290604052805190602001209050919050565b610c3b8282610979565b61052557610c53816001600160a01b03166014610ee6565b610c5e836020610ee6565b604051602001610c6f9291906115f6565b60408051601f198184030181529082905262461bcd60e51b82526103dc916004016115c3565b610c9f8282611082565b60008281526097602052604090206104a69082610cd9565b610cc18282611108565b60008281526097602052604090206104a6908261116f565b600061091a836001600160a01b038416611184565b600054610100900460ff16610d595760405162461bcd60e51b815260206004820152602b60248201527f496e697469616c697a61626c653a20636f6e7472616374206973206e6f74206960448201526a6e697469616c697a696e6760a81b60648201526084016103dc565b565b6105258282610c95565b600061091a83836111d3565b6000610300825490565b6001600160a01b038116600090815260c960205260409020548015610dd1576001600160a01b038216600090815260c96020908152604080832083905583835260cb909152902080546001600160a01b03191690555b6001600160a01b038216600090815260ca60205260409020548015610e27576001600160a01b038316600090815260ca6020908152604080832083905583835260cc909152902080546001600160a01b03191690555b610e3260cd8461116f565b506040516001600160a01b038416907f0f8f522aef36d3c81550e748a21b2640596a14aa087111ab9df0f22bf8fb2c2790600090a2505050565b60608160005b8151811015610edf57610ea4828281518110610e9057610e9061166b565b01602001516001600160f81b0319166111fd565b828281518110610eb657610eb661166b565b60200101906001600160f81b031916908160001a90535080610ed78161157c565b915050610e72565b5092915050565b60606000610ef5836002611681565b610f009060026116a0565b67ffffffffffffffff811115610f1857610f18611369565b6040519080825280601f01601f191660200182016040528015610f42576020820181803683370190505b509050600360fc1b81600081518110610f5d57610f5d61166b565b60200101906001600160f81b031916908160001a905350600f60fb1b81600181518110610f8c57610f8c61166b565b60200101906001600160f81b031916908160001a9053506000610fb0846002611681565b610fbb9060016116a0565b90505b6001811115611033576f181899199a1a9b1b9c1cb0b131b232b360811b85600f1660108110610fef57610fef61166b565b1a60f81b8282815181106110055761100561166b565b60200101906001600160f81b031916908160001a90535060049490941c9361102c816116b8565b9050610fbe565b50831561091a5760405162461bcd60e51b815260206004820181905260248201527f537472696e67733a20686578206c656e67746820696e73756666696369656e7460448201526064016103dc565b61108c8282610979565b6105255760008281526065602090815260408083206001600160a01b03851684529091529020805460ff191660011790556110c43390565b6001600160a01b0316816001600160a01b0316837f2f8788117e7eff1d82e926ec794901d17c78024a50270940304540a733656f0d60405160405180910390a45050565b6111128282610979565b156105255760008281526065602090815260408083206001600160a01b0385168085529252808320805460ff1916905551339285917ff6391f5c32d9c69d2a47ea670b442974b53935d1edc7fd64eb21e047a839171b9190a45050565b600061091a836001600160a01b03841661124c565b60008181526001830160205260408120546111cb57508154600181810184556000848152602080822090930184905584548482528286019093526040902091909155610300565b506000610300565b60008260000182815481106111ea576111ea61166b565b9060005260206000200154905092915050565b6000604160f81b6001600160f81b031983161080159061122b5750602d60f91b6001600160f81b0319831611155b156112485761123f60f883901c60206116cf565b60f81b92915050565b5090565b600081815260018301602052604081205480156113355760006112706001836116f4565b8554909150600090611284906001906116f4565b90508181146112e95760008660000182815481106112a4576112a461166b565b90600052602060002001549050808760000184815481106112c7576112c761166b565b6000918252602080832090910192909255918252600188019052604090208390555b85548690806112fa576112fa61170b565b600190038181906000526020600020016000905590558560010160008681526020019081526020016000206000905560019350505050610300565b6000915050610300565b60006020828403121561135157600080fd5b81356001600160e01b03198116811461091a57600080fd5b634e487b7160e01b600052604160045260246000fd5b60006020828403121561139157600080fd5b813567ffffffffffffffff808211156113a957600080fd5b818401915084601f8301126113bd57600080fd5b8135818111156113cf576113cf611369565b604051601f8201601f19908116603f011681019083821181831017156113f7576113f7611369565b8160405282815287602084870101111561141057600080fd5b826020860160208301376000928101602001929092525095945050505050565b60006020828403121561144257600080fd5b5035919050565b80356001600160a01b038116811461146057600080fd5b919050565b6000806040838503121561147857600080fd5b8235915061148860208401611449565b90509250929050565b6000602082840312156114a357600080fd5b61091a82611449565b600080604083850312156114bf57600080fd5b50508035926020909101359150565b6020808252603a908201527f54686520656d61696c2068617320616c7265616479206265656e20726567697360408201527f74657265642061732064656c656761746564206163636f756e74000000000000606082015260800190565b60006020828403121561153d57600080fd5b5051919050565b60006020828403121561155657600080fd5b8151801515811461091a57600080fd5b634e487b7160e01b600052601160045260246000fd5b600060001982141561159057611590611566565b5060010190565b60005b838110156115b257818101518382015260200161159a565b838111156106b35750506000910152565b60208152600082518060208401526115e2816040850160208701611597565b601f01601f19169190910160400192915050565b7f416363657373436f6e74726f6c3a206163636f756e742000000000000000000081526000835161162e816017850160208801611597565b7001034b99036b4b9b9b4b733903937b6329607d1b601791840191820152835161165f816028840160208801611597565b01602801949350505050565b634e487b7160e01b600052603260045260246000fd5b600081600019048311821515161561169b5761169b611566565b500290565b600082198211156116b3576116b3611566565b500190565b6000816116c7576116c7611566565b506000190190565b600060ff821660ff84168060ff038211156116ec576116ec611566565b019392505050565b60008282101561170657611706611566565b500390565b634e487b7160e01b600052603160045260246000fdfea49807205ce4d355092ef5a8a18f56e8913cf4a201fbe287825b095693c21775a2646970667358221220b951a70688d15bb5911235350e257c434afbaadffae69d89d5f25557df47ac1e64736f6c63430008090033",
  "devdoc": {
    "kind": "dev",
    "methods": {
      "getRoleAdmin(bytes32)": {
        "details": "Returns the admin role that controls `role`. See {grantRole} and {revokeRole}. To change a role's admin, use {_setRoleAdmin}."
      },
      "getRoleMember(bytes32,uint256)": {
        "details": "Returns one of the accounts that have `role`. `index` must be a value between 0 and {getRoleMemberCount}, non-inclusive. Role bearers are not sorted in any particular way, and their ordering may change at any point. WARNING: When using {getRoleMember} and {getRoleMemberCount}, make sure you perform all queries on the same block. See the following https://forum.openzeppelin.com/t/iterating-over-elements-on-enumerableset-in-openzeppelin-contracts/2296[forum post] for more information."
      },
      "getRoleMemberCount(bytes32)": {
        "details": "Returns the number of accounts that have `role`. Can be used together with {getRoleMember} to enumerate all bearers of a role."
      },
      "grantRole(bytes32,address)": {
        "details": "Grants `role` to `account`. If `account` had not been already granted `role`, emits a {RoleGranted} event. Requirements: - the caller must have ``role``'s admin role."
      },
      "hasRole(bytes32,address)": {
        "details": "Returns `true` if `account` has been granted `role`."
      },
      "renounceRole(bytes32,address)": {
        "details": "Revokes `role` from the calling account. Roles are often managed via {grantRole} and {revokeRole}: this function's purpose is to provide a mechanism for accounts to lose their privileges if they are compromised (such as when a trusted device is misplaced). If the calling account had been revoked `role`, emits a {RoleRevoked} event. Requirements: - the caller must be `account`."
      },
      "revokeRole(bytes32,address)": {
        "details": "Revokes `role` from `account`. If `account` had been granted `role`, emits a {RoleRevoked} event. Requirements: - the caller must have ``role``'s admin role."
      },
      "supportsInterface(bytes4)": {
        "details": "See {IERC165-supportsInterface}."
      }
    },
    "version": 1
  },
  "userdoc": {
    "kind": "user",
    "methods": {},
    "version": 1
  },
  "storageLayout": {
    "storage": [
      {
        "astId": 578,
        "contract": "contracts/GameAccountRegister.sol:GameAccountRegister",
        "label": "_initialized",
        "offset": 0,
        "slot": "0",
        "type": "t_bool"
      },
      {
        "astId": 581,
        "contract": "contracts/GameAccountRegister.sol:GameAccountRegister",
        "label": "_initializing",
        "offset": 1,
        "slot": "0",
        "type": "t_bool"
      },
      {
        "astId": 2940,
        "contract": "contracts/GameAccountRegister.sol:GameAccountRegister",
        "label": "__gap",
        "offset": 0,
        "slot": "1",
        "type": "t_array(t_uint256)50_storage"
      },
      {
        "astId": 3261,
        "contract": "contracts/GameAccountRegister.sol:GameAccountRegister",
        "label": "__gap",
        "offset": 0,
        "slot": "51",
        "type": "t_array(t_uint256)50_storage"
      },
      {
        "astId": 184,
        "contract": "contracts/GameAccountRegister.sol:GameAccountRegister",
        "label": "_roles",
        "offset": 0,
        "slot": "101",
        "type": "t_mapping(t_bytes32,t_struct(RoleData)179_storage)"
      },
      {
        "astId": 472,
        "contract": "contracts/GameAccountRegister.sol:GameAccountRegister",
        "label": "__gap",
        "offset": 0,
        "slot": "102",
        "type": "t_array(t_uint256)49_storage"
      },
      {
        "astId": 33,
        "contract": "contracts/GameAccountRegister.sol:GameAccountRegister",
        "label": "_roleMembers",
        "offset": 0,
        "slot": "151",
        "type": "t_mapping(t_bytes32,t_struct(AddressSet)4066_storage)"
      },
      {
        "astId": 143,
        "contract": "contracts/GameAccountRegister.sol:GameAccountRegister",
        "label": "__gap",
        "offset": 0,
        "slot": "152",
        "type": "t_array(t_uint256)49_storage"
      },
      {
        "astId": 6391,
        "contract": "contracts/GameAccountRegister.sol:GameAccountRegister",
        "label": "accounts",
        "offset": 0,
        "slot": "201",
        "type": "t_mapping(t_address,t_bytes32)"
      },
      {
        "astId": 6395,
        "contract": "contracts/GameAccountRegister.sol:GameAccountRegister",
        "label": "delegatedAccounts",
        "offset": 0,
        "slot": "202",
        "type": "t_mapping(t_address,t_bytes32)"
      },
      {
        "astId": 6399,
        "contract": "contracts/GameAccountRegister.sol:GameAccountRegister",
        "label": "emails",
        "offset": 0,
        "slot": "203",
        "type": "t_mapping(t_bytes32,t_address)"
      },
      {
        "astId": 6403,
        "contract": "contracts/GameAccountRegister.sol:GameAccountRegister",
        "label": "delegatedEmails",
        "offset": 0,
        "slot": "204",
        "type": "t_mapping(t_bytes32,t_address)"
      },
      {
        "astId": 6406,
        "contract": "contracts/GameAccountRegister.sol:GameAccountRegister",
        "label": "accountsSet",
        "offset": 0,
        "slot": "205",
        "type": "t_struct(AddressSet)4066_storage"
      }
    ],
    "types": {
      "t_address": {
        "encoding": "inplace",
        "label": "address",
        "numberOfBytes": "20"
      },
      "t_array(t_bytes32)dyn_storage": {
        "base": "t_bytes32",
        "encoding": "dynamic_array",
        "label": "bytes32[]",
        "numberOfBytes": "32"
      },
      "t_array(t_uint256)49_storage": {
        "base": "t_uint256",
        "encoding": "inplace",
        "label": "uint256[49]",
        "numberOfBytes": "1568"
      },
      "t_array(t_uint256)50_storage": {
        "base": "t_uint256",
        "encoding": "inplace",
        "label": "uint256[50]",
        "numberOfBytes": "1600"
      },
      "t_bool": {
        "encoding": "inplace",
        "label": "bool",
        "numberOfBytes": "1"
      },
      "t_bytes32": {
        "encoding": "inplace",
        "label": "bytes32",
        "numberOfBytes": "32"
      },
      "t_mapping(t_address,t_bool)": {
        "encoding": "mapping",
        "key": "t_address",
        "label": "mapping(address => bool)",
        "numberOfBytes": "32",
        "value": "t_bool"
      },
      "t_mapping(t_address,t_bytes32)": {
        "encoding": "mapping",
        "key": "t_address",
        "label": "mapping(address => bytes32)",
        "numberOfBytes": "32",
        "value": "t_bytes32"
      },
      "t_mapping(t_bytes32,t_address)": {
        "encoding": "mapping",
        "key": "t_bytes32",
        "label": "mapping(bytes32 => address)",
        "numberOfBytes": "32",
        "value": "t_address"
      },
      "t_mapping(t_bytes32,t_struct(AddressSet)4066_storage)": {
        "encoding": "mapping",
        "key": "t_bytes32",
        "label": "mapping(bytes32 => struct EnumerableSetUpgradeable.AddressSet)",
        "numberOfBytes": "32",
        "value": "t_struct(AddressSet)4066_storage"
      },
      "t_mapping(t_bytes32,t_struct(RoleData)179_storage)": {
        "encoding": "mapping",
        "key": "t_bytes32",
        "label": "mapping(bytes32 => struct AccessControlUpgradeable.RoleData)",
        "numberOfBytes": "32",
        "value": "t_struct(RoleData)179_storage"
      },
      "t_mapping(t_bytes32,t_uint256)": {
        "encoding": "mapping",
        "key": "t_bytes32",
        "label": "mapping(bytes32 => uint256)",
        "numberOfBytes": "32",
        "value": "t_uint256"
      },
      "t_struct(AddressSet)4066_storage": {
        "encoding": "inplace",
        "label": "struct EnumerableSetUpgradeable.AddressSet",
        "members": [
          {
            "astId": 4065,
            "contract": "contracts/GameAccountRegister.sol:GameAccountRegister",
            "label": "_inner",
            "offset": 0,
            "slot": "0",
            "type": "t_struct(Set)3765_storage"
          }
        ],
        "numberOfBytes": "64"
      },
      "t_struct(RoleData)179_storage": {
        "encoding": "inplace",
        "label": "struct AccessControlUpgradeable.RoleData",
        "members": [
          {
            "astId": 176,
            "contract": "contracts/GameAccountRegister.sol:GameAccountRegister",
            "label": "members",
            "offset": 0,
            "slot": "0",
            "type": "t_mapping(t_address,t_bool)"
          },
          {
            "astId": 178,
            "contract": "contracts/GameAccountRegister.sol:GameAccountRegister",
            "label": "adminRole",
            "offset": 0,
            "slot": "1",
            "type": "t_bytes32"
          }
        ],
        "numberOfBytes": "64"
      },
      "t_struct(Set)3765_storage": {
        "encoding": "inplace",
        "label": "struct EnumerableSetUpgradeable.Set",
        "members": [
          {
            "astId": 3760,
            "contract": "contracts/GameAccountRegister.sol:GameAccountRegister",
            "label": "_values",
            "offset": 0,
            "slot": "0",
            "type": "t_array(t_bytes32)dyn_storage"
          },
          {
            "astId": 3764,
            "contract": "contracts/GameAccountRegister.sol:GameAccountRegister",
            "label": "_indexes",
            "offset": 0,
            "slot": "1",
            "type": "t_mapping(t_bytes32,t_uint256)"
          }
        ],
        "numberOfBytes": "64"
      },
      "t_uint256": {
        "encoding": "inplace",
        "label": "uint256",
        "numberOfBytes": "32"
      }
    }
  }
}