{
  "address": "0x090B52328de515FF953c4E2c548B250dAc9654dD",
  "abi": [
    {
      "inputs": [
        {
          "internalType": "address",
          "name": "vrfCoordinator_",
          "type": "address"
        },
        {
          "internalType": "address",
          "name": "link_",
          "type": "address"
        },
        {
          "internalType": "bytes32",
          "name": "keyHash_",
          "type": "bytes32"
        },
        {
          "internalType": "uint256",
          "name": "fee_",
          "type": "uint256"
        }
      ],
      "stateMutability": "nonpayable",
      "type": "constructor"
    },
    {
      "anonymous": false,
      "inputs": [
        {
          "indexed": true,
          "internalType": "bytes32",
          "name": "role",
          "type": "bytes32"
        },
        {
          "indexed": true,
          "internalType": "bytes32",
          "name": "previousAdminRole",
          "type": "bytes32"
        },
        {
          "indexed": true,
          "internalType": "bytes32",
          "name": "newAdminRole",
          "type": "bytes32"
        }
      ],
      "name": "RoleAdminChanged",
      "type": "event"
    },
    {
      "anonymous": false,
      "inputs": [
        {
          "indexed": true,
          "internalType": "bytes32",
          "name": "role",
          "type": "bytes32"
        },
        {
          "indexed": true,
          "internalType": "address",
          "name": "account",
          "type": "address"
        },
        {
          "indexed": true,
          "internalType": "address",
          "name": "sender",
          "type": "address"
        }
      ],
      "name": "RoleGranted",
      "type": "event"
    },
    {
      "anonymous": false,
      "inputs": [
        {
          "indexed": true,
          "internalType": "bytes32",
          "name": "role",
          "type": "bytes32"
        },
        {
          "indexed": true,
          "internalType": "address",
          "name": "account",
          "type": "address"
        },
        {
          "indexed": true,
          "internalType": "address",
          "name": "sender",
          "type": "address"
        }
      ],
      "name": "RoleRevoked",
      "type": "event"
    },
    {
      "inputs": [],
      "name": "DEFAULT_ADMIN_ROLE",
      "outputs": [
        {
          "internalType": "bytes32",
          "name": "",
          "type": "bytes32"
        }
      ],
      "stateMutability": "view",
      "type": "function"
    },
    {
      "inputs": [],
      "name": "RND_CONSUMER_ROLE",
      "outputs": [
        {
          "internalType": "bytes32",
          "name": "",
          "type": "bytes32"
        }
      ],
      "stateMutability": "view",
      "type": "function"
    },
    {
      "inputs": [
        {
          "internalType": "bytes32",
          "name": "role",
          "type": "bytes32"
        }
      ],
      "name": "getRoleAdmin",
      "outputs": [
        {
          "internalType": "bytes32",
          "name": "",
          "type": "bytes32"
        }
      ],
      "stateMutability": "view",
      "type": "function"
    },
    {
      "inputs": [
        {
          "internalType": "bytes32",
          "name": "role",
          "type": "bytes32"
        },
        {
          "internalType": "uint256",
          "name": "index",
          "type": "uint256"
        }
      ],
      "name": "getRoleMember",
      "outputs": [
        {
          "internalType": "address",
          "name": "",
          "type": "address"
        }
      ],
      "stateMutability": "view",
      "type": "function"
    },
    {
      "inputs": [
        {
          "internalType": "bytes32",
          "name": "role",
          "type": "bytes32"
        }
      ],
      "name": "getRoleMemberCount",
      "outputs": [
        {
          "internalType": "uint256",
          "name": "",
          "type": "uint256"
        }
      ],
      "stateMutability": "view",
      "type": "function"
    },
    {
      "inputs": [
        {
          "internalType": "bytes32",
          "name": "role",
          "type": "bytes32"
        },
        {
          "internalType": "address",
          "name": "account",
          "type": "address"
        }
      ],
      "name": "grantRole",
      "outputs": [],
      "stateMutability": "nonpayable",
      "type": "function"
    },
    {
      "inputs": [
        {
          "internalType": "bytes32",
          "name": "role",
          "type": "bytes32"
        },
        {
          "internalType": "address",
          "name": "account",
          "type": "address"
        }
      ],
      "name": "hasRole",
      "outputs": [
        {
          "internalType": "bool",
          "name": "",
          "type": "bool"
        }
      ],
      "stateMutability": "view",
      "type": "function"
    },
    {
      "inputs": [
        {
          "internalType": "address",
          "name": "tokenAddress_",
          "type": "address"
        }
      ],
      "name": "pullFunds",
      "outputs": [],
      "stateMutability": "nonpayable",
      "type": "function"
    },
    {
      "inputs": [
        {
          "internalType": "bytes32",
          "name": "requestId",
          "type": "bytes32"
        },
        {
          "internalType": "uint256",
          "name": "randomness",
          "type": "uint256"
        }
      ],
      "name": "rawFulfillRandomness",
      "outputs": [],
      "stateMutability": "nonpayable",
      "type": "function"
    },
    {
      "inputs": [
        {
          "internalType": "bytes32",
          "name": "role",
          "type": "bytes32"
        },
        {
          "internalType": "address",
          "name": "account",
          "type": "address"
        }
      ],
      "name": "renounceRole",
      "outputs": [],
      "stateMutability": "nonpayable",
      "type": "function"
    },
    {
      "inputs": [
        {
          "internalType": "uint256",
          "name": "tokenId_",
          "type": "uint256"
        },
        {
          "internalType": "address",
          "name": "user_",
          "type": "address"
        }
      ],
      "name": "requestRandomNumber",
      "outputs": [],
      "stateMutability": "nonpayable",
      "type": "function"
    },
    {
      "inputs": [
        {
          "internalType": "bytes32",
          "name": "role",
          "type": "bytes32"
        },
        {
          "internalType": "address",
          "name": "account",
          "type": "address"
        }
      ],
      "name": "revokeRole",
      "outputs": [],
      "stateMutability": "nonpayable",
      "type": "function"
    },
    {
      "inputs": [
        {
          "internalType": "bytes4",
          "name": "interfaceId",
          "type": "bytes4"
        }
      ],
      "name": "supportsInterface",
      "outputs": [
        {
          "internalType": "bool",
          "name": "",
          "type": "bool"
        }
      ],
      "stateMutability": "view",
      "type": "function"
    }
  ],
  "transactionHash": "0xdaa29b5cc7239ed8373340f761e49482398f516ba7533cf163d703d116dadd90",
  "args": [
    "0xa555fC018435bef5A13C6c6870a9d4C11DEC329C",
    "0x84b9B910527Ad5C03A9Ca831909E21e236EA7b06",
    "0xcaf3c3727e033261d383b315559476f48034c13b18f8cafed4d871abe5049186",
    "100000000000000000"
  ],
  "numDeployments": 1,
  "solcInputHash": "0e81e0d05204f3293078f523345abdb3",
  "bytecode": "0x60c06040523480156200001157600080fd5b5060405162001444380380620014448339810160408190526200003491620001ea565b6001600160a01b0384811660a0528316608052600482905560058190556200005e60003362000068565b5050505062000232565b62000074828262000078565b5050565b6200008f8282620000bb60201b620007741760201c565b6000828152600160209081526040909120620000b6918390620007f86200015b821b17901c565b505050565b6000828152602081815260408083206001600160a01b038516845290915290205460ff1662000074576000828152602081815260408083206001600160a01b03851684529091529020805460ff19166001179055620001173390565b6001600160a01b0316816001600160a01b0316837f2f8788117e7eff1d82e926ec794901d17c78024a50270940304540a733656f0d60405160405180910390a45050565b600062000172836001600160a01b0384166200017b565b90505b92915050565b6000818152600183016020526040812054620001c45750815460018181018455600084815260208082209093018490558454848252828601909352604090209190915562000175565b50600062000175565b80516001600160a01b0381168114620001e557600080fd5b919050565b600080600080608085870312156200020157600080fd5b6200020c85620001cd565b93506200021c60208601620001cd565b6040860151606090960151949790965092505050565b60805160a0516111de62000266600039600081816106c001526108750152600081816102fb015261084601526111de6000f3fe608060405234801561001057600080fd5b50600436106100cf5760003560e01c80639010d07c1161008c578063a217fddf11610066578063a217fddf146101cc578063bd7e6c18146101d4578063ca15c873146101fb578063d547741f1461020e57600080fd5b80639010d07c1461017b57806391d14854146101a657806394985ddd146101b957600080fd5b806301ffc9a7146100d45780631da3f159146100fc578063248a9ca3146101115780632f2ff15d1461014257806336568abe146101555780635d5a92fb14610168575b600080fd5b6100e76100e2366004610ed8565b610221565b60405190151581526020015b60405180910390f35b61010f61010a366004610f1e565b61024c565b005b61013461011f366004610f4a565b60009081526020819052604090206001015490565b6040519081526020016100f3565b61010f610150366004610f1e565b610472565b61010f610163366004610f1e565b61049d565b61010f610176366004610f63565b61051b565b61018e610189366004610f7e565b61066d565b6040516001600160a01b0390911681526020016100f3565b6100e76101b4366004610f1e565b61068c565b61010f6101c7366004610f7e565b6106b5565b610134600081565b6101347f9d56108290ea0bc9c5c59c3ad357dca9d1b29ed7f3ae1443bef2fa2159bdf5e881565b610134610209366004610f4a565b610737565b61010f61021c366004610f1e565b61074e565b60006001600160e01b03198216635a05180f60e01b148061024657506102468261080d565b92915050565b6102767f9d56108290ea0bc9c5c59c3ad357dca9d1b29ed7f3ae1443bef2fa2159bdf5e83361068c565b6102e35760405162461bcd60e51b815260206004820152603360248201527f52616e646f6d47656e657261746f723a206d757374206861766520636f6e73756044820152721b595c881c9bdb19481d1bc81c995c5d595cdd606a1b60648201526084015b60405180910390fd5b6005546040516370a0823160e01b81523060048201527f00000000000000000000000000000000000000000000000000000000000000006001600160a01b0316906370a082319060240160206040518083038186803b15801561034557600080fd5b505afa158015610359573d6000803e3d6000fd5b505050506040513d601f19601f8201168201806040525081019061037d9190610fa0565b10156103cb5760405162461bcd60e51b815260206004820181905260248201527f52616e646f6d47656e657261746f723a206e6f7420656e6f756768204c494e4b60448201526064016102da565b6001600160a01b0381166104215760405162461bcd60e51b815260206004820152601860248201527f52616e646f6d47656e657261746f723a206e6f2075736572000000000000000060448201526064016102da565b6000610431600454600554610842565b60009081526003602052604090206002810193909355506001820180546001600160a01b03929092166001600160a01b031992831617905581541633179055565b60008281526020819052604090206001015461048e81336109d5565b6104988383610a39565b505050565b6001600160a01b038116331461050d5760405162461bcd60e51b815260206004820152602f60248201527f416363657373436f6e74726f6c3a2063616e206f6e6c792072656e6f756e636560448201526e103937b632b9903337b91039b2b63360891b60648201526084016102da565b6105178282610a5b565b5050565b600061052781336109d5565b6001600160a01b0382166105615760405133904780156108fc02916000818181858888f19350505050158015610498573d6000803e3d6000fd5b816001600160a01b03811663a9059cbb336040516370a0823160e01b81523060048201526001600160a01b038516906370a082319060240160206040518083038186803b1580156105b157600080fd5b505afa1580156105c5573d6000803e3d6000fd5b505050506040513d601f19601f820116820180604052508101906105e99190610fa0565b6040516001600160e01b031960e085901b1681526001600160a01b0390921660048301526024820152604401602060405180830381600087803b15801561062f57600080fd5b505af1158015610643573d6000803e3d6000fd5b505050506040513d601f19601f820116820180604052508101906106679190610fb9565b50505050565b60008281526001602052604081206106859083610a7d565b9392505050565b6000918252602082815260408084206001600160a01b0393909316845291905290205460ff1690565b336001600160a01b037f0000000000000000000000000000000000000000000000000000000000000000161461072d5760405162461bcd60e51b815260206004820152601f60248201527f4f6e6c7920565246436f6f7264696e61746f722063616e2066756c66696c6c0060448201526064016102da565b6105178282610a89565b600081815260016020526040812061024690610b4c565b60008281526020819052604090206001015461076a81336109d5565b6104988383610a5b565b61077e828261068c565b610517576000828152602081815260408083206001600160a01b03851684529091529020805460ff191660011790556107b43390565b6001600160a01b0316816001600160a01b0316837f2f8788117e7eff1d82e926ec794901d17c78024a50270940304540a733656f0d60405160405180910390a45050565b6000610685836001600160a01b038416610b56565b60006001600160e01b03198216637965db0b60e01b148061024657506301ffc9a760e01b6001600160e01b0319831614610246565b60007f00000000000000000000000000000000000000000000000000000000000000006001600160a01b0316634000aea07f0000000000000000000000000000000000000000000000000000000000000000848660006040516020016108b2929190918252602082015260400190565b6040516020818303038152906040526040518463ffffffff1660e01b81526004016108df93929190611033565b602060405180830381600087803b1580156108f957600080fd5b505af115801561090d573d6000803e3d6000fd5b505050506040513d601f19601f820116820180604052508101906109319190610fb9565b50600083815260026020818152604080842054815180840189905280830186905230606082015260808082018390528351808303909101815260a09091019092528151918301919091209387905291905261098d906001611079565b6000858152600260205260409020556109cd8482604080516020808201949094528082019290925280518083038201815260609092019052805191012090565b949350505050565b6109df828261068c565b610517576109f7816001600160a01b03166014610ba5565b610a02836020610ba5565b604051602001610a13929190611091565b60408051601f198184030181529082905262461bcd60e51b82526102da91600401611106565b610a438282610774565b600082815260016020526040902061049890826107f8565b610a658282610d41565b60008281526001602052604090206104989082610da6565b60006106858383610dbb565b600082815260036020526040902081610aa157600191505b80546002820154600183015460405163ced0603f60e01b815260048101929092526001600160a01b0390811660248301526044820185905290911690819063ced0603f90606401600060405180830381600087803b158015610b0257600080fd5b505af1158015610b16573d6000803e3d6000fd5b50505060009485525050600360205250506040812080546001600160a01b03199081168255600182018054909116905560020155565b6000610246825490565b6000818152600183016020526040812054610b9d57508154600181810184556000848152602080822090930184905584548482528286019093526040902091909155610246565b506000610246565b60606000610bb4836002611119565b610bbf906002611079565b67ffffffffffffffff811115610bd757610bd7611138565b6040519080825280601f01601f191660200182016040528015610c01576020820181803683370190505b509050600360fc1b81600081518110610c1c57610c1c61114e565b60200101906001600160f81b031916908160001a905350600f60fb1b81600181518110610c4b57610c4b61114e565b60200101906001600160f81b031916908160001a9053506000610c6f846002611119565b610c7a906001611079565b90505b6001811115610cf2576f181899199a1a9b1b9c1cb0b131b232b360811b85600f1660108110610cae57610cae61114e565b1a60f81b828281518110610cc457610cc461114e565b60200101906001600160f81b031916908160001a90535060049490941c93610ceb81611164565b9050610c7d565b5083156106855760405162461bcd60e51b815260206004820181905260248201527f537472696e67733a20686578206c656e67746820696e73756666696369656e7460448201526064016102da565b610d4b828261068c565b15610517576000828152602081815260408083206001600160a01b0385168085529252808320805460ff1916905551339285917ff6391f5c32d9c69d2a47ea670b442974b53935d1edc7fd64eb21e047a839171b9190a45050565b6000610685836001600160a01b038416610de5565b6000826000018281548110610dd257610dd261114e565b9060005260206000200154905092915050565b60008181526001830160205260408120548015610ece576000610e0960018361117b565b8554909150600090610e1d9060019061117b565b9050818114610e82576000866000018281548110610e3d57610e3d61114e565b9060005260206000200154905080876000018481548110610e6057610e6061114e565b6000918252602080832090910192909255918252600188019052604090208390555b8554869080610e9357610e93611192565b600190038181906000526020600020016000905590558560010160008681526020019081526020016000206000905560019350505050610246565b6000915050610246565b600060208284031215610eea57600080fd5b81356001600160e01b03198116811461068557600080fd5b80356001600160a01b0381168114610f1957600080fd5b919050565b60008060408385031215610f3157600080fd5b82359150610f4160208401610f02565b90509250929050565b600060208284031215610f5c57600080fd5b5035919050565b600060208284031215610f7557600080fd5b61068582610f02565b60008060408385031215610f9157600080fd5b50508035926020909101359150565b600060208284031215610fb257600080fd5b5051919050565b600060208284031215610fcb57600080fd5b8151801515811461068557600080fd5b60005b83811015610ff6578181015183820152602001610fde565b838111156106675750506000910152565b6000815180845261101f816020860160208601610fdb565b601f01601f19169290920160200192915050565b60018060a01b038416815282602082015260606040820152600061105a6060830184611007565b95945050505050565b634e487b7160e01b600052601160045260246000fd5b6000821982111561108c5761108c611063565b500190565b7f416363657373436f6e74726f6c3a206163636f756e74200000000000000000008152600083516110c9816017850160208801610fdb565b7001034b99036b4b9b9b4b733903937b6329607d1b60179184019182015283516110fa816028840160208801610fdb565b01602801949350505050565b6020815260006106856020830184611007565b600081600019048311821515161561113357611133611063565b500290565b634e487b7160e01b600052604160045260246000fd5b634e487b7160e01b600052603260045260246000fd5b60008161117357611173611063565b506000190190565b60008282101561118d5761118d611063565b500390565b634e487b7160e01b600052603160045260246000fdfea264697066735822122025710a9b6d2f37566b29029c926875d1695572c9543617ec9855b8b1d272b6c264736f6c63430008090033",
  "devdoc": {
    "kind": "dev",
    "methods": {
      "getRoleAdmin(bytes32)": {
        "details": "Returns the admin role that controls `role`. See {grantRole} and {revokeRole}. To change a role's admin, use {_setRoleAdmin}."
      },
      "getRoleMember(bytes32,uint256)": {
        "details": "Returns one of the accounts that have `role`. `index` must be a value between 0 and {getRoleMemberCount}, non-inclusive. Role bearers are not sorted in any particular way, and their ordering may change at any point. WARNING: When using {getRoleMember} and {getRoleMemberCount}, make sure you perform all queries on the same block. See the following https://forum.openzeppelin.com/t/iterating-over-elements-on-enumerableset-in-openzeppelin-contracts/2296[forum post] for more information."
      },
      "getRoleMemberCount(bytes32)": {
        "details": "Returns the number of accounts that have `role`. Can be used together with {getRoleMember} to enumerate all bearers of a role."
      },
      "grantRole(bytes32,address)": {
        "details": "Grants `role` to `account`. If `account` had not been already granted `role`, emits a {RoleGranted} event. Requirements: - the caller must have ``role``'s admin role."
      },
      "hasRole(bytes32,address)": {
        "details": "Returns `true` if `account` has been granted `role`."
      },
      "renounceRole(bytes32,address)": {
        "details": "Revokes `role` from the calling account. Roles are often managed via {grantRole} and {revokeRole}: this function's purpose is to provide a mechanism for accounts to lose their privileges if they are compromised (such as when a trusted device is misplaced). If the calling account had been revoked `role`, emits a {RoleRevoked} event. Requirements: - the caller must be `account`."
      },
      "revokeRole(bytes32,address)": {
        "details": "Revokes `role` from `account`. If `account` had been granted `role`, emits a {RoleRevoked} event. Requirements: - the caller must have ``role``'s admin role."
      },
      "supportsInterface(bytes4)": {
        "details": "See {IERC165-supportsInterface}."
      }
    },
    "version": 1
  },
  "userdoc": {
    "kind": "user",
    "methods": {},
    "version": 1
  },
  "storageLayout": {
    "storage": [
      {
        "astId": 290,
        "contract": "contracts/RandomGenerator.sol:RandomGenerator",
        "label": "_roles",
        "offset": 0,
        "slot": "0",
        "type": "t_mapping(t_bytes32,t_struct(RoleData)285_storage)"
      },
      {
        "astId": 593,
        "contract": "contracts/RandomGenerator.sol:RandomGenerator",
        "label": "_roleMembers",
        "offset": 0,
        "slot": "1",
        "type": "t_mapping(t_bytes32,t_struct(AddressSet)6793_storage)"
      },
      {
        "astId": 79,
        "contract": "contracts/RandomGenerator.sol:RandomGenerator",
        "label": "nonces",
        "offset": 0,
        "slot": "2",
        "type": "t_mapping(t_bytes32,t_uint256)"
      },
      {
        "astId": 9741,
        "contract": "contracts/RandomGenerator.sol:RandomGenerator",
        "label": "_requestIdToRequest",
        "offset": 0,
        "slot": "3",
        "type": "t_mapping(t_bytes32,t_struct(RandomRequest)9736_storage)"
      },
      {
        "astId": 9743,
        "contract": "contracts/RandomGenerator.sol:RandomGenerator",
        "label": "keyHash",
        "offset": 0,
        "slot": "4",
        "type": "t_bytes32"
      },
      {
        "astId": 9745,
        "contract": "contracts/RandomGenerator.sol:RandomGenerator",
        "label": "fee",
        "offset": 0,
        "slot": "5",
        "type": "t_uint256"
      }
    ],
    "types": {
      "t_address": {
        "encoding": "inplace",
        "label": "address",
        "numberOfBytes": "20"
      },
      "t_array(t_bytes32)dyn_storage": {
        "base": "t_bytes32",
        "encoding": "dynamic_array",
        "label": "bytes32[]",
        "numberOfBytes": "32"
      },
      "t_bool": {
        "encoding": "inplace",
        "label": "bool",
        "numberOfBytes": "1"
      },
      "t_bytes32": {
        "encoding": "inplace",
        "label": "bytes32",
        "numberOfBytes": "32"
      },
      "t_mapping(t_address,t_bool)": {
        "encoding": "mapping",
        "key": "t_address",
        "label": "mapping(address => bool)",
        "numberOfBytes": "32",
        "value": "t_bool"
      },
      "t_mapping(t_bytes32,t_struct(AddressSet)6793_storage)": {
        "encoding": "mapping",
        "key": "t_bytes32",
        "label": "mapping(bytes32 => struct EnumerableSet.AddressSet)",
        "numberOfBytes": "32",
        "value": "t_struct(AddressSet)6793_storage"
      },
      "t_mapping(t_bytes32,t_struct(RandomRequest)9736_storage)": {
        "encoding": "mapping",
        "key": "t_bytes32",
        "label": "mapping(bytes32 => struct RandomGenerator.RandomRequest)",
        "numberOfBytes": "32",
        "value": "t_struct(RandomRequest)9736_storage"
      },
      "t_mapping(t_bytes32,t_struct(RoleData)285_storage)": {
        "encoding": "mapping",
        "key": "t_bytes32",
        "label": "mapping(bytes32 => struct AccessControl.RoleData)",
        "numberOfBytes": "32",
        "value": "t_struct(RoleData)285_storage"
      },
      "t_mapping(t_bytes32,t_uint256)": {
        "encoding": "mapping",
        "key": "t_bytes32",
        "label": "mapping(bytes32 => uint256)",
        "numberOfBytes": "32",
        "value": "t_uint256"
      },
      "t_struct(AddressSet)6793_storage": {
        "encoding": "inplace",
        "label": "struct EnumerableSet.AddressSet",
        "members": [
          {
            "astId": 6792,
            "contract": "contracts/RandomGenerator.sol:RandomGenerator",
            "label": "_inner",
            "offset": 0,
            "slot": "0",
            "type": "t_struct(Set)6492_storage"
          }
        ],
        "numberOfBytes": "64"
      },
      "t_struct(RandomRequest)9736_storage": {
        "encoding": "inplace",
        "label": "struct RandomGenerator.RandomRequest",
        "members": [
          {
            "astId": 9731,
            "contract": "contracts/RandomGenerator.sol:RandomGenerator",
            "label": "requester",
            "offset": 0,
            "slot": "0",
            "type": "t_address"
          },
          {
            "astId": 9733,
            "contract": "contracts/RandomGenerator.sol:RandomGenerator",
            "label": "user",
            "offset": 0,
            "slot": "1",
            "type": "t_address"
          },
          {
            "astId": 9735,
            "contract": "contracts/RandomGenerator.sol:RandomGenerator",
            "label": "tokenId",
            "offset": 0,
            "slot": "2",
            "type": "t_uint256"
          }
        ],
        "numberOfBytes": "96"
      },
      "t_struct(RoleData)285_storage": {
        "encoding": "inplace",
        "label": "struct AccessControl.RoleData",
        "members": [
          {
            "astId": 282,
            "contract": "contracts/RandomGenerator.sol:RandomGenerator",
            "label": "members",
            "offset": 0,
            "slot": "0",
            "type": "t_mapping(t_address,t_bool)"
          },
          {
            "astId": 284,
            "contract": "contracts/RandomGenerator.sol:RandomGenerator",
            "label": "adminRole",
            "offset": 0,
            "slot": "1",
            "type": "t_bytes32"
          }
        ],
        "numberOfBytes": "64"
      },
      "t_struct(Set)6492_storage": {
        "encoding": "inplace",
        "label": "struct EnumerableSet.Set",
        "members": [
          {
            "astId": 6487,
            "contract": "contracts/RandomGenerator.sol:RandomGenerator",
            "label": "_values",
            "offset": 0,
            "slot": "0",
            "type": "t_array(t_bytes32)dyn_storage"
          },
          {
            "astId": 6491,
            "contract": "contracts/RandomGenerator.sol:RandomGenerator",
            "label": "_indexes",
            "offset": 0,
            "slot": "1",
            "type": "t_mapping(t_bytes32,t_uint256)"
          }
        ],
        "numberOfBytes": "64"
      },
      "t_uint256": {
        "encoding": "inplace",
        "label": "uint256",
        "numberOfBytes": "32"
      }
    }
  }
}