{
    "contractName": "DefinaHeroBoxV2",
    "abi": [
        {
            "inputs": [],
            "stateMutability": "nonpayable",
            "type": "constructor"
        },
        {
            "anonymous": false,
            "inputs": [
                {
                    "indexed": true,
                    "internalType": "address",
                    "name": "owner",
                    "type": "address"
                },
                {
                    "indexed": true,
                    "internalType": "address",
                    "name": "approved",
                    "type": "address"
                },
                {
                    "indexed": true,
                    "internalType": "uint256",
                    "name": "tokenId",
                    "type": "uint256"
                }
            ],
            "name": "Approval",
            "type": "event"
        },
        {
            "anonymous": false,
            "inputs": [
                {
                    "indexed": true,
                    "internalType": "address",
                    "name": "owner",
                    "type": "address"
                },
                {
                    "indexed": true,
                    "internalType": "address",
                    "name": "operator",
                    "type": "address"
                },
                {
                    "indexed": false,
                    "internalType": "bool",
                    "name": "approved",
                    "type": "bool"
                }
            ],
            "name": "ApprovalForAll",
            "type": "event"
        },
        {
            "anonymous": false,
            "inputs": [
                {
                    "indexed": false,
                    "internalType": "address",
                    "name": "_to",
                    "type": "address"
                },
                {
                    "indexed": false,
                    "internalType": "uint256",
                    "name": "tokenid_",
                    "type": "uint256"
                }
            ],
            "name": "Mint",
            "type": "event"
        },
        {
            "anonymous": false,
            "inputs": [
                {
                    "indexed": true,
                    "internalType": "address",
                    "name": "_to",
                    "type": "address"
                },
                {
                    "indexed": false,
                    "internalType": "uint256",
                    "name": "_amount",
                    "type": "uint256"
                }
            ],
            "name": "MintMulti",
            "type": "event"
        },
        {
            "anonymous": false,
            "inputs": [
                {
                    "indexed": true,
                    "internalType": "uint256",
                    "name": "tokenId_",
                    "type": "uint256"
                },
                {
                    "indexed": true,
                    "internalType": "uint256",
                    "name": "cardId_",
                    "type": "uint256"
                },
                {
                    "indexed": true,
                    "internalType": "uint256",
                    "name": "nftId_",
                    "type": "uint256"
                }
            ],
            "name": "Open",
            "type": "event"
        },
        {
            "anonymous": false,
            "inputs": [
                {
                    "indexed": true,
                    "internalType": "uint256",
                    "name": "tokenId",
                    "type": "uint256"
                },
                {
                    "indexed": true,
                    "internalType": "address",
                    "name": "user_",
                    "type": "address"
                }
            ],
            "name": "OpenRequested",
            "type": "event"
        },
        {
            "anonymous": false,
            "inputs": [
                {
                    "indexed": false,
                    "internalType": "address",
                    "name": "account",
                    "type": "address"
                }
            ],
            "name": "Paused",
            "type": "event"
        },
        {
            "anonymous": false,
            "inputs": [
                {
                    "indexed": true,
                    "internalType": "bytes32",
                    "name": "role",
                    "type": "bytes32"
                },
                {
                    "indexed": true,
                    "internalType": "bytes32",
                    "name": "previousAdminRole",
                    "type": "bytes32"
                },
                {
                    "indexed": true,
                    "internalType": "bytes32",
                    "name": "newAdminRole",
                    "type": "bytes32"
                }
            ],
            "name": "RoleAdminChanged",
            "type": "event"
        },
        {
            "anonymous": false,
            "inputs": [
                {
                    "indexed": true,
                    "internalType": "bytes32",
                    "name": "role",
                    "type": "bytes32"
                },
                {
                    "indexed": true,
                    "internalType": "address",
                    "name": "account",
                    "type": "address"
                },
                {
                    "indexed": true,
                    "internalType": "address",
                    "name": "sender",
                    "type": "address"
                }
            ],
            "name": "RoleGranted",
            "type": "event"
        },
        {
            "anonymous": false,
            "inputs": [
                {
                    "indexed": true,
                    "internalType": "bytes32",
                    "name": "role",
                    "type": "bytes32"
                },
                {
                    "indexed": true,
                    "internalType": "address",
                    "name": "account",
                    "type": "address"
                },
                {
                    "indexed": true,
                    "internalType": "address",
                    "name": "sender",
                    "type": "address"
                }
            ],
            "name": "RoleRevoked",
            "type": "event"
        },
        {
            "anonymous": false,
            "inputs": [
                {
                    "indexed": false,
                    "internalType": "string",
                    "name": "_newURI",
                    "type": "string"
                }
            ],
            "name": "SetMyBaseURI",
            "type": "event"
        },
        {
            "anonymous": false,
            "inputs": [
                {
                    "indexed": false,
                    "internalType": "contract IDefinaCard",
                    "name": "_newNft",
                    "type": "address"
                }
            ],
            "name": "SetNftToken",
            "type": "event"
        },
        {
            "anonymous": false,
            "inputs": [
                {
                    "indexed": false,
                    "internalType": "contract IRandomGenerator",
                    "name": "_newRandomGenerator",
                    "type": "address"
                }
            ],
            "name": "SetRandomGenerator",
            "type": "event"
        },
        {
            "anonymous": false,
            "inputs": [
                {
                    "indexed": true,
                    "internalType": "address",
                    "name": "from",
                    "type": "address"
                },
                {
                    "indexed": true,
                    "internalType": "address",
                    "name": "to",
                    "type": "address"
                },
                {
                    "indexed": true,
                    "internalType": "uint256",
                    "name": "tokenId",
                    "type": "uint256"
                }
            ],
            "name": "Transfer",
            "type": "event"
        },
        {
            "anonymous": false,
            "inputs": [
                {
                    "indexed": false,
                    "internalType": "address",
                    "name": "account",
                    "type": "address"
                }
            ],
            "name": "Unpaused",
            "type": "event"
        },
        {
            "inputs": [],
            "name": "ADMIN_ROLE",
            "outputs": [
                {
                    "internalType": "bytes32",
                    "name": "",
                    "type": "bytes32"
                }
            ],
            "stateMutability": "view",
            "type": "function"
        },
        {
            "inputs": [],
            "name": "DEFAULT_ADMIN_ROLE",
            "outputs": [
                {
                    "internalType": "bytes32",
                    "name": "",
                    "type": "bytes32"
                }
            ],
            "stateMutability": "view",
            "type": "function"
        },
        {
            "inputs": [],
            "name": "PAUSER_ROLE",
            "outputs": [
                {
                    "internalType": "bytes32",
                    "name": "",
                    "type": "bytes32"
                }
            ],
            "stateMutability": "view",
            "type": "function"
        },
        {
            "inputs": [
                {
                    "internalType": "address[]",
                    "name": "candidates_",
                    "type": "address[]"
                }
            ],
            "name": "addToWhitelist",
            "outputs": [
                {
                    "internalType": "bool",
                    "name": "",
                    "type": "bool"
                }
            ],
            "stateMutability": "nonpayable",
            "type": "function"
        },
        {
            "inputs": [
                {
                    "internalType": "address",
                    "name": "to",
                    "type": "address"
                },
                {
                    "internalType": "uint256",
                    "name": "tokenId",
                    "type": "uint256"
                }
            ],
            "name": "approve",
            "outputs": [],
            "stateMutability": "nonpayable",
            "type": "function"
        },
        {
            "inputs": [
                {
                    "internalType": "address",
                    "name": "owner",
                    "type": "address"
                }
            ],
            "name": "balanceOf",
            "outputs": [
                {
                    "internalType": "uint256",
                    "name": "",
                    "type": "uint256"
                }
            ],
            "stateMutability": "view",
            "type": "function"
        },
        {
            "inputs": [
                {
                    "internalType": "uint256",
                    "name": "tokenId",
                    "type": "uint256"
                }
            ],
            "name": "burn",
            "outputs": [],
            "stateMutability": "nonpayable",
            "type": "function"
        },
        {
            "inputs": [
                {
                    "internalType": "uint256",
                    "name": "",
                    "type": "uint256"
                }
            ],
            "name": "cardsQuota",
            "outputs": [
                {
                    "internalType": "uint256",
                    "name": "",
                    "type": "uint256"
                }
            ],
            "stateMutability": "view",
            "type": "function"
        },
        {
            "inputs": [
                {
                    "internalType": "uint256",
                    "name": "amount",
                    "type": "uint256"
                }
            ],
            "name": "cleanPublicBuyHistory",
            "outputs": [
                {
                    "internalType": "bool",
                    "name": "",
                    "type": "bool"
                }
            ],
            "stateMutability": "nonpayable",
            "type": "function"
        },
        {
            "inputs": [
                {
                    "internalType": "uint256",
                    "name": "amount",
                    "type": "uint256"
                }
            ],
            "name": "cleanWhitelist",
            "outputs": [
                {
                    "internalType": "bool",
                    "name": "",
                    "type": "bool"
                }
            ],
            "stateMutability": "nonpayable",
            "type": "function"
        },
        {
            "inputs": [
                {
                    "internalType": "address",
                    "name": "candidate_",
                    "type": "address"
                }
            ],
            "name": "containsInWhiteList",
            "outputs": [
                {
                    "internalType": "bool",
                    "name": "",
                    "type": "bool"
                }
            ],
            "stateMutability": "view",
            "type": "function"
        },
        {
            "inputs": [],
            "name": "currToken",
            "outputs": [
                {
                    "internalType": "contract IERC20Upgradeable",
                    "name": "",
                    "type": "address"
                }
            ],
            "stateMutability": "view",
            "type": "function"
        },
        {
            "inputs": [
                {
                    "internalType": "uint256",
                    "name": "tokenId",
                    "type": "uint256"
                }
            ],
            "name": "getApproved",
            "outputs": [
                {
                    "internalType": "address",
                    "name": "",
                    "type": "address"
                }
            ],
            "stateMutability": "view",
            "type": "function"
        },
        {
            "inputs": [
                {
                    "internalType": "bytes32",
                    "name": "role",
                    "type": "bytes32"
                }
            ],
            "name": "getRoleAdmin",
            "outputs": [
                {
                    "internalType": "bytes32",
                    "name": "",
                    "type": "bytes32"
                }
            ],
            "stateMutability": "view",
            "type": "function"
        },
        {
            "inputs": [
                {
                    "internalType": "bytes32",
                    "name": "role",
                    "type": "bytes32"
                },
                {
                    "internalType": "uint256",
                    "name": "index",
                    "type": "uint256"
                }
            ],
            "name": "getRoleMember",
            "outputs": [
                {
                    "internalType": "address",
                    "name": "",
                    "type": "address"
                }
            ],
            "stateMutability": "view",
            "type": "function"
        },
        {
            "inputs": [
                {
                    "internalType": "bytes32",
                    "name": "role",
                    "type": "bytes32"
                }
            ],
            "name": "getRoleMemberCount",
            "outputs": [
                {
                    "internalType": "uint256",
                    "name": "",
                    "type": "uint256"
                }
            ],
            "stateMutability": "view",
            "type": "function"
        },
        {
            "inputs": [
                {
                    "internalType": "bytes32",
                    "name": "role",
                    "type": "bytes32"
                },
                {
                    "internalType": "address",
                    "name": "account",
                    "type": "address"
                }
            ],
            "name": "grantRole",
            "outputs": [],
            "stateMutability": "nonpayable",
            "type": "function"
        },
        {
            "inputs": [
                {
                    "internalType": "bytes32",
                    "name": "role",
                    "type": "bytes32"
                },
                {
                    "internalType": "address",
                    "name": "account",
                    "type": "address"
                }
            ],
            "name": "hasRole",
            "outputs": [
                {
                    "internalType": "bool",
                    "name": "",
                    "type": "bool"
                }
            ],
            "stateMutability": "view",
            "type": "function"
        },
        {
            "inputs": [
                {
                    "internalType": "contract IDefinaCard",
                    "name": "nftToken_",
                    "type": "address"
                },
                {
                    "internalType": "string",
                    "name": "baseTokenURI",
                    "type": "string"
                },
                {
                    "internalType": "contract IERC20Upgradeable",
                    "name": "currToken_",
                    "type": "address"
                },
                {
                    "internalType": "uint256",
                    "name": "nftPrice_",
                    "type": "uint256"
                },
                {
                    "internalType": "address",
                    "name": "tokenReceiveAddress_",
                    "type": "address"
                },
                {
                    "internalType": "uint256[]",
                    "name": "cardIds_",
                    "type": "uint256[]"
                },
                {
                    "internalType": "uint256[]",
                    "name": "cardsNum_",
                    "type": "uint256[]"
                },
                {
                    "internalType": "contract IRandomGenerator",
                    "name": "randomGenerator_",
                    "type": "address"
                }
            ],
            "name": "initialize",
            "outputs": [],
            "stateMutability": "nonpayable",
            "type": "function"
        },
        {
            "inputs": [
                {
                    "internalType": "address",
                    "name": "owner",
                    "type": "address"
                },
                {
                    "internalType": "address",
                    "name": "operator",
                    "type": "address"
                }
            ],
            "name": "isApprovedForAll",
            "outputs": [
                {
                    "internalType": "bool",
                    "name": "",
                    "type": "bool"
                }
            ],
            "stateMutability": "view",
            "type": "function"
        },
        {
            "inputs": [
                {
                    "internalType": "uint256",
                    "name": "amount",
                    "type": "uint256"
                }
            ],
            "name": "mintMulti",
            "outputs": [],
            "stateMutability": "nonpayable",
            "type": "function"
        },
        {
            "inputs": [],
            "name": "name",
            "outputs": [
                {
                    "internalType": "string",
                    "name": "",
                    "type": "string"
                }
            ],
            "stateMutability": "view",
            "type": "function"
        },
        {
            "inputs": [
                {
                    "internalType": "uint256",
                    "name": "",
                    "type": "uint256"
                }
            ],
            "name": "nftIdtoCardId",
            "outputs": [
                {
                    "internalType": "uint256",
                    "name": "",
                    "type": "uint256"
                }
            ],
            "stateMutability": "view",
            "type": "function"
        },
        {
            "inputs": [],
            "name": "nftPrice",
            "outputs": [
                {
                    "internalType": "uint256",
                    "name": "",
                    "type": "uint256"
                }
            ],
            "stateMutability": "view",
            "type": "function"
        },
        {
            "inputs": [],
            "name": "nftToken",
            "outputs": [
                {
                    "internalType": "contract IDefinaCard",
                    "name": "",
                    "type": "address"
                }
            ],
            "stateMutability": "view",
            "type": "function"
        },
        {
            "inputs": [
                {
                    "internalType": "address",
                    "name": "",
                    "type": "address"
                },
                {
                    "internalType": "address",
                    "name": "",
                    "type": "address"
                },
                {
                    "internalType": "uint256",
                    "name": "",
                    "type": "uint256"
                },
                {
                    "internalType": "bytes",
                    "name": "",
                    "type": "bytes"
                }
            ],
            "name": "onERC721Received",
            "outputs": [
                {
                    "internalType": "bytes4",
                    "name": "",
                    "type": "bytes4"
                }
            ],
            "stateMutability": "nonpayable",
            "type": "function"
        },
        {
            "inputs": [
                {
                    "internalType": "uint256",
                    "name": "tokenId",
                    "type": "uint256"
                }
            ],
            "name": "open",
            "outputs": [],
            "stateMutability": "nonpayable",
            "type": "function"
        },
        {
            "inputs": [
                {
                    "internalType": "uint256",
                    "name": "tokenId",
                    "type": "uint256"
                }
            ],
            "name": "ownerOf",
            "outputs": [
                {
                    "internalType": "address",
                    "name": "",
                    "type": "address"
                }
            ],
            "stateMutability": "view",
            "type": "function"
        },
        {
            "inputs": [],
            "name": "pause",
            "outputs": [],
            "stateMutability": "nonpayable",
            "type": "function"
        },
        {
            "inputs": [],
            "name": "paused",
            "outputs": [
                {
                    "internalType": "bool",
                    "name": "",
                    "type": "bool"
                }
            ],
            "stateMutability": "view",
            "type": "function"
        },
        {
            "inputs": [],
            "name": "publicBuyableQuota",
            "outputs": [
                {
                    "internalType": "uint256",
                    "name": "",
                    "type": "uint256"
                }
            ],
            "stateMutability": "view",
            "type": "function"
        },
        {
            "inputs": [
                {
                    "internalType": "address",
                    "name": "",
                    "type": "address"
                }
            ],
            "name": "publicBuyingHistory",
            "outputs": [
                {
                    "internalType": "uint256",
                    "name": "",
                    "type": "uint256"
                }
            ],
            "stateMutability": "view",
            "type": "function"
        },
        {
            "inputs": [
                {
                    "internalType": "address",
                    "name": "tokenAddress",
                    "type": "address"
                },
                {
                    "internalType": "address",
                    "name": "receivedAddress",
                    "type": "address"
                },
                {
                    "internalType": "uint256",
                    "name": "amount",
                    "type": "uint256"
                }
            ],
            "name": "pullNFTs",
            "outputs": [],
            "stateMutability": "nonpayable",
            "type": "function"
        },
        {
            "inputs": [],
            "name": "randomGenerator",
            "outputs": [
                {
                    "internalType": "contract IRandomGenerator",
                    "name": "",
                    "type": "address"
                }
            ],
            "stateMutability": "view",
            "type": "function"
        },
        {
            "inputs": [
                {
                    "internalType": "bytes32",
                    "name": "role",
                    "type": "bytes32"
                },
                {
                    "internalType": "address",
                    "name": "account",
                    "type": "address"
                }
            ],
            "name": "renounceRole",
            "outputs": [],
            "stateMutability": "nonpayable",
            "type": "function"
        },
        {
            "inputs": [
                {
                    "internalType": "bytes32",
                    "name": "role",
                    "type": "bytes32"
                },
                {
                    "internalType": "address",
                    "name": "account",
                    "type": "address"
                }
            ],
            "name": "revokeRole",
            "outputs": [],
            "stateMutability": "nonpayable",
            "type": "function"
        },
        {
            "inputs": [
                {
                    "internalType": "uint256",
                    "name": "tokenId_",
                    "type": "uint256"
                },
                {
                    "internalType": "address",
                    "name": "user_",
                    "type": "address"
                },
                {
                    "internalType": "uint256",
                    "name": "randomness_",
                    "type": "uint256"
                }
            ],
            "name": "runFulfillRandomness",
            "outputs": [],
            "stateMutability": "nonpayable",
            "type": "function"
        },
        {
            "inputs": [
                {
                    "internalType": "address",
                    "name": "from",
                    "type": "address"
                },
                {
                    "internalType": "address",
                    "name": "to",
                    "type": "address"
                },
                {
                    "internalType": "uint256",
                    "name": "tokenId",
                    "type": "uint256"
                }
            ],
            "name": "safeTransferFrom",
            "outputs": [],
            "stateMutability": "nonpayable",
            "type": "function"
        },
        {
            "inputs": [
                {
                    "internalType": "address",
                    "name": "from",
                    "type": "address"
                },
                {
                    "internalType": "address",
                    "name": "to",
                    "type": "address"
                },
                {
                    "internalType": "uint256",
                    "name": "tokenId",
                    "type": "uint256"
                },
                {
                    "internalType": "bytes",
                    "name": "_data",
                    "type": "bytes"
                }
            ],
            "name": "safeTransferFrom",
            "outputs": [],
            "stateMutability": "nonpayable",
            "type": "function"
        },
        {
            "inputs": [
                {
                    "internalType": "address",
                    "name": "operator",
                    "type": "address"
                },
                {
                    "internalType": "bool",
                    "name": "approved",
                    "type": "bool"
                }
            ],
            "name": "setApprovalForAll",
            "outputs": [],
            "stateMutability": "nonpayable",
            "type": "function"
        },
        {
            "inputs": [
                {
                    "internalType": "uint256[]",
                    "name": "cardIds_",
                    "type": "uint256[]"
                },
                {
                    "internalType": "uint256[]",
                    "name": "cardsNum_",
                    "type": "uint256[]"
                }
            ],
            "name": "setCardsQuota",
            "outputs": [],
            "stateMutability": "nonpayable",
            "type": "function"
        },
        {
            "inputs": [
                {
                    "internalType": "contract IERC20Upgradeable",
                    "name": "currToken_",
                    "type": "address"
                }
            ],
            "name": "setCurrToken",
            "outputs": [],
            "stateMutability": "nonpayable",
            "type": "function"
        },
        {
            "inputs": [
                {
                    "internalType": "address",
                    "name": "tokenReceiveAddress_",
                    "type": "address"
                }
            ],
            "name": "setErc20TokenReceiveAddress",
            "outputs": [],
            "stateMutability": "nonpayable",
            "type": "function"
        },
        {
            "inputs": [
                {
                    "internalType": "string",
                    "name": "uri_",
                    "type": "string"
                }
            ],
            "name": "setMyBaseURI",
            "outputs": [],
            "stateMutability": "nonpayable",
            "type": "function"
        },
        {
            "inputs": [
                {
                    "internalType": "uint256",
                    "name": "nftPrice_",
                    "type": "uint256"
                }
            ],
            "name": "setNftPrice",
            "outputs": [],
            "stateMutability": "nonpayable",
            "type": "function"
        },
        {
            "inputs": [
                {
                    "internalType": "contract IDefinaCard",
                    "name": "nftToken_",
                    "type": "address"
                }
            ],
            "name": "setNftToken",
            "outputs": [],
            "stateMutability": "nonpayable",
            "type": "function"
        },
        {
            "inputs": [
                {
                    "internalType": "uint256",
                    "name": "publicBuyableQuota_",
                    "type": "uint256"
                }
            ],
            "name": "setPublicBuyableQuota",
            "outputs": [],
            "stateMutability": "nonpayable",
            "type": "function"
        },
        {
            "inputs": [
                {
                    "internalType": "contract IRandomGenerator",
                    "name": "randomGenerator_",
                    "type": "address"
                }
            ],
            "name": "setRandomGenerator",
            "outputs": [],
            "stateMutability": "nonpayable",
            "type": "function"
        },
        {
            "inputs": [
                {
                    "internalType": "uint256",
                    "name": "whiteListBuyableQuota_",
                    "type": "uint256"
                }
            ],
            "name": "setWhiteListBuyableQuota",
            "outputs": [],
            "stateMutability": "nonpayable",
            "type": "function"
        },
        {
            "inputs": [
                {
                    "internalType": "bytes4",
                    "name": "interfaceId",
                    "type": "bytes4"
                }
            ],
            "name": "supportsInterface",
            "outputs": [
                {
                    "internalType": "bool",
                    "name": "",
                    "type": "bool"
                }
            ],
            "stateMutability": "view",
            "type": "function"
        },
        {
            "inputs": [],
            "name": "symbol",
            "outputs": [
                {
                    "internalType": "string",
                    "name": "",
                    "type": "string"
                }
            ],
            "stateMutability": "view",
            "type": "function"
        },
        {
            "inputs": [],
            "name": "toggleWhiteListOnly",
            "outputs": [],
            "stateMutability": "nonpayable",
            "type": "function"
        },
        {
            "inputs": [
                {
                    "internalType": "uint256",
                    "name": "index",
                    "type": "uint256"
                }
            ],
            "name": "tokenByIndex",
            "outputs": [
                {
                    "internalType": "uint256",
                    "name": "",
                    "type": "uint256"
                }
            ],
            "stateMutability": "view",
            "type": "function"
        },
        {
            "inputs": [
                {
                    "internalType": "address",
                    "name": "owner",
                    "type": "address"
                },
                {
                    "internalType": "uint256",
                    "name": "index",
                    "type": "uint256"
                }
            ],
            "name": "tokenOfOwnerByIndex",
            "outputs": [
                {
                    "internalType": "uint256",
                    "name": "",
                    "type": "uint256"
                }
            ],
            "stateMutability": "view",
            "type": "function"
        },
        {
            "inputs": [],
            "name": "tokenReceiveAddress",
            "outputs": [
                {
                    "internalType": "address",
                    "name": "",
                    "type": "address"
                }
            ],
            "stateMutability": "view",
            "type": "function"
        },
        {
            "inputs": [
                {
                    "internalType": "uint256",
                    "name": "tokenId",
                    "type": "uint256"
                }
            ],
            "name": "tokenURI",
            "outputs": [
                {
                    "internalType": "string",
                    "name": "",
                    "type": "string"
                }
            ],
            "stateMutability": "view",
            "type": "function"
        },
        {
            "inputs": [],
            "name": "totalBlindBoxQuota",
            "outputs": [
                {
                    "internalType": "uint256",
                    "name": "",
                    "type": "uint256"
                }
            ],
            "stateMutability": "view",
            "type": "function"
        },
        {
            "inputs": [],
            "name": "totalBlindBoxRemaining",
            "outputs": [
                {
                    "internalType": "uint256",
                    "name": "",
                    "type": "uint256"
                }
            ],
            "stateMutability": "view",
            "type": "function"
        },
        {
            "inputs": [],
            "name": "totalBlindBoxSold",
            "outputs": [
                {
                    "internalType": "uint256",
                    "name": "",
                    "type": "uint256"
                }
            ],
            "stateMutability": "view",
            "type": "function"
        },
        {
            "inputs": [],
            "name": "totalSupply",
            "outputs": [
                {
                    "internalType": "uint256",
                    "name": "",
                    "type": "uint256"
                }
            ],
            "stateMutability": "view",
            "type": "function"
        },
        {
            "inputs": [
                {
                    "internalType": "address",
                    "name": "account",
                    "type": "address"
                }
            ],
            "name": "transferAdmin",
            "outputs": [],
            "stateMutability": "nonpayable",
            "type": "function"
        },
        {
            "inputs": [
                {
                    "internalType": "address",
                    "name": "from",
                    "type": "address"
                },
                {
                    "internalType": "address",
                    "name": "to",
                    "type": "address"
                },
                {
                    "internalType": "uint256",
                    "name": "tokenId",
                    "type": "uint256"
                }
            ],
            "name": "transferFrom",
            "outputs": [],
            "stateMutability": "nonpayable",
            "type": "function"
        },
        {
            "inputs": [],
            "name": "unpause",
            "outputs": [],
            "stateMutability": "nonpayable",
            "type": "function"
        },
        {
            "inputs": [
                {
                    "internalType": "uint256",
                    "name": "index",
                    "type": "uint256"
                }
            ],
            "name": "whiteListAtIndex",
            "outputs": [
                {
                    "internalType": "address",
                    "name": "",
                    "type": "address"
                }
            ],
            "stateMutability": "view",
            "type": "function"
        },
        {
            "inputs": [],
            "name": "whiteListBuyableQuota",
            "outputs": [
                {
                    "internalType": "uint256",
                    "name": "",
                    "type": "uint256"
                }
            ],
            "stateMutability": "view",
            "type": "function"
        },
        {
            "inputs": [],
            "name": "whiteListCount",
            "outputs": [
                {
                    "internalType": "uint256",
                    "name": "",
                    "type": "uint256"
                }
            ],
            "stateMutability": "view",
            "type": "function"
        },
        {
            "inputs": [],
            "name": "whiteListOnly",
            "outputs": [
                {
                    "internalType": "bool",
                    "name": "",
                    "type": "bool"
                }
            ],
            "stateMutability": "view",
            "type": "function"
        },
        {
            "inputs": [
                {
                    "internalType": "address",
                    "name": "",
                    "type": "address"
                }
            ],
            "name": "whitelistBuyingHistory",
            "outputs": [
                {
                    "internalType": "uint256",
                    "name": "",
                    "type": "uint256"
                }
            ],
            "stateMutability": "view",
            "type": "function"
        }
    ],
    "bytecode": "608060405234801561001057600080fd5b50614d7e806100206000396000f3fe608060405234801561001057600080fd5b50600436106103fc5760003560e01c8063613dd3311161021557806395d89b4111610125578063ca15c873116100b8578063d547741f11610087578063d547741f146108c4578063dcbad90d146108d7578063e63ab1e9146108eb578063e985e9c514610900578063f9b3dd081461093c57600080fd5b8063ca15c87314610877578063ced0603f1461088a578063d06fcba81461089d578063d207e244146108b157600080fd5b8063b88d4fde116100f4578063b88d4fde1461081d578063bd09e55514610830578063c32bc36414610851578063c87b56dd1461086457600080fd5b806395d89b41146107f0578063a217fddf146107f8578063a22cb46514610800578063a2b165051461081357600080fd5b80637d9a7a4c116101a857806385c239bb1161017757806385c239bb1461078757806388aac7b4146107a85780639010d07c146107bc578063912554cb146107cf57806391d14854146107dd57600080fd5b80637d9a7a4c146107465780637f64978314610759578063823962841461076c5780638456cb591461077f57600080fd5b806370a08231116101e457806370a08231146106f857806372aa3b621461070b57806375829def1461071e57806375b238fc1461073157600080fd5b8063613dd331146106ac5780636352211e146106bf57806363f2ff1a146106d2578063690e7c09146106e557600080fd5b806336568abe11610310578063460dd82b116102a35780634f2efc72116102725780634f2efc72146106545780634f6ccce71461066757806351e5d91d1461067a5780635c975abb1461068d5780635dcce2341461069957600080fd5b8063460dd82b1461061c578063475f95051461062f5780634bc19fee146106395780634de031611461064c57600080fd5b80633fc80923116102df5780633fc80923146105d957806342842e0e146105ec57806342966c68146105ff57806343953e131461061257600080fd5b806336568abe146105a3578063380fced3146105b6578063399dccb6146105c95780633f4ba83a146105d157600080fd5b806318160ddd1161039357806323b872dd1161036257806323b872dd14610526578063248a9ca3146105395780632c914aea1461055c5780632f2ff15d1461057d5780632f745c591461059057600080fd5b806318160ddd146104f75780631b7c0a26146104ff5780631e6f28651461051257806323a7657d1461051c57600080fd5b8063095ea7b3116103cf578063095ea7b3146104985780630d39fc81146104ad5780630ed36832146104b7578063150b7a02146104cb57600080fd5b806301ffc9a71461040157806306fdde0314610429578063081812fc1461043e578063082096af14610469575b600080fd5b61041461040f3660046142e8565b61094f565b60405190151581526020015b60405180910390f35b610431610960565b604051610420919061435d565b61045161044c366004614370565b6109f2565b6040516001600160a01b039091168152602001610420565b61048a610477366004614370565b6101f96020526000908152604090205481565b604051908152602001610420565b6104ab6104a63660046143ae565b610a8c565b005b61048a6101f75481565b6101f854610451906001600160a01b031681565b6104de6104d9366004614466565b610ba1565b6040516001600160e01b03199091168152602001610420565b60fd5461048a565b6104ab61050d366004614370565b610bb2565b61048a61020a5481565b61048a6102005481565b6104ab6105343660046144e6565b610bf5565b61048a610547366004614370565b60009081526065602052604090206001015490565b61048a61056a366004614370565b6101fe6020526000908152604090205481565b6104ab61058b366004614527565b610c27565b61048a61059e3660046143ae565b610c4d565b6104ab6105b1366004614527565b610ce3565b6104146105c4366004614370565b610d61565b61048a610e1d565b6104ab610e2f565b6104ab6105e73660046145c3565b610eb0565b6104ab6105fa3660046144e6565b6113d5565b6104ab61060d366004614370565b6113f0565b61048a6101ff5481565b6104ab61062a3660046146a4565b61146a565b61048a6102015481565b6104ab6106473660046146a4565b61152c565b6104ab611625565b6104ab6106623660046146c1565b61168c565b61048a610675366004614370565b6119de565b6104ab610688366004614370565b611a71565b61015f5460ff16610414565b6104ab6106a736600461472d565b611e25565b6104ab6106ba3660046146a4565b611ea5565b6104516106cd366004614370565b611f5b565b6104516106e0366004614370565b611fd2565b6104ab6106f3366004614370565b612047565b61048a6107063660046146a4565b61218e565b6104ab610719366004614370565b612215565b6104ab61072c3660046146a4565b612258565b61048a600080516020614d2983398151915281565b6104ab610754366004614370565b61227a565b610414610767366004614762565b612305565b61041461077a3660046146a4565b61241a565b6104ab612428565b61048a6107953660046146a4565b6102096020526000908152604090205481565b6101f654610451906001600160a01b031681565b6104516107ca3660046147a4565b6124a5565b610205546104149060ff1681565b6104146107eb366004614527565b6124c4565b6104316124ef565b61048a600081565b6104ab61080e3660046147d4565b6124fe565b61048a6102065481565b6104ab61082b366004614466565b612509565b61048a61083e3660046146a4565b6102046020526000908152604090205481565b61041461085f366004614370565b612541565b610431610872366004614370565b6125f0565b61048a610885366004614370565b6126ca565b6104ab610898366004614802565b6126e1565b61020c54610451906001600160a01b031681565b6104ab6108bf3660046146a4565b61276f565b6104ab6108d2366004614527565b61285c565b61020d54610451906001600160a01b031681565b61048a600080516020614d0983398151915281565b61041461090e366004614829565b6001600160a01b03918216600090815260ce6020908152604080832093909416825291909152205460ff1690565b6104ab61094a3660046144e6565b612882565b600061095a82612a32565b92915050565b606060c9805461096f90614857565b80601f016020809104026020016040519081016040528092919081815260200182805461099b90614857565b80156109e85780601f106109bd576101008083540402835291602001916109e8565b820191906000526020600020905b8154815290600101906020018083116109cb57829003601f168201915b5050505050905090565b600081815260cb60205260408120546001600160a01b0316610a705760405162461bcd60e51b815260206004820152602c60248201527f4552433732313a20617070726f76656420717565727920666f72206e6f6e657860448201526b34b9ba32b73a103a37b5b2b760a11b60648201526084015b60405180910390fd5b50600090815260cd60205260409020546001600160a01b031690565b6000610a9782611f5b565b9050806001600160a01b0316836001600160a01b031603610b045760405162461bcd60e51b815260206004820152602160248201527f4552433732313a20617070726f76616c20746f2063757272656e74206f776e656044820152603960f91b6064820152608401610a67565b336001600160a01b0382161480610b205750610b20813361090e565b610b925760405162461bcd60e51b815260206004820152603860248201527f4552433732313a20617070726f76652063616c6c6572206973206e6f74206f7760448201527f6e6572206e6f7220617070726f76656420666f7220616c6c00000000000000006064820152608401610a67565b610b9c8383612a57565b505050565b630a85bd0160e11b5b949350505050565b600080516020614d29833981519152610bcb8133612ac5565b61015f5460ff16610bee5760405162461bcd60e51b8152600401610a679061488b565b5061020a55565b610c00335b82612b29565b610c1c5760405162461bcd60e51b8152600401610a67906148b9565b610b9c838383612c1c565b600082815260656020526040902060010154610c438133612ac5565b610b9c8383612dc3565b6000610c588361218e565b8210610cba5760405162461bcd60e51b815260206004820152602b60248201527f455243373231456e756d657261626c653a206f776e657220696e646578206f7560448201526a74206f6620626f756e647360a81b6064820152608401610a67565b506001600160a01b0391909116600090815260fb60209081526040808320938352929052205490565b6001600160a01b0381163314610d535760405162461bcd60e51b815260206004820152602f60248201527f416363657373436f6e74726f6c3a2063616e206f6e6c792072656e6f756e636560448201526e103937b632b9903337b91039b2b63360891b6064820152608401610a67565b610d5d8282612de5565b5050565b6000600080516020614d29833981519152610d7c8133612ac5565b61015f5460ff16610d9f5760405162461bcd60e51b8152600401610a679061488b565b6000610dac610207612e07565b905083811015610dba578093505b60005b84811015610e10576000610dd361020782612e11565b6001600160a01b038116600090815261020960205260408120559050610dfb61020782612e1d565b50508080610e0890614920565b915050610dbd565b5060019250505b50919050565b6000610e2a610202612e07565b905090565b610e47600080516020614d09833981519152336124c4565b610ea65760405162461bcd60e51b815260206004820152602a60248201527f426c696e64426f783a206d75737420686176652070617573657220726f6c6520604482015269746f20756e706175736560b01b6064820152608401610a67565b610eae612e32565b565b600054610100900460ff16610ecb5760005460ff1615610ecf565b303b155b610f325760405162461bcd60e51b815260206004820152602e60248201527f496e697469616c697a61626c653a20636f6e747261637420697320616c72656160448201526d191e481a5b9a5d1a585b1a5e995960921b6064820152608401610a67565b600054610100900460ff16158015610f54576000805461ffff19166101011790555b610f5c612ea0565b610fac6040518060400160405280600f81526020016e088caccd2dcc24090cae4de4084def608b1b815250604051806040016040528060078152602001660908aa49e849eb60cb1b815250612ec7565b610fb4612ea0565b610fbc612ea0565b610fc4612f15565b610fcc612ea0565b610fd4612ea0565b610fdf600033612f49565b610ff7600080516020614d0983398151915233612f49565b61100f600080516020614d2983398151915233612f49565b611027600080516020614d29833981519152336124c4565b6110885760405162461bcd60e51b815260206004820152602c60248201527f426c696e64426f783a206d75737420686176652061646d696e20726f6c65207460448201526b6f20696e697469616c697a6560a01b6064820152608401610a67565b60008590036110a95760405162461bcd60e51b8152600401610a6790614939565b8483146110c85760405162461bcd60e51b8152600401610a679061497b565b61020c80546001600160a01b0319166001600160a01b038d1617905589516110f89061020b9060208d0190614239565b506101f680546001600160a01b03808c166001600160a01b0319928316179092556101f78a90556101f880548a841690831617905561020d80549285169290911691909117905560005b858110156112975786868281811061115c5761115c6149cc565b9050602002013560000361116f57600080fd5b848482818110611181576111816149cc565b9050602002013560000361119457600080fd5b8484828181106111a6576111a66149cc565b905060200201356101f960008989858181106111c4576111c46149cc565b905060200201358152602001908152602001600020819055508484828181106111ef576111ef6149cc565b905060200201356101fa600089898581811061120d5761120d6149cc565b9050602002013581526020019081526020016000208190555061125387878381811061123b5761123b6149cc565b905060200201356101fc612f5390919063ffffffff16565b50848482818110611266576112666149cc565b905060200201356101ff600082825461127f91906149e2565b9091555081905061128f81614920565b915050611142565b5060005b858110156113a6576101ff546101f960008989858181106112be576112be6149cc565b9050602002013581526020019081526020016000205464e8d4a510006112e491906149fa565b6112ee9190614a2f565b6101fb6000898985818110611305576113056149cc565b9050602002013581526020019081526020016000208190555060646101fb6000898985818110611337576113376149cc565b90506020020135815260200190815260200160002054600a61135991906149fa565b6113639190614a2f565b610210600089898581811061137a5761137a6149cc565b90506020020135815260200190815260200160002081905550808061139e90614920565b91505061129b565b506101ff546102015560001961020f5580156113c8576000805461ff00191690555b5050505050505050505050565b610b9c83838360405180602001604052806000815250612509565b6113f933610bfa565b61145e5760405162461bcd60e51b815260206004820152603060248201527f4552433732314275726e61626c653a2063616c6c6572206973206e6f74206f7760448201526f1b995c881b9bdc88185c1c1c9bdd995960821b6064820152608401610a67565b61146781612f5f565b50565b600080516020614d298339815191526114838133612ac5565b61015f5460ff166114a65760405162461bcd60e51b8152600401610a679061488b565b6001600160a01b0382166115085760405162461bcd60e51b815260206004820152602360248201527f5468652061646472657373206f662049455243323020746f6b656e206973206e6044820152621d5b1b60ea1b6064820152608401610a67565b506101f680546001600160a01b0319166001600160a01b0392909216919091179055565b600080516020614d298339815191526115458133612ac5565b61015f5460ff166115685760405162461bcd60e51b8152600401610a679061488b565b6001600160a01b0382166115ce5760405162461bcd60e51b815260206004820152602760248201527f5468652061646472657373206f662072616e646f6d2067656e657261746f72206044820152661a5cc81b9d5b1b60ca1b6064820152608401610a67565b61020d80546001600160a01b0319166001600160a01b0384169081179091556040519081527fcd980f874c8ee4a311d89457c809b87e0749309253fbdae752b7708965d48070906020015b60405180910390a15050565b600080516020614d2983398151915261163e8133612ac5565b61015f5460ff166116615760405162461bcd60e51b8152600401610a679061488b565b6102055460ff161561167b57610205805460ff1916905550565b610205805460ff1916600117905550565b600080516020614d298339815191526116a58133612ac5565b61015f5460ff166116c85760405162461bcd60e51b8152600401610a679061488b565b60008490036116e95760405162461bcd60e51b8152600401610a6790614939565b8382146117085760405162461bcd60e51b8152600401610a679061497b565b60006117156101fc612e07565b905060005b818110156117715760006117306101fc82612e11565b60008181526101f9602090815260408083208390556101fb909152812055905061175c6101fc82613006565b5050808061176990614920565b91505061171a565b5060006101ff8190556102008190555b858110156118be5786868281811061179b5761179b6149cc565b905060200201356000036117ae57600080fd5b8484828181106117c0576117c06149cc565b905060200201356000036117d357600080fd5b8484828181106117e5576117e56149cc565b905060200201356101f96000898985818110611803576118036149cc565b9050602002013581526020019081526020016000208190555084848281811061182e5761182e6149cc565b905060200201356101fa600089898581811061184c5761184c6149cc565b9050602002013581526020019081526020016000208190555061187a87878381811061123b5761123b6149cc565b5084848281811061188d5761188d6149cc565b905060200201356101ff60008282546118a691906149e2565b909155508190506118b681614920565b915050611781565b5060005b858110156119cd576101ff546101f960008989858181106118e5576118e56149cc565b9050602002013581526020019081526020016000205464e8d4a5100061190b91906149fa565b6119159190614a2f565b6101fb600089898581811061192c5761192c6149cc565b9050602002013581526020019081526020016000208190555060646101fb600089898581811061195e5761195e6149cc565b90506020020135815260200190815260200160002054600a61198091906149fa565b61198a9190614a2f565b61021060008989858181106119a1576119a16149cc565b9050602002013581526020019081526020016000208190555080806119c590614920565b9150506118c2565b50506101ff54610201555050505050565b60006119e960fd5490565b8210611a4c5760405162461bcd60e51b815260206004820152602c60248201527f455243373231456e756d657261626c653a20676c6f62616c20696e646578206f60448201526b7574206f6620626f756e647360a01b6064820152608401610a67565b60fd8281548110611a5f57611a5f6149cc565b90600052602060002001549050919050565b61015f5460ff1615611a955760405162461bcd60e51b8152600401610a6790614a43565b333214611ad85760405162461bcd60e51b8152602060048201526011602482015270426c696e64626f783a206e6f7420656f6160781b6044820152606401610a67565b60008111611b285760405162461bcd60e51b815260206004820152601860248201527f426c696e64426f783a206d697373696e6720616d6f756e7400000000000000006044820152606401610a67565b806102006000828254611b3b91906149e2565b90915550506101ff54610200541115611baf5760405162461bcd60e51b815260206004820152603060248201527f42696e64426f783a20657863656564656420746f74616c20626c696e6420626f60448201526f3c10313abcb0b136329038bab7ba309760811b6064820152608401610a67565b6102055460ff1615611c9e57611bc761020233613012565b611c0c5760405162461bcd60e51b81526020600482015260166024820152751bdb9b1e481dda1a5d195b1a5cdd08185b1b1bddd95960521b6044820152606401610a67565b610206543360009081526102046020526040902054611c2c9083906149e2565b1115611c735760405162461bcd60e51b81526020600482015260166024820152754f7574206f662077686974656c6973742071756f746160501b6044820152606401610a67565b336000908152610204602052604081208054839290611c939084906149e2565b90915550611d409050565b61020a543360009081526102096020526040902054611cbe9083906149e2565b1115611d0c5760405162461bcd60e51b815260206004820152601860248201527f4f7574206f66207075626c69632073656c6c2071756f746100000000000000006044820152606401610a67565b336000908152610209602052604081208054839290611d2c9084906149e2565b90915550611d3e905061020733613034565b505b60005b81811015611db857611d58336101f554613049565b6101f55460408051338152602081019290925280517f0f6798a560793a54c3bcfe86a93cde1e73087d944c0ea20544137d41213968859281900390910190a1611da66101f580546001019055565b80611db081614920565b915050611d43565b506000816101f754611dca91906149fa565b9050611dec336101f8546101f6546001600160a01b0390811692911684613197565b60405182815233907f53dd95d829e31e93d4b97ced80cdb8c1d859de42fc3b07850e70e7f71ceaab359060200160405180910390a25050565b600080516020614d29833981519152611e3e8133612ac5565b61015f5460ff16611e615760405162461bcd60e51b8152600401610a679061488b565b8151611e759061020b906020850190614239565b507fa773411019f3dee5411958c0beb4c6c0d8e788b1f76abd88d4389a935b177ecd82604051611619919061435d565b600080516020614d29833981519152611ebe8133612ac5565b61015f5460ff16611ee15760405162461bcd60e51b8152600401610a679061488b565b6001600160a01b038216611f375760405162461bcd60e51b815260206004820152601e60248201527f5468652061646472657373206f662072656365697665206973206e756c6c00006044820152606401610a67565b506101f880546001600160a01b0319166001600160a01b0392909216919091179055565b600081815260cb60205260408120546001600160a01b03168061095a5760405162461bcd60e51b815260206004820152602960248201527f4552433732313a206f776e657220717565727920666f72206e6f6e657869737460448201526832b73a103a37b5b2b760b91b6064820152608401610a67565b6000611fdf610202612e07565b821061203b5760405162461bcd60e51b815260206004820152602560248201527f446566696e614e46544d61726b65743a3a20696e646578206f7574206f6620626044820152646f756e647360d81b6064820152608401610a67565b61095a61020283612e11565b61015f5460ff161561206b5760405162461bcd60e51b8152600401610a6790614a43565b3332146120ae5760405162461bcd60e51b8152602060048201526011602482015270426c696e64626f783a206e6f7420656f6160781b6044820152606401610a67565b6120b733610bfa565b6120d35760405162461bcd60e51b8152600401610a6790614a6d565b61020d546001600160a01b0316631da3f15982336040516001600160e01b031960e085901b16815260048101929092526001600160a01b03166024820152604401600060405180830381600087803b15801561212e57600080fd5b505af1158015612142573d6000803e3d6000fd5b505061020d5461215e92506001600160a01b0316905082610a8c565b604051339082907f25d3ff687259f25e24ccfddc0b2a50e75350f0d89910eb7d8f9772ba673f352990600090a350565b60006001600160a01b0382166121f95760405162461bcd60e51b815260206004820152602a60248201527f4552433732313a2062616c616e636520717565727920666f7220746865207a65604482015269726f206164647265737360b01b6064820152608401610a67565b506001600160a01b0316600090815260cc602052604090205490565b600080516020614d2983398151915261222e8133612ac5565b61015f5460ff166122515760405162461bcd60e51b8152600401610a679061488b565b5061020655565b60006122648133612ac5565b61226f600083610c27565b610d5d60003361285c565b600080516020614d298339815191526122938133612ac5565b61015f5460ff166122b65760405162461bcd60e51b8152600401610a679061488b565b600082116122fe5760405162461bcd60e51b8152602060048201526015602482015274050726963652073686f756c64206e6f74206265203605c1b6044820152606401610a67565b506101f755565b6000600080516020614d298339815191526123208133612ac5565b61015f5460ff166123435760405162461bcd60e51b8152600401610a679061488b565b826123825760405162461bcd60e51b815260206004820152600f60248201526e0546865206c656e677468206973203608c1b6044820152606401610a67565b60005b8381101561240f5760008585838181106123a1576123a16149cc565b90506020020160208101906123b691906146a4565b6001600160a01b0316036123c957600080fd5b6123fc8585838181106123de576123de6149cc565b90506020020160208101906123f391906146a4565b61020290613034565b508061240781614920565b915050612385565b506001949350505050565b600061095a61020283613012565b612440600080516020614d09833981519152336124c4565b61249d5760405162461bcd60e51b815260206004820152602860248201527f426c696e64426f783a206d75737420686176652070617573657220726f6c6520604482015267746f20706175736560c01b6064820152608401610a67565b610eae6131f1565b60008281526097602052604081206124bd9083612e11565b9392505050565b60009182526065602090815260408084206001600160a01b0393909316845291905290205460ff1690565b606060ca805461096f90614857565b610d5d33838361324b565b6125133383612b29565b61252f5760405162461bcd60e51b8152600401610a67906148b9565b61253b84848484613319565b50505050565b6000600080516020614d2983398151915261255c8133612ac5565b61015f5460ff1661257f5760405162461bcd60e51b8152600401610a679061488b565b600061258c610202612e07565b90508381101561259a578093505b60005b84811015610e105760006125b361020282612e11565b6001600160a01b0381166000908152610204602052604081205590506125db61020282612e1d565b505080806125e890614920565b91505061259d565b600081815260cb60205260409020546060906001600160a01b031661266f5760405162461bcd60e51b815260206004820152602f60248201527f4552433732314d657461646174613a2055524920717565727920666f72206e6f60448201526e3732bc34b9ba32b73a103a37b5b2b760891b6064820152608401610a67565b600061267961334c565b9050600081511161269957604051806020016040528060008152506124bd565b806126a38461335c565b6040516020016126b4929190614ab7565b6040516020818303038152906040529392505050565b600081815260976020526040812061095a90612e07565b61020d546001600160a01b0316336001600160a01b0316146127645760405162461bcd60e51b815260206004820152603660248201527f426c696e64426f783a206f6e6c792073656c65637465642067656e657261746f6044820152751c8818d85b8818d85b1b081d1a1a5cc81b595d1a1bd960521b6064820152608401610a67565b610b9c83838361345d565b600080516020614d298339815191526127888133612ac5565b61015f5460ff166127ab5760405162461bcd60e51b8152600401610a679061488b565b6001600160a01b03821661280d5760405162461bcd60e51b8152602060048201526024808201527f5468652061646472657373206f66204945524337323120746f6b656e206973206044820152631b9d5b1b60e21b6064820152608401610a67565b61020c80546001600160a01b0319166001600160a01b0384169081179091556040519081527ff1e0c646b12b61a4571b5e8d9a75d9a86493f73bf470b22a741a39bc1558f68d90602001611619565b6000828152606560205260409020600101546128788133612ac5565b610b9c8383612de5565b600061288e8133612ac5565b6001600160a01b0383166128a157600080fd5b6001600160a01b0384166128b457600080fd5b6040516370a0823160e01b81523060048201526000906001600160a01b038616906370a0823190602401602060405180830381865afa1580156128fb573d6000803e3d6000fd5b505050506040513d601f19601f8201168201806040525081019061291f9190614ae6565b90508281101561292d578092505b60005b83811015612a2a57604051632f745c5960e01b8152306004820152600060248201819052906001600160a01b03881690632f745c5990604401602060405180830381865afa158015612986573d6000803e3d6000fd5b505050506040513d601f19601f820116820180604052508101906129aa9190614ae6565b604051632142170760e11b81523060048201526001600160a01b03888116602483015260448201839052919250908816906342842e0e90606401600060405180830381600087803b1580156129fe57600080fd5b505af1158015612a12573d6000803e3d6000fd5b50505050508080612a2290614920565b915050612930565b505050505050565b60006001600160e01b0319821663780e9d6360e01b148061095a575061095a82613692565b600081815260cd6020526040902080546001600160a01b0319166001600160a01b0384169081179091558190612a8c82611f5b565b6001600160a01b03167f8c5be1e5ebec7d5bd14f71427d1e84f3dd0314c0f7b2291e5b200ac8c7c3b92560405160405180910390a45050565b612acf82826124c4565b610d5d57612ae7816001600160a01b031660146136d2565b612af28360206136d2565b604051602001612b03929190614aff565b60408051601f198184030181529082905262461bcd60e51b8252610a679160040161435d565b600081815260cb60205260408120546001600160a01b0316612ba25760405162461bcd60e51b815260206004820152602c60248201527f4552433732313a206f70657261746f7220717565727920666f72206e6f6e657860448201526b34b9ba32b73a103a37b5b2b760a11b6064820152608401610a67565b6000612bad83611f5b565b9050806001600160a01b0316846001600160a01b03161480612be85750836001600160a01b0316612bdd846109f2565b6001600160a01b0316145b80610baa57506001600160a01b03808216600090815260ce602090815260408083209388168352929052205460ff16610baa565b826001600160a01b0316612c2f82611f5b565b6001600160a01b031614612c935760405162461bcd60e51b815260206004820152602560248201527f4552433732313a207472616e736665722066726f6d20696e636f72726563742060448201526437bbb732b960d91b6064820152608401610a67565b6001600160a01b038216612cf55760405162461bcd60e51b8152602060048201526024808201527f4552433732313a207472616e7366657220746f20746865207a65726f206164646044820152637265737360e01b6064820152608401610a67565b612d0083838361386e565b612d0b600082612a57565b6001600160a01b038316600090815260cc60205260408120805460019290612d34908490614b74565b90915550506001600160a01b038216600090815260cc60205260408120805460019290612d629084906149e2565b9091555050600081815260cb602052604080822080546001600160a01b0319166001600160a01b0386811691821790925591518493918716917fddf252ad1be2c89b69c2b068fc378daa952ba7f163c4a11628f55a4df523b3ef91a4505050565b612dcd8282613879565b6000828152609760205260409020610b9c9082613034565b612def82826138ff565b6000828152609760205260409020610b9c9082612e1d565b600061095a825490565b60006124bd8383613966565b60006124bd836001600160a01b038416613990565b61015f5460ff16612e555760405162461bcd60e51b8152600401610a679061488b565b61015f805460ff191690557f5db9ee0a495bf2e6ff9c91a7834c1ba4fdd244a5e8aa4e537bd38aeae4b073aa335b6040516001600160a01b03909116815260200160405180910390a1565b600054610100900460ff16610eae5760405162461bcd60e51b8152600401610a6790614b8b565b600054610100900460ff16612eee5760405162461bcd60e51b8152600401610a6790614b8b565b8151612f019060c9906020850190614239565b508051610b9c9060ca906020840190614239565b600054610100900460ff16612f3c5760405162461bcd60e51b8152600401610a6790614b8b565b61015f805460ff19169055565b610d5d8282612dc3565b60006124bd8383613a83565b6000612f6a82611f5b565b9050612f788160008461386e565b612f83600083612a57565b6001600160a01b038116600090815260cc60205260408120805460019290612fac908490614b74565b9091555050600082815260cb602052604080822080546001600160a01b0319169055518391906001600160a01b038416907fddf252ad1be2c89b69c2b068fc378daa952ba7f163c4a11628f55a4df523b3ef908390a45050565b60006124bd8383613990565b6001600160a01b038116600090815260018301602052604081205415156124bd565b60006124bd836001600160a01b038416613a83565b6001600160a01b03821661309f5760405162461bcd60e51b815260206004820181905260248201527f4552433732313a206d696e7420746f20746865207a65726f20616464726573736044820152606401610a67565b600081815260cb60205260409020546001600160a01b0316156131045760405162461bcd60e51b815260206004820152601c60248201527f4552433732313a20746f6b656e20616c7265616479206d696e746564000000006044820152606401610a67565b6131106000838361386e565b6001600160a01b038216600090815260cc602052604081208054600192906131399084906149e2565b9091555050600081815260cb602052604080822080546001600160a01b0319166001600160a01b03861690811790915590518392907fddf252ad1be2c89b69c2b068fc378daa952ba7f163c4a11628f55a4df523b3ef908290a45050565b604080516001600160a01b0385811660248301528416604482015260648082018490528251808303909101815260849091019091526020810180516001600160e01b03166323b872dd60e01b17905261253b908590613ad2565b61015f5460ff16156132155760405162461bcd60e51b8152600401610a6790614a43565b61015f805460ff191660011790557f62e78cea01bee320cd4e420270b5ea74000d11b0c9f74754ebdbfc544b05a258612e833390565b816001600160a01b0316836001600160a01b0316036132ac5760405162461bcd60e51b815260206004820152601960248201527f4552433732313a20617070726f766520746f2063616c6c6572000000000000006044820152606401610a67565b6001600160a01b03838116600081815260ce6020908152604080832094871680845294825291829020805460ff191686151590811790915591519182527f17307eab39ab6107e8899845ad3d59bd9653f200f220920489ca2b5937696c31910160405180910390a3505050565b613324848484612c1c565b61333084848484613ba4565b61253b5760405162461bcd60e51b8152600401610a6790614bd6565b606061020b805461096f90614857565b6060816000036133835750506040805180820190915260018152600360fc1b602082015290565b8160005b81156133ad578061339781614920565b91506133a69050600a83614a2f565b9150613387565b60008167ffffffffffffffff8111156133c8576133c86143da565b6040519080825280601f01601f1916602001820160405280156133f2576020820181803683370190505b5090505b8415610baa57613407600183614b74565b9150613414600a86614c28565b61341f9060306149e2565b60f81b818381518110613434576134346149cc565b60200101906001600160f81b031916908160001a905350613456600a86614a2f565b94506133f6565b6134678284612b29565b6134835760405162461bcd60e51b8152600401610a6790614a6d565b61348c836113f0565b61020f546003905b6134ab6134a685858561020154613ca2565b613d1e565b6102015460008281526101fa6020526040812054929350916134d29064e8d4a510006149fa565b6134dc9190614a2f565b60008381526101fb6020908152604080832054610210909252909120549192509061350790836149e2565b106135125750613529565b61351d600184614b74565b92505060008211613494575b61020f54810361353b5761353b614c3c565b60008181526101fa6020526040812080546001929061355b908490614b74565b92505081905550600161020160008282546135769190614b74565b909155505061020c5460405163140e25ad60e31b8152600481018390526000916001600160a01b03169063a0712d68906024016020604051808303816000875af11580156135c8573d6000803e3d6000fd5b505050506040513d601f19601f820116820180604052508101906135ec9190614ae6565b61020c54604051632142170760e11b81523060048201526001600160a01b038881166024830152604482018490529293509116906342842e0e90606401600060405180830381600087803b15801561364357600080fd5b505af1158015613657573d6000803e3d6000fd5b505050508082877f11b31b436792d2e77105df5b9a822dcd56f23ff877fd17c7e4eb3f0dc9b18b8660405160405180910390a4505050505050565b60006001600160e01b031982166380ac58cd60e01b14806136c357506001600160e01b03198216635b5e139f60e01b145b8061095a575061095a82613dab565b606060006136e18360026149fa565b6136ec9060026149e2565b67ffffffffffffffff811115613704576137046143da565b6040519080825280601f01601f19166020018201604052801561372e576020820181803683370190505b509050600360fc1b81600081518110613749576137496149cc565b60200101906001600160f81b031916908160001a905350600f60fb1b81600181518110613778576137786149cc565b60200101906001600160f81b031916908160001a905350600061379c8460026149fa565b6137a79060016149e2565b90505b600181111561381f576f181899199a1a9b1b9c1cb0b131b232b360811b85600f16601081106137db576137db6149cc565b1a60f81b8282815181106137f1576137f16149cc565b60200101906001600160f81b031916908160001a90535060049490941c9361381881614c52565b90506137aa565b5083156124bd5760405162461bcd60e51b815260206004820181905260248201527f537472696e67733a20686578206c656e67746820696e73756666696369656e746044820152606401610a67565b610b9c838383613dd0565b61388382826124c4565b610d5d5760008281526065602090815260408083206001600160a01b03851684529091529020805460ff191660011790556138bb3390565b6001600160a01b0316816001600160a01b0316837f2f8788117e7eff1d82e926ec794901d17c78024a50270940304540a733656f0d60405160405180910390a45050565b61390982826124c4565b15610d5d5760008281526065602090815260408083206001600160a01b0385168085529252808320805460ff1916905551339285917ff6391f5c32d9c69d2a47ea670b442974b53935d1edc7fd64eb21e047a839171b9190a45050565b600082600001828154811061397d5761397d6149cc565b9060005260206000200154905092915050565b60008181526001830160205260408120548015613a795760006139b4600183614b74565b85549091506000906139c890600190614b74565b9050818114613a2d5760008660000182815481106139e8576139e86149cc565b9060005260206000200154905080876000018481548110613a0b57613a0b6149cc565b6000918252602080832090910192909255918252600188019052604090208390555b8554869080613a3e57613a3e614c69565b60019003818190600052602060002001600090559055856001016000868152602001908152602001600020600090556001935050505061095a565b600091505061095a565b6000818152600183016020526040812054613aca5750815460018181018455600084815260208082209093018490558454848252828601909352604090209190915561095a565b50600061095a565b6000613b27826040518060400160405280602081526020017f5361666545524332303a206c6f772d6c6576656c2063616c6c206661696c6564815250856001600160a01b0316613e439092919063ffffffff16565b805190915015610b9c5780806020019051810190613b459190614c7f565b610b9c5760405162461bcd60e51b815260206004820152602a60248201527f5361666545524332303a204552433230206f7065726174696f6e20646964206e6044820152691bdd081cdd58d8d9595960b21b6064820152608401610a67565b60006001600160a01b0384163b15613c9a57604051630a85bd0160e11b81526001600160a01b0385169063150b7a0290613be8903390899088908890600401614c9c565b6020604051808303816000875af1925050508015613c23575060408051601f3d908101601f19168201909252613c2091810190614ccf565b60015b613c80573d808015613c51576040519150601f19603f3d011682016040523d82523d6000602084013e613c56565b606091505b508051600003613c785760405162461bcd60e51b8152600401610a6790614bd6565b805181602001fd5b6001600160e01b031916630a85bd0160e11b149050610baa565b506001610baa565b6040805142602080830191909152448284015260608083018590526bffffffffffffffffffffffff1988821b811660808501526094840188905260b484018790523390911b1660d4830152825180830360c801815260e890920190925280519101206000908190613d14908490614c28565b9695505050505050565b600080613d2c6101fc612e07565b90506000805b82811015613da357613d466101fc82612e11565b60008181526101fa602052604090205490925015613d915760008281526101fa60205260409020548510613da35760008281526101fa6020526040902054613d8e9086614b74565b94505b80613d9b81614920565b915050613d32565b509392505050565b60006001600160e01b03198216635a05180f60e01b148061095a575061095a82613e52565b613ddb838383613e87565b61015f5460ff1615610b9c5760405162461bcd60e51b815260206004820152602b60248201527f4552433732315061757361626c653a20746f6b656e207472616e73666572207760448201526a1a1a5b19481c185d5cd95960aa1b6064820152608401610a67565b6060610baa8484600085613f3f565b60006001600160e01b03198216637965db0b60e01b148061095a57506301ffc9a760e01b6001600160e01b031983161461095a565b6001600160a01b038316613ee257613edd8160fd8054600083815260fe60205260408120829055600182018355919091527f9346ac6dd7de6b96975fec380d4d994c4c12e6a8897544f22915316cc6cca2800155565b613f05565b816001600160a01b0316836001600160a01b031614613f0557613f058382614070565b6001600160a01b038216613f1c57610b9c8161410d565b826001600160a01b0316826001600160a01b031614610b9c57610b9c82826141bc565b606082471015613fa05760405162461bcd60e51b815260206004820152602660248201527f416464726573733a20696e73756666696369656e742062616c616e636520666f6044820152651c8818d85b1b60d21b6064820152608401610a67565b6001600160a01b0385163b613ff75760405162461bcd60e51b815260206004820152601d60248201527f416464726573733a2063616c6c20746f206e6f6e2d636f6e74726163740000006044820152606401610a67565b600080866001600160a01b031685876040516140139190614cec565b60006040518083038185875af1925050503d8060008114614050576040519150601f19603f3d011682016040523d82523d6000602084013e614055565b606091505b5091509150614065828286614200565b979650505050505050565b6000600161407d8461218e565b6140879190614b74565b600083815260fc60205260409020549091508082146140da576001600160a01b038416600090815260fb60209081526040808320858452825280832054848452818420819055835260fc90915290208190555b50600091825260fc602090815260408084208490556001600160a01b03909416835260fb81528383209183525290812055565b60fd5460009061411f90600190614b74565b600083815260fe602052604081205460fd8054939450909284908110614147576141476149cc565b906000526020600020015490508060fd8381548110614168576141686149cc565b600091825260208083209091019290925582815260fe909152604080822084905585825281205560fd8054806141a0576141a0614c69565b6001900381819060005260206000200160009055905550505050565b60006141c78361218e565b6001600160a01b03909316600090815260fb60209081526040808320868452825280832085905593825260fc9052919091209190915550565b6060831561420f5750816124bd565b82511561421f5782518084602001fd5b8160405162461bcd60e51b8152600401610a67919061435d565b82805461424590614857565b90600052602060002090601f01602090048101928261426757600085556142ad565b82601f1061428057805160ff19168380011785556142ad565b828001600101855582156142ad579182015b828111156142ad578251825591602001919060010190614292565b506142b99291506142bd565b5090565b5b808211156142b957600081556001016142be565b6001600160e01b03198116811461146757600080fd5b6000602082840312156142fa57600080fd5b81356124bd816142d2565b60005b83811015614320578181015183820152602001614308565b8381111561253b5750506000910152565b60008151808452614349816020860160208601614305565b601f01601f19169290920160200192915050565b6020815260006124bd6020830184614331565b60006020828403121561438257600080fd5b5035919050565b6001600160a01b038116811461146757600080fd5b80356143a981614389565b919050565b600080604083850312156143c157600080fd5b82356143cc81614389565b946020939093013593505050565b634e487b7160e01b600052604160045260246000fd5b600067ffffffffffffffff8084111561440b5761440b6143da565b604051601f8501601f19908116603f01168101908282118183101715614433576144336143da565b8160405280935085815286868601111561444c57600080fd5b858560208301376000602087830101525050509392505050565b6000806000806080858703121561447c57600080fd5b843561448781614389565b9350602085013561449781614389565b925060408501359150606085013567ffffffffffffffff8111156144ba57600080fd5b8501601f810187136144cb57600080fd5b6144da878235602084016143f0565b91505092959194509250565b6000806000606084860312156144fb57600080fd5b833561450681614389565b9250602084013561451681614389565b929592945050506040919091013590565b6000806040838503121561453a57600080fd5b82359150602083013561454c81614389565b809150509250929050565b600082601f83011261456857600080fd5b6124bd838335602085016143f0565b60008083601f84011261458957600080fd5b50813567ffffffffffffffff8111156145a157600080fd5b6020830191508360208260051b85010111156145bc57600080fd5b9250929050565b6000806000806000806000806000806101008b8d0312156145e357600080fd5b6145ec8b61439e565b995060208b013567ffffffffffffffff8082111561460957600080fd5b6146158e838f01614557565b9a5061462360408e0161439e565b995060608d0135985061463860808e0161439e565b975060a08d013591508082111561464e57600080fd5b61465a8e838f01614577565b909750955060c08d013591508082111561467357600080fd5b506146808d828e01614577565b9094509250614693905060e08c0161439e565b90509295989b9194979a5092959850565b6000602082840312156146b657600080fd5b81356124bd81614389565b600080600080604085870312156146d757600080fd5b843567ffffffffffffffff808211156146ef57600080fd5b6146fb88838901614577565b9096509450602087013591508082111561471457600080fd5b5061472187828801614577565b95989497509550505050565b60006020828403121561473f57600080fd5b813567ffffffffffffffff81111561475657600080fd5b610baa84828501614557565b6000806020838503121561477557600080fd5b823567ffffffffffffffff81111561478c57600080fd5b61479885828601614577565b90969095509350505050565b600080604083850312156147b757600080fd5b50508035926020909101359150565b801515811461146757600080fd5b600080604083850312156147e757600080fd5b82356147f281614389565b9150602083013561454c816147c6565b60008060006060848603121561481757600080fd5b83359250602084013561451681614389565b6000806040838503121561483c57600080fd5b823561484781614389565b9150602083013561454c81614389565b600181811c9082168061486b57607f821691505b602082108103610e1757634e487b7160e01b600052602260045260246000fd5b60208082526014908201527314185d5cd8589b194e881b9bdd081c185d5cd95960621b604082015260600190565b60208082526031908201527f4552433732313a207472616e736665722063616c6c6572206973206e6f74206f6040820152701ddb995c881b9bdc88185c1c1c9bdd9959607a1b606082015260800190565b634e487b7160e01b600052601160045260246000fd5b6000600182016149325761493261490a565b5060010190565b60208082526022908201527f426c696e64426f783a204e6f2063617264496473207761732070726f76696465604082015261321760f11b606082015260800190565b60208082526031908201527f426c696e64426f783a204e756d626572206f66206361726420696473206e6f74604082015270206d6174636820636172642071756f746160781b606082015260800190565b634e487b7160e01b600052603260045260246000fd5b600082198211156149f5576149f561490a565b500190565b6000816000190483118215151615614a1457614a1461490a565b500290565b634e487b7160e01b600052601260045260246000fd5b600082614a3e57614a3e614a19565b500490565b60208082526010908201526f14185d5cd8589b194e881c185d5cd95960821b604082015260600190565b6020808252602a908201527f426c696e64426f783a2063616c6c6572206973206e6f74206f776e6572206e6f6040820152691c88185c1c1c9bdd995960b21b606082015260800190565b60008351614ac9818460208801614305565b835190830190614add818360208801614305565b01949350505050565b600060208284031215614af857600080fd5b5051919050565b7f416363657373436f6e74726f6c3a206163636f756e7420000000000000000000815260008351614b37816017850160208801614305565b7001034b99036b4b9b9b4b733903937b6329607d1b6017918401918201528351614b68816028840160208801614305565b01602801949350505050565b600082821015614b8657614b8661490a565b500390565b6020808252602b908201527f496e697469616c697a61626c653a20636f6e7472616374206973206e6f74206960408201526a6e697469616c697a696e6760a81b606082015260800190565b60208082526032908201527f4552433732313a207472616e7366657220746f206e6f6e20455243373231526560408201527131b2b4bb32b91034b6b83632b6b2b73a32b960711b606082015260800190565b600082614c3757614c37614a19565b500690565b634e487b7160e01b600052600160045260246000fd5b600081614c6157614c6161490a565b506000190190565b634e487b7160e01b600052603160045260246000fd5b600060208284031215614c9157600080fd5b81516124bd816147c6565b6001600160a01b0385811682528416602082015260408101839052608060608201819052600090613d1490830184614331565b600060208284031215614ce157600080fd5b81516124bd816142d2565b60008251614cfe818460208701614305565b919091019291505056fe65d7a28e3265b37a6474929f336521b332c1681b933f6cb9f3376673440d862aa49807205ce4d355092ef5a8a18f56e8913cf4a201fbe287825b095693c21775a2646970667358221220eaa390383cbf95ceaa1550b2c29b596718c1f37205a869489e73433b08284c7664736f6c634300080d0033",
    "sourcePath": "f:/blockchain/dapp-example/hardhat/contracts/DefinaHeroBoxV2.sol",
    "compiler": {
        "name": "solc",
        "version": "0.8.13+commit.abaa5c0e"
    },
    "functionHashes": {
        "ADMIN_ROLE()": "75b238fc",
        "DEFAULT_ADMIN_ROLE()": "a217fddf",
        "PAUSER_ROLE()": "e63ab1e9",
        "addToWhitelist(address[])": "7f649783",
        "approve(address,uint256)": "095ea7b3",
        "balanceOf(address)": "70a08231",
        "burn(uint256)": "42966c68",
        "cardsQuota(uint256)": "082096af",
        "cleanPublicBuyHistory(uint256)": "380fced3",
        "cleanWhitelist(uint256)": "c32bc364",
        "containsInWhiteList(address)": "82396284",
        "currToken()": "88aac7b4",
        "getApproved(uint256)": "081812fc",
        "getRoleAdmin(bytes32)": "248a9ca3",
        "getRoleMember(bytes32,uint256)": "9010d07c",
        "getRoleMemberCount(bytes32)": "ca15c873",
        "grantRole(bytes32,address)": "2f2ff15d",
        "hasRole(bytes32,address)": "91d14854",
        "initialize(address,string,address,uint256,address,uint256[],uint256[],address)": "3fc80923",
        "isApprovedForAll(address,address)": "e985e9c5",
        "mintMulti(uint256)": "51e5d91d",
        "name()": "06fdde03",
        "nftIdtoCardId(uint256)": "2c914aea",
        "nftPrice()": "0d39fc81",
        "nftToken()": "d06fcba8",
        "onERC721Received(address,address,uint256,bytes)": "150b7a02",
        "open(uint256)": "690e7c09",
        "ownerOf(uint256)": "6352211e",
        "pause()": "8456cb59",
        "paused()": "5c975abb",
        "publicBuyableQuota()": "1e6f2865",
        "publicBuyingHistory(address)": "85c239bb",
        "pullNFTs(address,address,uint256)": "f9b3dd08",
        "randomGenerator()": "dcbad90d",
        "renounceRole(bytes32,address)": "36568abe",
        "revokeRole(bytes32,address)": "d547741f",
        "runFulfillRandomness(uint256,address,uint256)": "ced0603f",
        "safeTransferFrom(address,address,uint256)": "42842e0e",
        "safeTransferFrom(address,address,uint256,bytes)": "b88d4fde",
        "setApprovalForAll(address,bool)": "a22cb465",
        "setCardsQuota(uint256[],uint256[])": "4f2efc72",
        "setCurrToken(address)": "460dd82b",
        "setErc20TokenReceiveAddress(address)": "613dd331",
        "setMyBaseURI(string)": "5dcce234",
        "setNftPrice(uint256)": "7d9a7a4c",
        "setNftToken(address)": "d207e244",
        "setPublicBuyableQuota(uint256)": "1b7c0a26",
        "setRandomGenerator(address)": "4bc19fee",
        "setWhiteListBuyableQuota(uint256)": "72aa3b62",
        "supportsInterface(bytes4)": "01ffc9a7",
        "symbol()": "95d89b41",
        "toggleWhiteListOnly()": "4de03161",
        "tokenByIndex(uint256)": "4f6ccce7",
        "tokenOfOwnerByIndex(address,uint256)": "2f745c59",
        "tokenReceiveAddress()": "0ed36832",
        "tokenURI(uint256)": "c87b56dd",
        "totalBlindBoxQuota()": "43953e13",
        "totalBlindBoxRemaining()": "475f9505",
        "totalBlindBoxSold()": "23a7657d",
        "totalSupply()": "18160ddd",
        "transferAdmin(address)": "75829def",
        "transferFrom(address,address,uint256)": "23b872dd",
        "unpause()": "3f4ba83a",
        "whiteListAtIndex(uint256)": "63f2ff1a",
        "whiteListBuyableQuota()": "a2b16505",
        "whiteListCount()": "399dccb6",
        "whiteListOnly()": "912554cb",
        "whitelistBuyingHistory(address)": "bd09e555"
    },
    "gasEstimates": {
        "creation": {
            "codeDepositCost": "3967600",
            "executionCost": "4521",
            "totalCost": "3972121"
        },
        "external": {
            "ADMIN_ROLE()": "infinite",
            "DEFAULT_ADMIN_ROLE()": "285",
            "PAUSER_ROLE()": "infinite",
            "addToWhitelist(address[])": "infinite",
            "approve(address,uint256)": "infinite",
            "balanceOf(address)": "2651",
            "burn(uint256)": "infinite",
            "cardsQuota(uint256)": "2574",
            "cleanPublicBuyHistory(uint256)": "infinite",
            "cleanWhitelist(uint256)": "infinite",
            "containsInWhiteList(address)": "infinite",
            "currToken()": "2426",
            "getApproved(uint256)": "4806",
            "getRoleAdmin(bytes32)": "2534",
            "getRoleMember(bytes32,uint256)": "infinite",
            "getRoleMemberCount(bytes32)": "infinite",
            "grantRole(bytes32,address)": "infinite",
            "hasRole(bytes32,address)": "2808",
            "initialize(address,string,address,uint256,address,uint256[],uint256[],address)": "infinite",
            "isApprovedForAll(address,address)": "infinite",
            "mintMulti(uint256)": "infinite",
            "name()": "infinite",
            "nftIdtoCardId(uint256)": "2550",
            "nftPrice()": "2386",
            "nftToken()": "2448",
            "onERC721Received(address,address,uint256,bytes)": "infinite",
            "open(uint256)": "infinite",
            "ownerOf(uint256)": "2647",
            "pause()": "infinite",
            "paused()": "2426",
            "publicBuyableQuota()": "2408",
            "publicBuyingHistory(address)": "2580",
            "pullNFTs(address,address,uint256)": "infinite",
            "randomGenerator()": "2425",
            "renounceRole(bytes32,address)": "infinite",
            "revokeRole(bytes32,address)": "infinite",
            "runFulfillRandomness(uint256,address,uint256)": "infinite",
            "safeTransferFrom(address,address,uint256)": "infinite",
            "safeTransferFrom(address,address,uint256,bytes)": "infinite",
            "setApprovalForAll(address,bool)": "infinite",
            "setCardsQuota(uint256[],uint256[])": "infinite",
            "setCurrToken(address)": "infinite",
            "setErc20TokenReceiveAddress(address)": "infinite",
            "setMyBaseURI(string)": "infinite",
            "setNftPrice(uint256)": "infinite",
            "setNftToken(address)": "infinite",
            "setPublicBuyableQuota(uint256)": "infinite",
            "setRandomGenerator(address)": "infinite",
            "setWhiteListBuyableQuota(uint256)": "infinite",
            "supportsInterface(bytes4)": "infinite",
            "symbol()": "infinite",
            "toggleWhiteListOnly()": "infinite",
            "tokenByIndex(uint256)": "6804",
            "tokenOfOwnerByIndex(address,uint256)": "5080",
            "tokenReceiveAddress()": "2450",
            "tokenURI(uint256)": "infinite",
            "totalBlindBoxQuota()": "2429",
            "totalBlindBoxRemaining()": "2385",
            "totalBlindBoxSold()": "2430",
            "totalSupply()": "2361",
            "transferAdmin(address)": "infinite",
            "transferFrom(address,address,uint256)": "infinite",
            "unpause()": "infinite",
            "whiteListAtIndex(uint256)": "infinite",
            "whiteListBuyableQuota()": "2429",
            "whiteListCount()": "2483",
            "whiteListOnly()": "2432",
            "whitelistBuyingHistory(address)": "2602"
        },
        "internal": {
            "_baseURI()": "infinite",
            "_beforeTokenTransfer(address,address,uint256)": "infinite",
            "_randModulus(address,uint256,uint256,uint256)": "infinite",
            "fulfillRandomness(uint256,address,uint256)": "infinite",
            "indexToCardId(uint256)": "infinite"
        }
    }
}